{
  "_format": "hh-sol-artifact-1",
  "contractName": "AccessManager",
  "sourceName": "contracts/AccessManager.sol",
  "abi": [
    {
      "inputs": [],
      "stateMutability": "nonpayable",
      "type": "constructor"
    },
    {
      "anonymous": false,
      "inputs": [
        {
          "indexed": false,
          "internalType": "address",
          "name": "previousAdmin",
          "type": "address"
        },
        {
          "indexed": false,
          "internalType": "address",
          "name": "newAdmin",
          "type": "address"
        }
      ],
      "name": "AdminChanged",
      "type": "event"
    },
    {
      "anonymous": false,
      "inputs": [
        {
          "indexed": true,
          "internalType": "address",
          "name": "beacon",
          "type": "address"
        }
      ],
      "name": "BeaconUpgraded",
      "type": "event"
    },
    {
      "anonymous": false,
      "inputs": [
        {
          "indexed": false,
          "internalType": "uint8",
          "name": "version",
          "type": "uint8"
        }
      ],
      "name": "Initialized",
      "type": "event"
    },
    {
      "anonymous": false,
      "inputs": [
        {
          "indexed": true,
          "internalType": "bytes32",
          "name": "role",
          "type": "bytes32"
        },
        {
          "indexed": true,
          "internalType": "bytes32",
          "name": "previousAdminRole",
          "type": "bytes32"
        },
        {
          "indexed": true,
          "internalType": "bytes32",
          "name": "newAdminRole",
          "type": "bytes32"
        }
      ],
      "name": "RoleAdminChanged",
      "type": "event"
    },
    {
      "anonymous": false,
      "inputs": [
        {
          "indexed": true,
          "internalType": "bytes32",
          "name": "role",
          "type": "bytes32"
        },
        {
          "indexed": true,
          "internalType": "address",
          "name": "account",
          "type": "address"
        },
        {
          "indexed": true,
          "internalType": "address",
          "name": "sender",
          "type": "address"
        }
      ],
      "name": "RoleGranted",
      "type": "event"
    },
    {
      "anonymous": false,
      "inputs": [
        {
          "indexed": true,
          "internalType": "bytes32",
          "name": "role",
          "type": "bytes32"
        },
        {
          "indexed": true,
          "internalType": "address",
          "name": "account",
          "type": "address"
        },
        {
          "indexed": true,
          "internalType": "address",
          "name": "sender",
          "type": "address"
        }
      ],
      "name": "RoleRevoked",
      "type": "event"
    },
    {
      "anonymous": false,
      "inputs": [
        {
          "indexed": true,
          "internalType": "address",
          "name": "implementation",
          "type": "address"
        }
      ],
      "name": "Upgraded",
      "type": "event"
    },
    {
      "inputs": [],
      "name": "ANY_COMPONENT",
      "outputs": [
        {
          "internalType": "address",
          "name": "",
          "type": "address"
        }
      ],
      "stateMutability": "view",
      "type": "function"
    },
    {
      "inputs": [],
      "name": "DEFAULT_ADMIN_ROLE",
      "outputs": [
        {
          "internalType": "bytes32",
          "name": "",
          "type": "bytes32"
        }
      ],
      "stateMutability": "view",
      "type": "function"
    },
    {
      "inputs": [],
      "name": "GUARDIAN_ROLE",
      "outputs": [
        {
          "internalType": "bytes32",
          "name": "",
          "type": "bytes32"
        }
      ],
      "stateMutability": "view",
      "type": "function"
    },
    {
      "inputs": [],
      "name": "LEVEL1_ROLE",
      "outputs": [
        {
          "internalType": "bytes32",
          "name": "",
          "type": "bytes32"
        }
      ],
      "stateMutability": "view",
      "type": "function"
    },
    {
      "inputs": [],
      "name": "LEVEL2_ROLE",
      "outputs": [
        {
          "internalType": "bytes32",
          "name": "",
          "type": "bytes32"
        }
      ],
      "stateMutability": "view",
      "type": "function"
    },
    {
      "inputs": [],
      "name": "LEVEL3_ROLE",
      "outputs": [
        {
          "internalType": "bytes32",
          "name": "",
          "type": "bytes32"
        }
      ],
      "stateMutability": "view",
      "type": "function"
    },
    {
      "inputs": [
        {
          "internalType": "address",
          "name": "component",
          "type": "address"
        },
        {
          "internalType": "bytes32",
          "name": "role",
          "type": "bytes32"
        },
        {
          "internalType": "address",
          "name": "account",
          "type": "address"
        },
        {
          "internalType": "bool",
          "name": "alsoGlobal",
          "type": "bool"
        }
      ],
      "name": "checkComponentRole",
      "outputs": [],
      "stateMutability": "view",
      "type": "function"
    },
    {
      "inputs": [
        {
          "internalType": "address",
          "name": "component",
          "type": "address"
        },
        {
          "internalType": "bytes32",
          "name": "role1",
          "type": "bytes32"
        },
        {
          "internalType": "bytes32",
          "name": "role2",
          "type": "bytes32"
        },
        {
          "internalType": "address",
          "name": "account",
          "type": "address"
        },
        {
          "internalType": "bool",
          "name": "alsoGlobal",
          "type": "bool"
        }
      ],
      "name": "checkComponentRole2",
      "outputs": [],
      "stateMutability": "view",
      "type": "function"
    },
    {
      "inputs": [
        {
          "internalType": "bytes32",
          "name": "role",
          "type": "bytes32"
        },
        {
          "internalType": "address",
          "name": "account",
          "type": "address"
        }
      ],
      "name": "checkRole",
      "outputs": [],
      "stateMutability": "view",
      "type": "function"
    },
    {
      "inputs": [
        {
          "internalType": "bytes32",
          "name": "role1",
          "type": "bytes32"
        },
        {
          "internalType": "bytes32",
          "name": "role2",
          "type": "bytes32"
        },
        {
          "internalType": "address",
          "name": "account",
          "type": "address"
        }
      ],
      "name": "checkRole2",
      "outputs": [],
      "stateMutability": "view",
      "type": "function"
    },
    {
      "inputs": [
        {
          "internalType": "address",
          "name": "component",
          "type": "address"
        },
        {
          "internalType": "bytes32",
          "name": "role",
          "type": "bytes32"
        }
      ],
      "name": "getComponentRole",
      "outputs": [
        {
          "internalType": "bytes32",
          "name": "",
          "type": "bytes32"
        }
      ],
      "stateMutability": "pure",
      "type": "function"
    },
    {
      "inputs": [
        {
          "internalType": "bytes32",
          "name": "role",
          "type": "bytes32"
        }
      ],
      "name": "getRoleAdmin",
      "outputs": [
        {
          "internalType": "bytes32",
          "name": "",
          "type": "bytes32"
        }
      ],
      "stateMutability": "view",
      "type": "function"
    },
    {
      "inputs": [
        {
          "internalType": "address",
          "name": "component",
          "type": "address"
        },
        {
          "internalType": "bytes32",
          "name": "role",
          "type": "bytes32"
        },
        {
          "internalType": "address",
          "name": "account",
          "type": "address"
        }
      ],
      "name": "grantComponentRole",
      "outputs": [],
      "stateMutability": "nonpayable",
      "type": "function"
    },
    {
      "inputs": [
        {
          "internalType": "bytes32",
          "name": "role",
          "type": "bytes32"
        },
        {
          "internalType": "address",
          "name": "account",
          "type": "address"
        }
      ],
      "name": "grantRole",
      "outputs": [],
      "stateMutability": "nonpayable",
      "type": "function"
    },
    {
      "inputs": [
        {
          "internalType": "address",
          "name": "component",
          "type": "address"
        },
        {
          "internalType": "bytes32",
          "name": "role",
          "type": "bytes32"
        },
        {
          "internalType": "address",
          "name": "account",
          "type": "address"
        },
        {
          "internalType": "bool",
          "name": "alsoGlobal",
          "type": "bool"
        }
      ],
      "name": "hasComponentRole",
      "outputs": [
        {
          "internalType": "bool",
          "name": "",
          "type": "bool"
        }
      ],
      "stateMutability": "view",
      "type": "function"
    },
    {
      "inputs": [
        {
          "internalType": "bytes32",
          "name": "role",
          "type": "bytes32"
        },
        {
          "internalType": "address",
          "name": "account",
          "type": "address"
        }
      ],
      "name": "hasRole",
      "outputs": [
        {
          "internalType": "bool",
          "name": "",
          "type": "bool"
        }
      ],
      "stateMutability": "view",
      "type": "function"
    },
    {
      "inputs": [],
      "name": "initialize",
      "outputs": [],
      "stateMutability": "nonpayable",
      "type": "function"
    },
    {
      "inputs": [],
      "name": "proxiableUUID",
      "outputs": [
        {
          "internalType": "bytes32",
          "name": "",
          "type": "bytes32"
        }
      ],
      "stateMutability": "view",
      "type": "function"
    },
    {
      "inputs": [
        {
          "internalType": "bytes32",
          "name": "role",
          "type": "bytes32"
        },
        {
          "internalType": "address",
          "name": "account",
          "type": "address"
        }
      ],
      "name": "renounceRole",
      "outputs": [],
      "stateMutability": "nonpayable",
      "type": "function"
    },
    {
      "inputs": [
        {
          "internalType": "bytes32",
          "name": "role",
          "type": "bytes32"
        },
        {
          "internalType": "address",
          "name": "account",
          "type": "address"
        }
      ],
      "name": "revokeRole",
      "outputs": [],
      "stateMutability": "nonpayable",
      "type": "function"
    },
    {
      "inputs": [
        {
          "internalType": "address",
          "name": "component",
          "type": "address"
        },
        {
          "internalType": "bytes32",
          "name": "role",
          "type": "bytes32"
        },
        {
          "internalType": "bytes32",
          "name": "adminRole",
          "type": "bytes32"
        }
      ],
      "name": "setComponentRoleAdmin",
      "outputs": [],
      "stateMutability": "nonpayable",
      "type": "function"
    },
    {
      "inputs": [
        {
          "internalType": "bytes32",
          "name": "role",
          "type": "bytes32"
        },
        {
          "internalType": "bytes32",
          "name": "adminRole",
          "type": "bytes32"
        }
      ],
      "name": "setRoleAdmin",
      "outputs": [],
      "stateMutability": "nonpayable",
      "type": "function"
    },
    {
      "inputs": [
        {
          "internalType": "bytes4",
          "name": "interfaceId",
          "type": "bytes4"
        }
      ],
      "name": "supportsInterface",
      "outputs": [
        {
          "internalType": "bool",
          "name": "",
          "type": "bool"
        }
      ],
      "stateMutability": "view",
      "type": "function"
    },
    {
      "inputs": [
        {
          "internalType": "address",
          "name": "newImplementation",
          "type": "address"
        }
      ],
      "name": "upgradeTo",
      "outputs": [],
      "stateMutability": "nonpayable",
      "type": "function"
    },
    {
      "inputs": [
        {
          "internalType": "address",
          "name": "newImplementation",
          "type": "address"
        },
        {
          "internalType": "bytes",
          "name": "data",
          "type": "bytes"
        }
      ],
      "name": "upgradeToAndCall",
      "outputs": [],
      "stateMutability": "payable",
      "type": "function"
    }
  ],
  "bytecode": "0x60a06040523060805234801561001457600080fd5b5061001d610022565b6100e2565b600054610100900460ff161561008e5760405162461bcd60e51b815260206004820152602760248201527f496e697469616c697a61626c653a20636f6e747261637420697320696e697469604482015266616c697a696e6760c81b606482015260840160405180910390fd5b60005460ff90811610156100e0576000805460ff191660ff9081179091556040519081527f7f26b83ff96e1f2b6a682f133852f6798a09c465da95921460cefb38474024989060200160405180910390a15b565b608051611a7361011960003960008181610671015281816106b101528181610769015281816107a901526108380152611a736000f3fe6080604052600436106101665760003560e01c806352d1902d116100d1578063ad358f071161008a578063d0b1825611610064578063d0b182561461046e578063d547741f1461048e578063f67b2bad146104ae578063f6a421fc146104e257600080fd5b8063ad358f07146103ee578063b3efcbd21461042e578063c5b8f5cf1461044e57600080fd5b806352d1902d1461033b5780635b494dd5146103505780635ff57d20146103845780638129fc1c146103a457806391d14854146103b9578063a217fddf146103d957600080fd5b80632f2ff15d116101235780632f2ff15d1461027457806336568abe146102945780633659cfe6146102b4578063374c96c8146102d45780634a47a3e0146102f45780634f1ef2861461032857600080fd5b806301ffc9a71461016b57806312d9a6ad146101a05780631e4e0091146101c2578063248a9ca3146101e257806324ea54f4146102205780632b1cff1f14610254575b600080fd5b34801561017757600080fd5b5061018b6101863660046113e6565b610502565b60405190151581526020015b60405180910390f35b3480156101ac57600080fd5b506101c06101bb36600461142c565b61052e565b005b3480156101ce57600080fd5b506101c06101dd366004611458565b61053c565b3480156101ee57600080fd5b506102126101fd36600461147a565b60009081526065602052604090206001015490565b604051908152602001610197565b34801561022c57600080fd5b506102127f55435dd261a4b9b3364963f7738a7a662ad9c84396d64be3365284bb7f0a504181565b34801561026057600080fd5b506101c061026f3660046114a3565b610566565b34801561028057600080fd5b506101c061028f36600461142c565b6105c3565b3480156102a057600080fd5b506101c06102af36600461142c565b6105e8565b3480156102c057600080fd5b506101c06102cf3660046114fa565b610667565b3480156102e057600080fd5b506102126102ef366004611515565b610746565b34801561030057600080fd5b506102127fa82e22387fca439f316d78ca566f383218ab8ae1b3e830178c9c82cbd16749c081565b6101c0610336366004611555565b61075f565b34801561034757600080fd5b5061021261082b565b34801561035c57600080fd5b506102127f5ec196419322369c6bac572d883f4d990ae5ec82f7d93cdf89b85dbb05b63c2781565b34801561039057600080fd5b506101c061039f366004611617565b6108de565b3480156103b057600080fd5b506101c061090a565b3480156103c557600080fd5b5061018b6103d436600461142c565b610a2a565b3480156103e557600080fd5b50610212600081565b3480156103fa57600080fd5b5061041673eeeeeeeeeeeeeeeeeeeeeeeeeeeeeeeeeeeeeeee81565b6040516001600160a01b039091168152602001610197565b34801561043a57600080fd5b5061018b610449366004611617565b610a55565b34801561045a57600080fd5b506101c0610469366004611664565b610a8b565b34801561047a57600080fd5b506101c0610489366004611699565b610aa3565b34801561049a57600080fd5b506101c06104a936600461142c565b610b51565b3480156104ba57600080fd5b506102127fbf372ca3ebecfe59ac256f17697941bbe63302aced610e8b0e3646f743c7beb281565b3480156104ee57600080fd5b506101c06104fd3660046116cc565b610b76565b600061050d82610c1e565b8061052857506001600160e01b0319821663272b8c4760e01b145b92915050565b6105388282610c53565b5050565b60008281526065602052604090206001015461055781610cb7565b6105618383610cc1565b505050565b80801561057857506105788483610a2a565b6105bc5761058f6105898686610746565b83610a2a565b6105bc578080156105a557506105a58383610a2a565b6105bc576105bc6105b68685610746565b83610c53565b5050505050565b6000828152606560205260409020600101546105de81610cb7565b6105618383610d0c565b6001600160a01b038116331461065d5760405162461bcd60e51b815260206004820152602f60248201527f416363657373436f6e74726f6c3a2063616e206f6e6c792072656e6f756e636560448201526e103937b632b9903337b91039b2b63360891b60648201526084015b60405180910390fd5b6105388282610d92565b6001600160a01b037f00000000000000000000000000000000000000000000000000000000000000001630036106af5760405162461bcd60e51b8152600401610654906116ff565b7f00000000000000000000000000000000000000000000000000000000000000006001600160a01b03166106f86000805160206119f7833981519152546001600160a01b031690565b6001600160a01b03161461071e5760405162461bcd60e51b81526004016106549061174b565b61072781610df9565b6040805160008082526020820190925261074391839190610e53565b50565b60609190911b6bffffffffffffffffffffffff19161890565b6001600160a01b037f00000000000000000000000000000000000000000000000000000000000000001630036107a75760405162461bcd60e51b8152600401610654906116ff565b7f00000000000000000000000000000000000000000000000000000000000000006001600160a01b03166107f06000805160206119f7833981519152546001600160a01b031690565b6001600160a01b0316146108165760405162461bcd60e51b81526004016106549061174b565b61081f82610df9565b61053882826001610e53565b6000306001600160a01b037f000000000000000000000000000000000000000000000000000000000000000016146108cb5760405162461bcd60e51b815260206004820152603860248201527f555550535570677261646561626c653a206d757374206e6f742062652063616c60448201527f6c6564207468726f7567682064656c656761746563616c6c00000000000000006064820152608401610654565b506000805160206119f783398151915290565b8015806108f257506108f08383610a2a565b155b15610904576109046105b68585610746565b50505050565b600054610100900460ff161580801561092a5750600054600160ff909116105b806109445750303b158015610944575060005460ff166001145b6109a75760405162461bcd60e51b815260206004820152602e60248201527f496e697469616c697a61626c653a20636f6e747261637420697320616c72656160448201526d191e481a5b9a5d1a585b1a5e995960921b6064820152608401610654565b6000805460ff1916600117905580156109ca576000805461ff0019166101001790555b6109d2610fbe565b6109da610fbe565b6109e2610fe7565b8015610743576000805461ff0019169055604051600181527f7f26b83ff96e1f2b6a682f133852f6798a09c465da95921460cefb38474024989060200160405180910390a150565b60009182526065602090815260408084206001600160a01b0393909316845291905290205460ff1690565b6000818015610a695750610a698484610a2a565b80610a825750610a82610a7c8686610746565b84610a2a565b95945050505050565b610a958382610a2a565b610561576105618282610c53565b82826001600160a01b038216610acb5760405162461bcd60e51b815260040161065490611797565b610ae1610adb6101fd8484610746565b33610a2a565b80610b2257506000610af66101fd8484610746565b148015610b225750610b22610adb6101fd73eeeeeeeeeeeeeeeeeeeeeeeeeeeeeeeeeeeeeeee84610746565b610b3e5760405162461bcd60e51b8152600401610654906117e3565b6105bc610b4b8686610746565b84610cc1565b600082815260656020526040902060010154610b6c81610cb7565b6105618383610d92565b82826001600160a01b038216610b9e5760405162461bcd60e51b815260040161065490611797565b610bae610adb6101fd8484610746565b80610bef57506000610bc36101fd8484610746565b148015610bef5750610bef610adb6101fd73eeeeeeeeeeeeeeeeeeeeeeeeeeeeeeeeeeeeeeee84610746565b610c0b5760405162461bcd60e51b8152600401610654906117e3565b6105bc610c188686610746565b84610d0c565b60006001600160e01b03198216637965db0b60e01b148061052857506301ffc9a760e01b6001600160e01b0319831614610528565b610c5d8282610a2a565b61053857610c75816001600160a01b03166014611019565b610c80836020611019565b604051602001610c91929190611859565b60408051601f198184030181529082905262461bcd60e51b8252610654916004016118ce565b6107438133610c53565b600082815260656020526040808220600101805490849055905190918391839186917fbd79b86ffe0ab8e8776151514217cd7cacd52c909f66475c3af44e129f0b00ff9190a4505050565b610d168282610a2a565b6105385760008281526065602090815260408083206001600160a01b03851684529091529020805460ff19166001179055610d4e3390565b6001600160a01b0316816001600160a01b0316837f2f8788117e7eff1d82e926ec794901d17c78024a50270940304540a733656f0d60405160405180910390a45050565b610d9c8282610a2a565b156105385760008281526065602090815260408083206001600160a01b0385168085529252808320805460ff1916905551339285917ff6391f5c32d9c69d2a47ea670b442974b53935d1edc7fd64eb21e047a839171b9190a45050565b7f55435dd261a4b9b3364963f7738a7a662ad9c84396d64be3365284bb7f0a50417fbf372ca3ebecfe59ac256f17697941bbe63302aced610e8b0e3646f743c7beb2610e458233610a2a565b610561576105618133610c53565b7f4910fdfa16fed3260ed0e7147f7cc6da11a60208b5b9406d12a635614ffd91435460ff1615610e8657610561836111bc565b826001600160a01b03166352d1902d6040518163ffffffff1660e01b8152600401602060405180830381865afa925050508015610ee0575060408051601f3d908101601f19168201909252610edd91810190611901565b60015b610f435760405162461bcd60e51b815260206004820152602e60248201527f45524331393637557067726164653a206e657720696d706c656d656e7461746960448201526d6f6e206973206e6f74205555505360901b6064820152608401610654565b6000805160206119f78339815191528114610fb25760405162461bcd60e51b815260206004820152602960248201527f45524331393637557067726164653a20756e737570706f727465642070726f786044820152681a58589b195555525160ba1b6064820152608401610654565b50610561838383611258565b600054610100900460ff16610fe55760405162461bcd60e51b81526004016106549061191a565b565b600054610100900460ff1661100e5760405162461bcd60e51b81526004016106549061191a565b610fe560003361127d565b6060600061102883600261197b565b61103390600261199a565b67ffffffffffffffff81111561104b5761104b61153f565b6040519080825280601f01601f191660200182016040528015611075576020820181803683370190505b509050600360fc1b81600081518110611090576110906119ad565b60200101906001600160f81b031916908160001a905350600f60fb1b816001815181106110bf576110bf6119ad565b60200101906001600160f81b031916908160001a90535060006110e384600261197b565b6110ee90600161199a565b90505b6001811115611166576f181899199a1a9b1b9c1cb0b131b232b360811b85600f1660108110611122576111226119ad565b1a60f81b828281518110611138576111386119ad565b60200101906001600160f81b031916908160001a90535060049490941c9361115f816119c3565b90506110f1565b5083156111b55760405162461bcd60e51b815260206004820181905260248201527f537472696e67733a20686578206c656e67746820696e73756666696369656e746044820152606401610654565b9392505050565b6001600160a01b0381163b6112295760405162461bcd60e51b815260206004820152602d60248201527f455243313936373a206e657720696d706c656d656e746174696f6e206973206e60448201526c1bdd08184818dbdb9d1c9858dd609a1b6064820152608401610654565b6000805160206119f783398151915280546001600160a01b0319166001600160a01b0392909216919091179055565b61126183611287565b60008251118061126e5750805b156105615761090483836112c7565b6105388282610d0c565b611290816111bc565b6040516001600160a01b038216907fbc7cd75a20ee27fd9adebab32041f755214dbc6bffa90cc0225b39da2e5c2d3b90600090a250565b60606001600160a01b0383163b61132f5760405162461bcd60e51b815260206004820152602660248201527f416464726573733a2064656c65676174652063616c6c20746f206e6f6e2d636f6044820152651b9d1c9858dd60d21b6064820152608401610654565b600080846001600160a01b03168460405161134a91906119da565b600060405180830381855af49150503d8060008114611385576040519150601f19603f3d011682016040523d82523d6000602084013e61138a565b606091505b5091509150610a828282604051806060016040528060278152602001611a1760279139606083156113bc5750816111b5565b8251156113cc5782518084602001fd5b8160405162461bcd60e51b815260040161065491906118ce565b6000602082840312156113f857600080fd5b81356001600160e01b0319811681146111b557600080fd5b80356001600160a01b038116811461142757600080fd5b919050565b6000806040838503121561143f57600080fd5b8235915061144f60208401611410565b90509250929050565b6000806040838503121561146b57600080fd5b50508035926020909101359150565b60006020828403121561148c57600080fd5b5035919050565b8035801515811461142757600080fd5b600080600080600060a086880312156114bb57600080fd5b6114c486611410565b945060208601359350604086013592506114e060608701611410565b91506114ee60808701611493565b90509295509295909350565b60006020828403121561150c57600080fd5b6111b582611410565b6000806040838503121561152857600080fd5b61153183611410565b946020939093013593505050565b634e487b7160e01b600052604160045260246000fd5b6000806040838503121561156857600080fd5b61157183611410565b9150602083013567ffffffffffffffff8082111561158e57600080fd5b818501915085601f8301126115a257600080fd5b8135818111156115b4576115b461153f565b604051601f8201601f19908116603f011681019083821181831017156115dc576115dc61153f565b816040528281528860208487010111156115f557600080fd5b8260208601602083013760006020848301015280955050505050509250929050565b6000806000806080858703121561162d57600080fd5b61163685611410565b93506020850135925061164b60408601611410565b915061165960608601611493565b905092959194509250565b60008060006060848603121561167957600080fd5b833592506020840135915061169060408501611410565b90509250925092565b6000806000606084860312156116ae57600080fd5b6116b784611410565b95602085013595506040909401359392505050565b6000806000606084860312156116e157600080fd5b6116ea84611410565b92506020840135915061169060408501611410565b6020808252602c908201527f46756e6374696f6e206d7573742062652063616c6c6564207468726f7567682060408201526b19195b1959d85d1958d85b1b60a21b606082015260800190565b6020808252602c908201527f46756e6374696f6e206d7573742062652063616c6c6564207468726f7567682060408201526b6163746976652070726f787960a01b606082015260800190565b6020808252602c908201527f4163636573734d616e616765723a20696e76616c69642061646472657373206660408201526b1bdc8818dbdb5c1bdb995b9d60a21b606082015260800190565b60208082526032908201527f4163636573734d616e616765723a206d73672e73656e646572206e656564732060408201527131b7b6b837b732b73a2937b632a0b236b4b760711b606082015260800190565b60005b83811015611850578181015183820152602001611838565b50506000910152565b7f416363657373436f6e74726f6c3a206163636f756e7420000000000000000000815260008351611891816017850160208801611835565b7001034b99036b4b9b9b4b733903937b6329607d1b60179184019182015283516118c2816028840160208801611835565b01602801949350505050565b60208152600082518060208401526118ed816040850160208701611835565b601f01601f19169190910160400192915050565b60006020828403121561191357600080fd5b5051919050565b6020808252602b908201527f496e697469616c697a61626c653a20636f6e7472616374206973206e6f74206960408201526a6e697469616c697a696e6760a81b606082015260800190565b634e487b7160e01b600052601160045260246000fd5b600081600019048311821515161561199557611995611965565b500290565b8082018082111561052857610528611965565b634e487b7160e01b600052603260045260246000fd5b6000816119d2576119d2611965565b506000190190565b600082516119ec818460208701611835565b919091019291505056fe360894a13ba1a3210667c828492db98dca3e2076cc3735a920a3ca505d382bbc416464726573733a206c6f772d6c6576656c2064656c65676174652063616c6c206661696c6564a2646970667358221220e64903ff4dd2a88680c996ffc201e7c69c08a602b59c6450dfab54b0f102296b64736f6c63430008100033",
  "linkReferences": {},
  "deployedLinkReferences": {}
}