{
  "_format": "hh-sol-artifact-1",
  "contractName": "PolicyPool",
  "sourceName": "contracts/PolicyPool.sol",
  "abi": [
    {
      "inputs": [
        {
          "internalType": "contract IAccessManager",
          "name": "access_",
          "type": "address"
        },
        {
          "internalType": "contract IERC20Metadata",
          "name": "currency_",
          "type": "address"
        }
      ],
      "stateMutability": "nonpayable",
      "type": "constructor"
    },
    {
      "anonymous": false,
      "inputs": [
        {
          "indexed": false,
          "internalType": "address",
          "name": "previousAdmin",
          "type": "address"
        },
        {
          "indexed": false,
          "internalType": "address",
          "name": "newAdmin",
          "type": "address"
        }
      ],
      "name": "AdminChanged",
      "type": "event"
    },
    {
      "anonymous": false,
      "inputs": [
        {
          "indexed": true,
          "internalType": "address",
          "name": "owner",
          "type": "address"
        },
        {
          "indexed": true,
          "internalType": "address",
          "name": "approved",
          "type": "address"
        },
        {
          "indexed": true,
          "internalType": "uint256",
          "name": "tokenId",
          "type": "uint256"
        }
      ],
      "name": "Approval",
      "type": "event"
    },
    {
      "anonymous": false,
      "inputs": [
        {
          "indexed": true,
          "internalType": "address",
          "name": "owner",
          "type": "address"
        },
        {
          "indexed": true,
          "internalType": "address",
          "name": "operator",
          "type": "address"
        },
        {
          "indexed": false,
          "internalType": "bool",
          "name": "approved",
          "type": "bool"
        }
      ],
      "name": "ApprovalForAll",
      "type": "event"
    },
    {
      "anonymous": false,
      "inputs": [
        {
          "indexed": true,
          "internalType": "address",
          "name": "beacon",
          "type": "address"
        }
      ],
      "name": "BeaconUpgraded",
      "type": "event"
    },
    {
      "anonymous": false,
      "inputs": [
        {
          "indexed": true,
          "internalType": "enum IAccessManager.GovernanceActions",
          "name": "action",
          "type": "uint8"
        },
        {
          "indexed": false,
          "internalType": "address",
          "name": "value",
          "type": "address"
        }
      ],
      "name": "ComponentChanged",
      "type": "event"
    },
    {
      "anonymous": false,
      "inputs": [
        {
          "indexed": true,
          "internalType": "contract IPolicyPoolComponent",
          "name": "component",
          "type": "address"
        },
        {
          "indexed": false,
          "internalType": "enum PolicyPool.ComponentKind",
          "name": "kind",
          "type": "uint8"
        },
        {
          "indexed": false,
          "internalType": "enum PolicyPool.ComponentStatus",
          "name": "newStatus",
          "type": "uint8"
        }
      ],
      "name": "ComponentStatusChanged",
      "type": "event"
    },
    {
      "anonymous": false,
      "inputs": [
        {
          "indexed": false,
          "internalType": "uint8",
          "name": "version",
          "type": "uint8"
        }
      ],
      "name": "Initialized",
      "type": "event"
    },
    {
      "anonymous": false,
      "inputs": [
        {
          "indexed": true,
          "internalType": "contract IRiskModule",
          "name": "riskModule",
          "type": "address"
        },
        {
          "components": [
            {
              "internalType": "uint256",
              "name": "id",
              "type": "uint256"
            },
            {
              "internalType": "uint256",
              "name": "payout",
              "type": "uint256"
            },
            {
              "internalType": "uint256",
              "name": "premium",
              "type": "uint256"
            },
            {
              "internalType": "uint256",
              "name": "jrScr",
              "type": "uint256"
            },
            {
              "internalType": "uint256",
              "name": "srScr",
              "type": "uint256"
            },
            {
              "internalType": "uint256",
              "name": "lossProb",
              "type": "uint256"
            },
            {
              "internalType": "uint256",
              "name": "purePremium",
              "type": "uint256"
            },
            {
              "internalType": "uint256",
              "name": "ensuroCommission",
              "type": "uint256"
            },
            {
              "internalType": "uint256",
              "name": "partnerCommission",
              "type": "uint256"
            },
            {
              "internalType": "uint256",
              "name": "jrCoc",
              "type": "uint256"
            },
            {
              "internalType": "uint256",
              "name": "srCoc",
              "type": "uint256"
            },
            {
              "internalType": "contract IRiskModule",
              "name": "riskModule",
              "type": "address"
            },
            {
              "internalType": "uint40",
              "name": "start",
              "type": "uint40"
            },
            {
              "internalType": "uint40",
              "name": "expiration",
              "type": "uint40"
            }
          ],
          "indexed": false,
          "internalType": "struct Policy.PolicyData",
          "name": "policy",
          "type": "tuple"
        }
      ],
      "name": "NewPolicy",
      "type": "event"
    },
    {
      "anonymous": false,
      "inputs": [
        {
          "indexed": false,
          "internalType": "address",
          "name": "account",
          "type": "address"
        }
      ],
      "name": "Paused",
      "type": "event"
    },
    {
      "anonymous": false,
      "inputs": [
        {
          "indexed": true,
          "internalType": "contract IRiskModule",
          "name": "riskModule",
          "type": "address"
        },
        {
          "indexed": true,
          "internalType": "uint256",
          "name": "policyId",
          "type": "uint256"
        },
        {
          "indexed": false,
          "internalType": "uint256",
          "name": "payout",
          "type": "uint256"
        }
      ],
      "name": "PolicyResolved",
      "type": "event"
    },
    {
      "anonymous": false,
      "inputs": [
        {
          "indexed": true,
          "internalType": "address",
          "name": "from",
          "type": "address"
        },
        {
          "indexed": true,
          "internalType": "address",
          "name": "to",
          "type": "address"
        },
        {
          "indexed": true,
          "internalType": "uint256",
          "name": "tokenId",
          "type": "uint256"
        }
      ],
      "name": "Transfer",
      "type": "event"
    },
    {
      "anonymous": false,
      "inputs": [
        {
          "indexed": false,
          "internalType": "address",
          "name": "account",
          "type": "address"
        }
      ],
      "name": "Unpaused",
      "type": "event"
    },
    {
      "anonymous": false,
      "inputs": [
        {
          "indexed": true,
          "internalType": "address",
          "name": "implementation",
          "type": "address"
        }
      ],
      "name": "Upgraded",
      "type": "event"
    },
    {
      "inputs": [],
      "name": "GUARDIAN_ROLE",
      "outputs": [
        {
          "internalType": "bytes32",
          "name": "",
          "type": "bytes32"
        }
      ],
      "stateMutability": "view",
      "type": "function"
    },
    {
      "inputs": [],
      "name": "LEVEL1_ROLE",
      "outputs": [
        {
          "internalType": "bytes32",
          "name": "",
          "type": "bytes32"
        }
      ],
      "stateMutability": "view",
      "type": "function"
    },
    {
      "inputs": [],
      "name": "LEVEL2_ROLE",
      "outputs": [
        {
          "internalType": "bytes32",
          "name": "",
          "type": "bytes32"
        }
      ],
      "stateMutability": "view",
      "type": "function"
    },
    {
      "inputs": [],
      "name": "LEVEL3_ROLE",
      "outputs": [
        {
          "internalType": "bytes32",
          "name": "",
          "type": "bytes32"
        }
      ],
      "stateMutability": "view",
      "type": "function"
    },
    {
      "inputs": [],
      "name": "access",
      "outputs": [
        {
          "internalType": "contract IAccessManager",
          "name": "",
          "type": "address"
        }
      ],
      "stateMutability": "view",
      "type": "function"
    },
    {
      "inputs": [
        {
          "internalType": "contract IPolicyPoolComponent",
          "name": "component",
          "type": "address"
        },
        {
          "internalType": "enum PolicyPool.ComponentKind",
          "name": "kind",
          "type": "uint8"
        }
      ],
      "name": "addComponent",
      "outputs": [],
      "stateMutability": "nonpayable",
      "type": "function"
    },
    {
      "inputs": [
        {
          "internalType": "address",
          "name": "to",
          "type": "address"
        },
        {
          "internalType": "uint256",
          "name": "tokenId",
          "type": "uint256"
        }
      ],
      "name": "approve",
      "outputs": [],
      "stateMutability": "nonpayable",
      "type": "function"
    },
    {
      "inputs": [
        {
          "internalType": "address",
          "name": "owner",
          "type": "address"
        }
      ],
      "name": "balanceOf",
      "outputs": [
        {
          "internalType": "uint256",
          "name": "",
          "type": "uint256"
        }
      ],
      "stateMutability": "view",
      "type": "function"
    },
    {
      "inputs": [
        {
          "internalType": "contract IPolicyPoolComponent",
          "name": "component",
          "type": "address"
        },
        {
          "internalType": "enum PolicyPool.ComponentStatus",
          "name": "newStatus",
          "type": "uint8"
        }
      ],
      "name": "changeComponentStatus",
      "outputs": [],
      "stateMutability": "nonpayable",
      "type": "function"
    },
    {
      "inputs": [],
      "name": "currency",
      "outputs": [
        {
          "internalType": "contract IERC20Metadata",
          "name": "",
          "type": "address"
        }
      ],
      "stateMutability": "view",
      "type": "function"
    },
    {
      "inputs": [
        {
          "internalType": "contract IEToken",
          "name": "eToken",
          "type": "address"
        },
        {
          "internalType": "uint256",
          "name": "amount",
          "type": "uint256"
        }
      ],
      "name": "deposit",
      "outputs": [],
      "stateMutability": "nonpayable",
      "type": "function"
    },
    {
      "inputs": [
        {
          "components": [
            {
              "internalType": "uint256",
              "name": "id",
              "type": "uint256"
            },
            {
              "internalType": "uint256",
              "name": "payout",
              "type": "uint256"
            },
            {
              "internalType": "uint256",
              "name": "premium",
              "type": "uint256"
            },
            {
              "internalType": "uint256",
              "name": "jrScr",
              "type": "uint256"
            },
            {
              "internalType": "uint256",
              "name": "srScr",
              "type": "uint256"
            },
            {
              "internalType": "uint256",
              "name": "lossProb",
              "type": "uint256"
            },
            {
              "internalType": "uint256",
              "name": "purePremium",
              "type": "uint256"
            },
            {
              "internalType": "uint256",
              "name": "ensuroCommission",
              "type": "uint256"
            },
            {
              "internalType": "uint256",
              "name": "partnerCommission",
              "type": "uint256"
            },
            {
              "internalType": "uint256",
              "name": "jrCoc",
              "type": "uint256"
            },
            {
              "internalType": "uint256",
              "name": "srCoc",
              "type": "uint256"
            },
            {
              "internalType": "contract IRiskModule",
              "name": "riskModule",
              "type": "address"
            },
            {
              "internalType": "uint40",
              "name": "start",
              "type": "uint40"
            },
            {
              "internalType": "uint40",
              "name": "expiration",
              "type": "uint40"
            }
          ],
          "internalType": "struct Policy.PolicyData[]",
          "name": "policies",
          "type": "tuple[]"
        }
      ],
      "name": "expirePolicies",
      "outputs": [],
      "stateMutability": "nonpayable",
      "type": "function"
    },
    {
      "inputs": [
        {
          "components": [
            {
              "internalType": "uint256",
              "name": "id",
              "type": "uint256"
            },
            {
              "internalType": "uint256",
              "name": "payout",
              "type": "uint256"
            },
            {
              "internalType": "uint256",
              "name": "premium",
              "type": "uint256"
            },
            {
              "internalType": "uint256",
              "name": "jrScr",
              "type": "uint256"
            },
            {
              "internalType": "uint256",
              "name": "srScr",
              "type": "uint256"
            },
            {
              "internalType": "uint256",
              "name": "lossProb",
              "type": "uint256"
            },
            {
              "internalType": "uint256",
              "name": "purePremium",
              "type": "uint256"
            },
            {
              "internalType": "uint256",
              "name": "ensuroCommission",
              "type": "uint256"
            },
            {
              "internalType": "uint256",
              "name": "partnerCommission",
              "type": "uint256"
            },
            {
              "internalType": "uint256",
              "name": "jrCoc",
              "type": "uint256"
            },
            {
              "internalType": "uint256",
              "name": "srCoc",
              "type": "uint256"
            },
            {
              "internalType": "contract IRiskModule",
              "name": "riskModule",
              "type": "address"
            },
            {
              "internalType": "uint40",
              "name": "start",
              "type": "uint40"
            },
            {
              "internalType": "uint40",
              "name": "expiration",
              "type": "uint40"
            }
          ],
          "internalType": "struct Policy.PolicyData",
          "name": "policy",
          "type": "tuple"
        }
      ],
      "name": "expirePolicy",
      "outputs": [],
      "stateMutability": "nonpayable",
      "type": "function"
    },
    {
      "inputs": [
        {
          "internalType": "uint256",
          "name": "tokenId",
          "type": "uint256"
        }
      ],
      "name": "getApproved",
      "outputs": [
        {
          "internalType": "address",
          "name": "",
          "type": "address"
        }
      ],
      "stateMutability": "view",
      "type": "function"
    },
    {
      "inputs": [
        {
          "internalType": "contract IPolicyPoolComponent",
          "name": "component",
          "type": "address"
        }
      ],
      "name": "getComponentStatus",
      "outputs": [
        {
          "internalType": "enum PolicyPool.ComponentStatus",
          "name": "",
          "type": "uint8"
        }
      ],
      "stateMutability": "view",
      "type": "function"
    },
    {
      "inputs": [
        {
          "internalType": "uint256",
          "name": "policyId",
          "type": "uint256"
        }
      ],
      "name": "getPolicyHash",
      "outputs": [
        {
          "internalType": "bytes32",
          "name": "",
          "type": "bytes32"
        }
      ],
      "stateMutability": "view",
      "type": "function"
    },
    {
      "inputs": [
        {
          "internalType": "string",
          "name": "name_",
          "type": "string"
        },
        {
          "internalType": "string",
          "name": "symbol_",
          "type": "string"
        },
        {
          "internalType": "address",
          "name": "treasury_",
          "type": "address"
        }
      ],
      "name": "initialize",
      "outputs": [],
      "stateMutability": "nonpayable",
      "type": "function"
    },
    {
      "inputs": [
        {
          "internalType": "uint256",
          "name": "policyId",
          "type": "uint256"
        }
      ],
      "name": "isActive",
      "outputs": [
        {
          "internalType": "bool",
          "name": "",
          "type": "bool"
        }
      ],
      "stateMutability": "view",
      "type": "function"
    },
    {
      "inputs": [
        {
          "internalType": "address",
          "name": "owner",
          "type": "address"
        },
        {
          "internalType": "address",
          "name": "operator",
          "type": "address"
        }
      ],
      "name": "isApprovedForAll",
      "outputs": [
        {
          "internalType": "bool",
          "name": "",
          "type": "bool"
        }
      ],
      "stateMutability": "view",
      "type": "function"
    },
    {
      "inputs": [],
      "name": "name",
      "outputs": [
        {
          "internalType": "string",
          "name": "",
          "type": "string"
        }
      ],
      "stateMutability": "view",
      "type": "function"
    },
    {
      "inputs": [
        {
          "components": [
            {
              "internalType": "uint256",
              "name": "id",
              "type": "uint256"
            },
            {
              "internalType": "uint256",
              "name": "payout",
              "type": "uint256"
            },
            {
              "internalType": "uint256",
              "name": "premium",
              "type": "uint256"
            },
            {
              "internalType": "uint256",
              "name": "jrScr",
              "type": "uint256"
            },
            {
              "internalType": "uint256",
              "name": "srScr",
              "type": "uint256"
            },
            {
              "internalType": "uint256",
              "name": "lossProb",
              "type": "uint256"
            },
            {
              "internalType": "uint256",
              "name": "purePremium",
              "type": "uint256"
            },
            {
              "internalType": "uint256",
              "name": "ensuroCommission",
              "type": "uint256"
            },
            {
              "internalType": "uint256",
              "name": "partnerCommission",
              "type": "uint256"
            },
            {
              "internalType": "uint256",
              "name": "jrCoc",
              "type": "uint256"
            },
            {
              "internalType": "uint256",
              "name": "srCoc",
              "type": "uint256"
            },
            {
              "internalType": "contract IRiskModule",
              "name": "riskModule",
              "type": "address"
            },
            {
              "internalType": "uint40",
              "name": "start",
              "type": "uint40"
            },
            {
              "internalType": "uint40",
              "name": "expiration",
              "type": "uint40"
            }
          ],
          "internalType": "struct Policy.PolicyData",
          "name": "policy",
          "type": "tuple"
        },
        {
          "internalType": "address",
          "name": "payer",
          "type": "address"
        },
        {
          "internalType": "address",
          "name": "policyHolder",
          "type": "address"
        },
        {
          "internalType": "uint96",
          "name": "internalId",
          "type": "uint96"
        }
      ],
      "name": "newPolicy",
      "outputs": [
        {
          "internalType": "uint256",
          "name": "",
          "type": "uint256"
        }
      ],
      "stateMutability": "nonpayable",
      "type": "function"
    },
    {
      "inputs": [
        {
          "internalType": "uint256",
          "name": "tokenId",
          "type": "uint256"
        }
      ],
      "name": "ownerOf",
      "outputs": [
        {
          "internalType": "address",
          "name": "",
          "type": "address"
        }
      ],
      "stateMutability": "view",
      "type": "function"
    },
    {
      "inputs": [],
      "name": "pause",
      "outputs": [],
      "stateMutability": "nonpayable",
      "type": "function"
    },
    {
      "inputs": [],
      "name": "paused",
      "outputs": [
        {
          "internalType": "bool",
          "name": "",
          "type": "bool"
        }
      ],
      "stateMutability": "view",
      "type": "function"
    },
    {
      "inputs": [],
      "name": "proxiableUUID",
      "outputs": [
        {
          "internalType": "bytes32",
          "name": "",
          "type": "bytes32"
        }
      ],
      "stateMutability": "view",
      "type": "function"
    },
    {
      "inputs": [
        {
          "internalType": "contract IPolicyPoolComponent",
          "name": "component",
          "type": "address"
        }
      ],
      "name": "removeComponent",
      "outputs": [],
      "stateMutability": "nonpayable",
      "type": "function"
    },
    {
      "inputs": [
        {
          "components": [
            {
              "internalType": "uint256",
              "name": "id",
              "type": "uint256"
            },
            {
              "internalType": "uint256",
              "name": "payout",
              "type": "uint256"
            },
            {
              "internalType": "uint256",
              "name": "premium",
              "type": "uint256"
            },
            {
              "internalType": "uint256",
              "name": "jrScr",
              "type": "uint256"
            },
            {
              "internalType": "uint256",
              "name": "srScr",
              "type": "uint256"
            },
            {
              "internalType": "uint256",
              "name": "lossProb",
              "type": "uint256"
            },
            {
              "internalType": "uint256",
              "name": "purePremium",
              "type": "uint256"
            },
            {
              "internalType": "uint256",
              "name": "ensuroCommission",
              "type": "uint256"
            },
            {
              "internalType": "uint256",
              "name": "partnerCommission",
              "type": "uint256"
            },
            {
              "internalType": "uint256",
              "name": "jrCoc",
              "type": "uint256"
            },
            {
              "internalType": "uint256",
              "name": "srCoc",
              "type": "uint256"
            },
            {
              "internalType": "contract IRiskModule",
              "name": "riskModule",
              "type": "address"
            },
            {
              "internalType": "uint40",
              "name": "start",
              "type": "uint40"
            },
            {
              "internalType": "uint40",
              "name": "expiration",
              "type": "uint40"
            }
          ],
          "internalType": "struct Policy.PolicyData",
          "name": "policy",
          "type": "tuple"
        },
        {
          "internalType": "uint256",
          "name": "payout",
          "type": "uint256"
        }
      ],
      "name": "resolvePolicy",
      "outputs": [],
      "stateMutability": "nonpayable",
      "type": "function"
    },
    {
      "inputs": [
        {
          "components": [
            {
              "internalType": "uint256",
              "name": "id",
              "type": "uint256"
            },
            {
              "internalType": "uint256",
              "name": "payout",
              "type": "uint256"
            },
            {
              "internalType": "uint256",
              "name": "premium",
              "type": "uint256"
            },
            {
              "internalType": "uint256",
              "name": "jrScr",
              "type": "uint256"
            },
            {
              "internalType": "uint256",
              "name": "srScr",
              "type": "uint256"
            },
            {
              "internalType": "uint256",
              "name": "lossProb",
              "type": "uint256"
            },
            {
              "internalType": "uint256",
              "name": "purePremium",
              "type": "uint256"
            },
            {
              "internalType": "uint256",
              "name": "ensuroCommission",
              "type": "uint256"
            },
            {
              "internalType": "uint256",
              "name": "partnerCommission",
              "type": "uint256"
            },
            {
              "internalType": "uint256",
              "name": "jrCoc",
              "type": "uint256"
            },
            {
              "internalType": "uint256",
              "name": "srCoc",
              "type": "uint256"
            },
            {
              "internalType": "contract IRiskModule",
              "name": "riskModule",
              "type": "address"
            },
            {
              "internalType": "uint40",
              "name": "start",
              "type": "uint40"
            },
            {
              "internalType": "uint40",
              "name": "expiration",
              "type": "uint40"
            }
          ],
          "internalType": "struct Policy.PolicyData",
          "name": "policy",
          "type": "tuple"
        },
        {
          "internalType": "bool",
          "name": "customerWon",
          "type": "bool"
        }
      ],
      "name": "resolvePolicyFullPayout",
      "outputs": [],
      "stateMutability": "nonpayable",
      "type": "function"
    },
    {
      "inputs": [
        {
          "internalType": "address",
          "name": "from",
          "type": "address"
        },
        {
          "internalType": "address",
          "name": "to",
          "type": "address"
        },
        {
          "internalType": "uint256",
          "name": "tokenId",
          "type": "uint256"
        }
      ],
      "name": "safeTransferFrom",
      "outputs": [],
      "stateMutability": "nonpayable",
      "type": "function"
    },
    {
      "inputs": [
        {
          "internalType": "address",
          "name": "from",
          "type": "address"
        },
        {
          "internalType": "address",
          "name": "to",
          "type": "address"
        },
        {
          "internalType": "uint256",
          "name": "tokenId",
          "type": "uint256"
        },
        {
          "internalType": "bytes",
          "name": "data",
          "type": "bytes"
        }
      ],
      "name": "safeTransferFrom",
      "outputs": [],
      "stateMutability": "nonpayable",
      "type": "function"
    },
    {
      "inputs": [
        {
          "internalType": "address",
          "name": "operator",
          "type": "address"
        },
        {
          "internalType": "bool",
          "name": "approved",
          "type": "bool"
        }
      ],
      "name": "setApprovalForAll",
      "outputs": [],
      "stateMutability": "nonpayable",
      "type": "function"
    },
    {
      "inputs": [
        {
          "internalType": "address",
          "name": "treasury_",
          "type": "address"
        }
      ],
      "name": "setTreasury",
      "outputs": [],
      "stateMutability": "nonpayable",
      "type": "function"
    },
    {
      "inputs": [
        {
          "internalType": "bytes4",
          "name": "interfaceId",
          "type": "bytes4"
        }
      ],
      "name": "supportsInterface",
      "outputs": [
        {
          "internalType": "bool",
          "name": "",
          "type": "bool"
        }
      ],
      "stateMutability": "view",
      "type": "function"
    },
    {
      "inputs": [],
      "name": "symbol",
      "outputs": [
        {
          "internalType": "string",
          "name": "",
          "type": "string"
        }
      ],
      "stateMutability": "view",
      "type": "function"
    },
    {
      "inputs": [
        {
          "internalType": "uint256",
          "name": "tokenId",
          "type": "uint256"
        }
      ],
      "name": "tokenURI",
      "outputs": [
        {
          "internalType": "string",
          "name": "",
          "type": "string"
        }
      ],
      "stateMutability": "view",
      "type": "function"
    },
    {
      "inputs": [
        {
          "internalType": "address",
          "name": "from",
          "type": "address"
        },
        {
          "internalType": "address",
          "name": "to",
          "type": "address"
        },
        {
          "internalType": "uint256",
          "name": "tokenId",
          "type": "uint256"
        }
      ],
      "name": "transferFrom",
      "outputs": [],
      "stateMutability": "nonpayable",
      "type": "function"
    },
    {
      "inputs": [],
      "name": "treasury",
      "outputs": [
        {
          "internalType": "address",
          "name": "",
          "type": "address"
        }
      ],
      "stateMutability": "view",
      "type": "function"
    },
    {
      "inputs": [],
      "name": "unpause",
      "outputs": [],
      "stateMutability": "nonpayable",
      "type": "function"
    },
    {
      "inputs": [
        {
          "internalType": "address",
          "name": "newImplementation",
          "type": "address"
        }
      ],
      "name": "upgradeTo",
      "outputs": [],
      "stateMutability": "nonpayable",
      "type": "function"
    },
    {
      "inputs": [
        {
          "internalType": "address",
          "name": "newImplementation",
          "type": "address"
        },
        {
          "internalType": "bytes",
          "name": "data",
          "type": "bytes"
        }
      ],
      "name": "upgradeToAndCall",
      "outputs": [],
      "stateMutability": "payable",
      "type": "function"
    },
    {
      "inputs": [
        {
          "internalType": "contract IEToken",
          "name": "eToken",
          "type": "address"
        },
        {
          "internalType": "uint256",
          "name": "amount",
          "type": "uint256"
        }
      ],
      "name": "withdraw",
      "outputs": [
        {
          "internalType": "uint256",
          "name": "",
          "type": "uint256"
        }
      ],
      "stateMutability": "nonpayable",
      "type": "function"
    }
  ],
  "bytecode": "0x60e0604052306080523480156200001557600080fd5b5060405162005b0638038062005b0683398101604081905262000038916200020c565b6001600160a01b038216620000a65760405162461bcd60e51b815260206004820152602960248201527f506f6c696379506f6f6c3a206163636573732063616e6e6f74206265207a65726044820152686f206164647265737360b81b60648201526084015b60405180910390fd5b6001600160a01b038116620001125760405162461bcd60e51b815260206004820152602b60248201527f506f6c696379506f6f6c3a2063757272656e63792063616e6e6f74206265207a60448201526a65726f206164647265737360a81b60648201526084016200009d565b6200011c62000134565b6001600160a01b0391821660a0521660c0526200024b565b600054610100900460ff16156200019e5760405162461bcd60e51b815260206004820152602760248201527f496e697469616c697a61626c653a20636f6e747261637420697320696e697469604482015266616c697a696e6760c81b60648201526084016200009d565b60005460ff9081161015620001f1576000805460ff191660ff9081179091556040519081527f7f26b83ff96e1f2b6a682f133852f6798a09c465da95921460cefb38474024989060200160405180910390a15b565b6001600160a01b03811681146200020957600080fd5b50565b600080604083850312156200022057600080fd5b82516200022d81620001f3565b60208401519092506200024081620001f3565b809150509250929050565b60805160a05160c0516157e3620003236000396000818161073901528181610e5001528181610ec401528181610f250152818161193b015281816119e601528181611a8f01528181611ace01528181611bff01526133b10152600081816105de01528181610d12015281816111b2015281816112d8015281816113a70152818161147601528181611d320152818161234f015281816129dd01528181612c3d0152818161322901526132bd015260008181610c1501528181610c55015281816110150152818161105501526110e401526157e36000f3fe6080604052600436106102465760003560e01c80636769a76f116101395780638c916d46116100b6578063e5a6b10f1161007a578063e5a6b10f1461072a578063e985e9c51461075d578063f0f442601461077d578063f3fef3a31461079d578063f67b2bad146107bd578063ffa600e3146107df57600080fd5b80638c916d461461069557806395d89b41146106b5578063a22cb465146106ca578063b88d4fde146106ea578063c87b56dd1461070a57600080fd5b806371907f17116100fd57806371907f17146105cf578063792da09e146106025780637a702b3c1461063057806382afd23b146106505780638456cb591461068057600080fd5b80636769a76f1461052f5780636af6f1ef1461054f5780636b8734e71461056f5780636f86c8971461058f57806370a08231146105af57600080fd5b806342842e0e116101c75780635b494dd51161018b5780635b494dd5146104845780635c975abb146104b85780635fcbf445146104d057806361d027b3146104f05780636352211e1461050f57600080fd5b806342842e0e146103e857806347e7ef24146104085780634a47a3e0146104285780634f1ef2861461045c57806352d1902d1461046f57600080fd5b806323b872dd1161020e57806323b872dd1461031c57806324ea54f41461033c57806333d6157a1461036c5780633659cfe6146103b35780633f4ba83a146103d357600080fd5b806301ffc9a71461024b57806306fdde0314610280578063077f224a146102a2578063081812fc146102c4578063095ea7b3146102fc575b600080fd5b34801561025757600080fd5b5061026b610266366004614adf565b6107ff565b60405190151581526020015b60405180910390f35b34801561028c57600080fd5b5061029561082b565b6040516102779190614b4c565b3480156102ae57600080fd5b506102c26102bd366004614c41565b6108bd565b005b3480156102d057600080fd5b506102e46102df366004614cb9565b610a9e565b6040516001600160a01b039091168152602001610277565b34801561030857600080fd5b506102c2610317366004614cd2565b610ac5565b34801561032857600080fd5b506102c2610337366004614cfe565b610bda565b34801561034857600080fd5b5061035e60008051602061578e83398151915281565b604051908152602001610277565b34801561037857600080fd5b506103a6610387366004614d3f565b6001600160a01b0316600090815261012e602052604090205460ff1690565b6040516102779190614d90565b3480156103bf57600080fd5b506102c26103ce366004614d3f565b610c0b565b3480156103df57600080fd5b506102c2610cea565b3480156103f457600080fd5b506102c2610403366004614cfe565b610dab565b34801561041457600080fd5b506102c2610423366004614cd2565b610dc6565b34801561043457600080fd5b5061035e7fa82e22387fca439f316d78ca566f383218ab8ae1b3e830178c9c82cbd16749c081565b6102c261046a366004614da3565b61100b565b34801561047b57600080fd5b5061035e6110d7565b34801561049057600080fd5b5061035e7f5ec196419322369c6bac572d883f4d990ae5ec82f7d93cdf89b85dbb05b63c2781565b3480156104c457600080fd5b5060335460ff1661026b565b3480156104dc57600080fd5b506102c26104eb366004614e00565b61118a565b3480156104fc57600080fd5b5061012d546001600160a01b03166102e4565b34801561051b57600080fd5b506102e461052a366004614cb9565b611603565b34801561053b57600080fd5b5061035e61054a366004614f20565b611663565b34801561055b57600080fd5b506102c261056a366004614fa9565b611c95565b34801561057b57600080fd5b506102c261058a366004614e00565b611d19565b34801561059b57600080fd5b506102c26105aa366004614d3f565b612336565b3480156105bb57600080fd5b5061035e6105ca366004614d3f565b61291c565b3480156105db57600080fd5b507f00000000000000000000000000000000000000000000000000000000000000006102e4565b34801561060e57600080fd5b5061035e61061d366004614cb9565b600090815261012f602052604090205490565b34801561063c57600080fd5b506102c261064b366004614fc6565b6129a2565b34801561065c57600080fd5b5061026b61066b366004614cb9565b600090815261012f6020526040902054151590565b34801561068c57600080fd5b506102c26129c4565b3480156106a157600080fd5b506102c26106b0366004614ff3565b612a69565b3480156106c157600080fd5b50610295612b35565b3480156106d657600080fd5b506102c26106e5366004615077565b612b44565b3480156106f657600080fd5b506102c26107053660046150a5565b612b4f565b34801561071657600080fd5b50610295610725366004614cb9565b612b81565b34801561073657600080fd5b507f00000000000000000000000000000000000000000000000000000000000000006102e4565b34801561076957600080fd5b5061026b610778366004615111565b612bf5565b34801561078957600080fd5b506102c2610798366004614d3f565b612c24565b3480156107a957600080fd5b5061035e6107b8366004614cd2565b612cca565b3480156107c957600080fd5b5061035e60008051602061574783398151915281565b3480156107eb57600080fd5b506102c26107fa36600461513f565b612df3565b600061080a82612e26565b8061082557506001600160e01b0319821663191a7d6b60e11b145b92915050565b606060fb805461083a9061516e565b80601f01602080910402602001604051908101604052809291908181526020018280546108669061516e565b80156108b35780601f10610888576101008083540402835291602001916108b3565b820191906000526020600020905b81548152906001019060200180831161089657829003601f168201915b5050505050905090565b600054610100900460ff16158080156108dd5750600054600160ff909116105b806108f75750303b1580156108f7575060005460ff166001145b61095f5760405162461bcd60e51b815260206004820152602e60248201527f496e697469616c697a61626c653a20636f6e747261637420697320616c72656160448201526d191e481a5b9a5d1a585b1a5e995960921b60648201526084015b60405180910390fd5b6000805460ff191660011790558015610982576000805461ff0019166101001790555b60008451116109d35760405162461bcd60e51b815260206004820181905260248201527f506f6c696379506f6f6c3a206e616d652063616e6e6f7420626520656d7074796044820152606401610956565b6000835111610a2f5760405162461bcd60e51b815260206004820152602260248201527f506f6c696379506f6f6c3a2073796d626f6c2063616e6e6f7420626520656d70604482015261747960f01b6064820152608401610956565b610a37612e76565b610a418484612e9f565b610a49612ed0565b610a5282612eff565b8015610a98576000805461ff0019169055604051600181527f7f26b83ff96e1f2b6a682f133852f6798a09c465da95921460cefb38474024989060200160405180910390a15b50505050565b6000610aa982612f2f565b50600090815260ff60205260409020546001600160a01b031690565b6000610ad082611603565b9050806001600160a01b0316836001600160a01b031603610b3d5760405162461bcd60e51b815260206004820152602160248201527f4552433732313a20617070726f76616c20746f2063757272656e74206f776e656044820152603960f91b6064820152608401610956565b336001600160a01b0382161480610b595750610b598133612bf5565b610bcb5760405162461bcd60e51b815260206004820152603e60248201527f4552433732313a20617070726f76652063616c6c6572206973206e6f7420746f60448201527f6b656e206f776e6572206e6f7220617070726f76656420666f7220616c6c00006064820152608401610956565b610bd58383612f8e565b505050565b610be43382612ffc565b610c005760405162461bcd60e51b8152600401610956906151a2565b610bd583838361305a565b6001600160a01b037f0000000000000000000000000000000000000000000000000000000000000000163003610c535760405162461bcd60e51b8152600401610956906151f0565b7f00000000000000000000000000000000000000000000000000000000000000006001600160a01b0316610c9c600080516020615727833981519152546001600160a01b031690565b6001600160a01b031614610cc25760405162461bcd60e51b81526004016109569061523c565b610ccb81613201565b60408051600080825260208201909252610ce79183919061349d565b50565b60008051602061578e8339815191526000805160206157478339815191526001600160a01b037f00000000000000000000000000000000000000000000000000000000000000001663c5b8f5cf8383336040516001600160e01b031960e086901b168152600481019390935260248301919091526001600160a01b0316604482015260640160006040518083038186803b158015610d8757600080fd5b505afa158015610d9b573d6000803e3d6000fd5b50505050610da7613608565b5050565b610bd583838360405180602001604052806000815250612b4f565b610dce61365a565b6001610dd9836136a0565b6003811115610dea57610dea614d5c565b14610e2e5760405162461bcd60e51b815260206004820152601460248201527365546f6b656e206973206e6f742061637469766560601b6044820152606401610956565b6040516370a0823160e01b81526001600160a01b0383811660048301526000917f0000000000000000000000000000000000000000000000000000000000000000909116906370a0823190602401602060405180830381865afa158015610e99573d6000803e3d6000fd5b505050506040513d601f19601f82011682018060405250810190610ebd9190615288565b9050610ef47f00000000000000000000000000000000000000000000000000000000000000006001600160a01b031633858561372d565b6001600160a01b0383166347e7ef24336040516370a0823160e01b81526001600160a01b03878116600483015285917f0000000000000000000000000000000000000000000000000000000000000000909116906370a0823190602401602060405180830381865afa158015610f6e573d6000803e3d6000fd5b505050506040513d601f19601f82011682018060405250810190610f929190615288565b610f9c91906152b7565b6040516001600160e01b031960e085901b1681526001600160a01b03909216600483015260248201526044016020604051808303816000875af1158015610fe7573d6000803e3d6000fd5b505050506040513d601f19601f82011682018060405250810190610a989190615288565b6001600160a01b037f00000000000000000000000000000000000000000000000000000000000000001630036110535760405162461bcd60e51b8152600401610956906151f0565b7f00000000000000000000000000000000000000000000000000000000000000006001600160a01b031661109c600080516020615727833981519152546001600160a01b031690565b6001600160a01b0316146110c25760405162461bcd60e51b81526004016109569061523c565b6110cb82613201565b610da78282600161349d565b6000306001600160a01b037f000000000000000000000000000000000000000000000000000000000000000016146111775760405162461bcd60e51b815260206004820152603860248201527f555550535570677261646561626c653a206d757374206e6f742062652063616c60448201527f6c6564207468726f7567682064656c656761746563616c6c00000000000000006064820152608401610956565b5060008051602061572783398151915290565b60008051602061578e8339815191526000805160206157478339815191526001600160a01b037f00000000000000000000000000000000000000000000000000000000000000001663c5b8f5cf8383336040516001600160e01b031960e086901b168152600481019390935260248301919091526001600160a01b0316604482015260640160006040518083038186803b15801561122757600080fd5b505afa15801561123b573d6000803e3d6000fd5b5050506001600160a01b038516600090815261012e602052604081209150815460ff16600381111561126f5761126f614d5c565b036112b25760405162461bcd60e51b815260206004820152601360248201527210dbdb5c1bdb995b9d081b9bdd08199bdd5b99606a1b6044820152606401610956565b60018460038111156112c6576112c6614d5c565b14801561137b57506001600160a01b037f0000000000000000000000000000000000000000000000000000000000000000166391d14854600080516020615747833981519152336040516001600160e01b031960e085901b16815260048101929092526001600160a01b03166024820152604401602060405180830381865afa158015611357573d6000803e3d6000fd5b505050506040513d601f19601f8201168201806040525081019061137b91906152ca565b8061144a5750600384600381111561139557611395614d5c565b14801561144a57506001600160a01b037f0000000000000000000000000000000000000000000000000000000000000000166391d1485460008051602061578e833981519152336040516001600160e01b031960e085901b16815260048101929092526001600160a01b03166024820152604401602060405180830381865afa158015611426573d6000803e3d6000fd5b505050506040513d601f19601f8201168201806040525081019061144a91906152ca565b806115195750600284600381111561146457611464614d5c565b14801561151957506001600160a01b037f0000000000000000000000000000000000000000000000000000000000000000166391d14854600080516020615747833981519152336040516001600160e01b031960e085901b16815260048101929092526001600160a01b03166024820152604401602060405180830381865afa1580156114f5573d6000803e3d6000fd5b505050506040513d601f19601f8201168201806040525081019061151991906152ca565b61158b5760405162461bcd60e51b815260206004820152603e60248201527f4f6e6c7920475541524449414e2063616e2073757370656e64202f204f6e6c7960448201527f204c4556454c312063616e2061637469766174652f64657072656361746500006064820152608401610956565b80548490829060ff191660018360038111156115a9576115a9614d5c565b021790555080546040516001600160a01b038716917ffe4c6998a06520b63340a48710b374432cb395da90e4e5360e1ec7aeefebecef916115f491610100900460ff169088906152e7565b60405180910390a25050505050565b600081815260fd60205260408120546001600160a01b0316806108255760405162461bcd60e51b8152602060048201526018602482015277115490cdcc8c4e881a5b9d985b1a59081d1bdad95b88125160421b6044820152606401610956565b600061166d61365a565b6101608501516001600160a01b03811633146116d75760405162461bcd60e51b815260206004820152602360248201527f4f6e6c792074686520524d2063616e20637265617465206e657720706f6c696360448201526269657360e81b6064820152608401610956565b60016116e282613787565b60038111156116f3576116f3614d5c565b1461174a5760405162461bcd60e51b815260206004820152602160248201527f524d206d6f64756c65206e6f7420666f756e64206f72206e6f742061637469766044820152606560f81b6064820152608401610956565b6000816001600160a01b03166373a952e86040518163ffffffff1660e01b8152600401602060405180830381865afa15801561178a573d6000803e3d6000fd5b505050506040513d601f19601f820116820180604052508101906117ae919061530d565b905060016117bb8261380a565b60038111156117cc576117cc614d5c565b146118295760405162461bcd60e51b815260206004820152602760248201527f5072656d69756d734163636f756e74206e6f7420666f756e64206f72206e6f746044820152662061637469766560c81b6064820152608401610956565b6118546bffffffffffffffffffffffff85166bffffffffffffffffffffffff19606085901b1661532a565b808852600090815261012f6020526040902054156118ac5760405162461bcd60e51b8152602060048201526015602482015274506f6c69637920616c72656164792065786973747360581b6044820152606401610956565b6118b587613898565b8751600090815261012f602052604090819020919091555163e3638ea360e01b81526001600160a01b0382169063e3638ea3906118f6908a906004016153f5565b600060405180830381600087803b15801561191057600080fd5b505af1158015611924573d6000803e3d6000fd5b50505060c088015161196591506001600160a01b037f000000000000000000000000000000000000000000000000000000000000000016908890849061372d565b61014087015115611a0e57611a0e86826001600160a01b0316637b83037b6040518163ffffffff1660e01b8152600401602060405180830381865afa1580156119b2573d6000803e3d6000fd5b505050506040513d601f19601f820116820180604052508101906119d6919061530d565b6101408a01516001600160a01b037f00000000000000000000000000000000000000000000000000000000000000001692919061372d565b61012087015115611ab757611ab786826001600160a01b031663536ebbfc6040518163ffffffff1660e01b8152600401602060405180830381865afa158015611a5b573d6000803e3d6000fd5b505050506040513d601f19601f82011682018060405250810190611a7f919061530d565b6101208a01516001600160a01b037f00000000000000000000000000000000000000000000000000000000000000001692919061372d565b61012d5460e0880151611afc916001600160a01b037f00000000000000000000000000000000000000000000000000000000000000008116928a92919091169061372d565b6000876101000151118015611b845750816001600160a01b031663521eb2736040518163ffffffff1660e01b8152600401602060405180830381865afa158015611b4a573d6000803e3d6000fd5b505050506040513d601f19601f82011682018060405250810190611b6e919061530d565b6001600160a01b0316866001600160a01b031614155b15611c2757611c2786836001600160a01b031663521eb2736040518163ffffffff1660e01b8152600401602060405180830381865afa158015611bcb573d6000803e3d6000fd5b505050506040513d601f19601f82011682018060405250810190611bef919061530d565b6101008a01516001600160a01b037f00000000000000000000000000000000000000000000000000000000000000001692919061372d565b611c4585886000015160405180602001604052806000815250613917565b816001600160a01b03167f38f420e3792044ba61536a1f83956eefc878b3fb09a7d4a28790f05b6a3eaf3b88604051611c7e91906153f5565b60405180910390a25050845190505b949350505050565b611c9d61365a565b42611cb06101c083016101a08401615404565b64ffffffffff161115611cfe5760405162461bcd60e51b8152602060048201526016602482015275141bdb1a58de481b9bdd08195e1c1a5c9959081e595d60521b6044820152606401610956565b610ce7611d103683900383018361541f565b6000600161394a565b6000805160206157478339815191526001600160a01b037f0000000000000000000000000000000000000000000000000000000000000000166312d9a6ad82336040516001600160e01b031960e085901b16815260048101929092526001600160a01b0316602482015260440160006040518083038186803b158015611d9e57600080fd5b505afa158015611db2573d6000803e3d6000fd5b5050506001600160a01b038416600090815261012e602052604081209150815460ff166003811115611de657611de6614d5c565b14611e335760405162461bcd60e51b815260206004820152601d60248201527f436f6d706f6e656e7420616c726561647920696e2074686520706f6f6c0000006044820152606401610956565b306001600160a01b0316846001600160a01b0316634d15eb036040518163ffffffff1660e01b8152600401602060405180830381865afa158015611e7b573d6000803e3d6000fd5b505050506040513d601f19601f82011682018060405250810190611e9f919061530d565b6001600160a01b031614611eff5760405162461bcd60e51b815260206004820152602160248201527f436f6d706f6e656e74206e6f74206c696e6b656420746f207468697320706f6f6044820152601b60fa1b6064820152608401610956565b6001836003811115611f1357611f13614d5c565b148015611f8a57506040516301ffc9a760e01b8152639077062160e01b60048201526001600160a01b038516906301ffc9a790602401602060405180830381865afa158015611f66573d6000803e3d6000fd5b505050506040513d601f19601f82011682018060405250810190611f8a91906152ca565b8061201b57506003836003811115611fa457611fa4614d5c565b14801561201b57506040516301ffc9a760e01b8152632dd9c4bb60e21b60048201526001600160a01b038516906301ffc9a790602401602060405180830381865afa158015611ff7573d6000803e3d6000fd5b505050506040513d601f19601f8201168201806040525081019061201b91906152ca565b806120ac5750600283600381111561203557612035614d5c565b1480156120ac57506040516301ffc9a760e01b815263da40804f60e01b60048201526001600160a01b038516906301ffc9a790602401602060405180830381865afa158015612088573d6000803e3d6000fd5b505050506040513d601f19601f820116820180604052508101906120ac91906152ca565b6120f85760405162461bcd60e51b815260206004820152601e60248201527f506f6c696379506f6f6c3a204e6f7420746865207269676874206b696e6400006044820152606401610956565b8054600160ff198216811783558491839161ffff199091161761010083600381111561212657612126614d5c565b0217905550600383600381111561213f5761213f614d5c565b036122ec5760008490506000816001600160a01b031663536ebbfc6040518163ffffffff1660e01b8152600401602060405180830381865afa158015612189573d6000803e3d6000fd5b505050506040513d601f19601f820116820180604052508101906121ad919061530d565b90506001600160a01b0381161561221a576040516338ea38a760e21b81526001600160a01b03838116600483015282169063e3a8e29c90602401600060405180830381600087803b15801561220157600080fd5b505af1158015612215573d6000803e3d6000fd5b505050505b816001600160a01b0316637b83037b6040518163ffffffff1660e01b8152600401602060405180830381865afa158015612258573d6000803e3d6000fd5b505050506040513d601f19601f8201168201806040525081019061227c919061530d565b90506001600160a01b038116156122e9576040516338ea38a760e21b81526001600160a01b03838116600483015282169063e3a8e29c90602401600060405180830381600087803b1580156122d057600080fd5b505af11580156122e4573d6000803e3d6000fd5b505050505b50505b836001600160a01b03167ffe4c6998a06520b63340a48710b374432cb395da90e4e5360e1ec7aeefebecef8460016040516123289291906152e7565b60405180910390a250505050565b6000805160206157478339815191526001600160a01b037f0000000000000000000000000000000000000000000000000000000000000000166312d9a6ad82336040516001600160e01b031960e085901b16815260048101929092526001600160a01b0316602482015260440160006040518083038186803b1580156123bb57600080fd5b505afa1580156123cf573d6000803e3d6000fd5b505050506001600160a01b038216600090815261012e602052604090206002815460ff16600381111561240457612404614d5c565b146124515760405162461bcd60e51b815260206004820152601860248201527f436f6d706f6e656e74206e6f74206465707265636174656400000000000000006044820152606401610956565b60018154610100900460ff16600381111561246e5761246e614d5c565b0361253657826001600160a01b03166318160ddd6040518163ffffffff1660e01b8152600401602060405180830381865afa1580156124b1573d6000803e3d6000fd5b505050506040513d601f19601f820116820180604052508101906124d59190615288565b156125315760405162461bcd60e51b815260206004820152602660248201527f45546f6b656e20686173206c69717569646974792c2063616e27742062652072604482015265195b5bdd995960d21b6064820152608401610956565b6128a8565b60028154610100900460ff16600381111561255357612553614d5c565b0361261a57826001600160a01b0316637ff8bf256040518163ffffffff1660e01b8152600401602060405180830381865afa158015612596573d6000803e3d6000fd5b505050506040513d601f19601f820116820180604052508101906125ba9190615288565b156125315760405162461bcd60e51b815260206004820152602a60248201527f43616e27742072656d6f76652061206d6f64756c6520776974682061637469766044820152696520706f6c696369657360b01b6064820152608401610956565b60038154610100900460ff16600381111561263757612637614d5c565b036128a8576000839050806001600160a01b03166326ccbd226040518163ffffffff1660e01b8152600401602060405180830381865afa15801561267f573d6000803e3d6000fd5b505050506040513d601f19601f820116820180604052508101906126a39190615288565b156127055760405162461bcd60e51b815260206004820152602c60248201527f43616e27742072656d6f76652061205072656d69756d734163636f756e74207760448201526b697468207072656d69756d7360a01b6064820152608401610956565b6000816001600160a01b031663536ebbfc6040518163ffffffff1660e01b8152600401602060405180830381865afa158015612745573d6000803e3d6000fd5b505050506040513d601f19601f82011682018060405250810190612769919061530d565b90506001600160a01b038116156127d6576040516376c7fc5560e01b81526001600160a01b0383811660048301528216906376c7fc5590602401600060405180830381600087803b1580156127bd57600080fd5b505af11580156127d1573d6000803e3d6000fd5b505050505b816001600160a01b0316637b83037b6040518163ffffffff1660e01b8152600401602060405180830381865afa158015612814573d6000803e3d6000fd5b505050506040513d601f19601f82011682018060405250810190612838919061530d565b90506001600160a01b038116156128a5576040516376c7fc5560e01b81526001600160a01b0383811660048301528216906376c7fc5590602401600060405180830381600087803b15801561288c57600080fd5b505af11580156128a0573d6000803e3d6000fd5b505050505b50505b80546040516001600160a01b038516917ffe4c6998a06520b63340a48710b374432cb395da90e4e5360e1ec7aeefebecef916128ef91610100900460ff16906000906152e7565b60405180910390a250506001600160a01b0316600090815261012e60205260409020805461ffff19169055565b60006001600160a01b0382166129865760405162461bcd60e51b815260206004820152602960248201527f4552433732313a2061646472657373207a65726f206973206e6f7420612076616044820152683634b21037bbb732b960b91b6064820152608401610956565b506001600160a01b0316600090815260fe602052604090205490565b6129aa61365a565b610da76129bc3684900384018461541f565b82600061394a565b60008051602061578e8339815191526001600160a01b037f0000000000000000000000000000000000000000000000000000000000000000166312d9a6ad82336040516001600160e01b031960e085901b16815260048101929092526001600160a01b0316602482015260440160006040518083038186803b158015612a4957600080fd5b505afa158015612a5d573d6000803e3d6000fd5b50505050610ce7613e0a565b612a7161365a565b60005b81811015610bd55742838383818110612a8f57612a8f61543c565b90506101c002016101a0016020810190612aa99190615404565b64ffffffffff161115612af75760405162461bcd60e51b8152602060048201526016602482015275141bdb1a58de481b9bdd08195e1c1a5c9959081e595d60521b6044820152606401610956565b612b23838383818110612b0c57612b0c61543c565b90506101c00201803603810190611d10919061541f565b80612b2d81615452565b915050612a74565b606060fc805461083a9061516e565b610da7338383613e47565b612b593383612ffc565b612b755760405162461bcd60e51b8152600401610956906151a2565b610a9884848484613f16565b6060612b8c82612f2f565b6000612ba360408051602081019091526000815290565b90506000815111612bc35760405180602001604052806000815250612bee565b80612bcd84613f49565b604051602001612bde92919061546b565b6040516020818303038152906040525b9392505050565b6001600160a01b0391821660009081526101006020908152604080832093909416825291909152205460ff1690565b6000805160206157478339815191526001600160a01b037f0000000000000000000000000000000000000000000000000000000000000000166312d9a6ad82336040516001600160e01b031960e085901b16815260048101929092526001600160a01b0316602482015260440160006040518083038186803b158015612ca957600080fd5b505afa158015612cbd573d6000803e3d6000fd5b50505050610da78261404a565b6000612cd461365a565b6000612cdf846136a0565b90506001816003811115612cf557612cf5614d5c565b1480612d1257506002816003811115612d1057612d10614d5c565b145b612d705760405162461bcd60e51b815260206004820152602960248201527f65546f6b656e206e6f7420666f756e64206f7220776974686472617773206e6f6044820152681d08185b1b1bddd95960ba1b6064820152608401610956565b60003360405163f3fef3a360e01b81526001600160a01b038083166004830152602482018790529192509086169063f3fef3a3906044016020604051808303816000875af1158015612dc6573d6000803e3d6000fd5b505050506040513d601f19601f82011682018060405250810190612dea9190615288565b95945050505050565b612dfb61365a565b610da7612e0d3684900384018461541f565b82612e19576000612e1f565b83602001355b600061394a565b60006001600160e01b031982166380ac58cd60e01b1480612e5757506001600160e01b03198216635b5e139f60e01b145b8061082557506301ffc9a760e01b6001600160e01b0319831614610825565b600054610100900460ff16612e9d5760405162461bcd60e51b81526004016109569061549a565b565b600054610100900460ff16612ec65760405162461bcd60e51b81526004016109569061549a565b610da7828261411a565b600054610100900460ff16612ef75760405162461bcd60e51b81526004016109569061549a565b612e9d61415a565b600054610100900460ff16612f265760405162461bcd60e51b81526004016109569061549a565b610ce78161404a565b600081815260fd60205260409020546001600160a01b0316610ce75760405162461bcd60e51b8152602060048201526018602482015277115490cdcc8c4e881a5b9d985b1a59081d1bdad95b88125160421b6044820152606401610956565b600081815260ff6020526040902080546001600160a01b0319166001600160a01b0384169081179091558190612fc382611603565b6001600160a01b03167f8c5be1e5ebec7d5bd14f71427d1e84f3dd0314c0f7b2291e5b200ac8c7c3b92560405160405180910390a45050565b60008061300883611603565b9050806001600160a01b0316846001600160a01b0316148061302f575061302f8185612bf5565b80611c8d5750836001600160a01b031661304884610a9e565b6001600160a01b031614949350505050565b826001600160a01b031661306d82611603565b6001600160a01b0316146130d15760405162461bcd60e51b815260206004820152602560248201527f4552433732313a207472616e736665722066726f6d20696e636f72726563742060448201526437bbb732b960d91b6064820152608401610956565b6001600160a01b0382166131335760405162461bcd60e51b8152602060048201526024808201527f4552433732313a207472616e7366657220746f20746865207a65726f206164646044820152637265737360e01b6064820152608401610956565b61313e83838361418d565b613149600082612f8e565b6001600160a01b038316600090815260fe602052604081208054600192906131729084906152b7565b90915550506001600160a01b038216600090815260fe602052604081208054600192906131a090849061532a565b9091555050600081815260fd602052604080822080546001600160a01b0319166001600160a01b0386811691821790925591518493918716917fddf252ad1be2c89b69c2b068fc378daa952ba7f163c4a11628f55a4df523b3ef91a4505050565b60008051602061578e8339815191526000805160206157478339815191526001600160a01b037f00000000000000000000000000000000000000000000000000000000000000001663c5b8f5cf8383336040516001600160e01b031960e086901b168152600481019390935260248301919091526001600160a01b0316604482015260640160006040518083038186803b15801561329e57600080fd5b505afa1580156132b2573d6000803e3d6000fd5b5050505060008390507f00000000000000000000000000000000000000000000000000000000000000006001600160a01b0316816001600160a01b03166371907f176040518163ffffffff1660e01b8152600401602060405180830381865afa158015613323573d6000803e3d6000fd5b505050506040513d601f19601f82011682018060405250810190613347919061530d565b6001600160a01b0316146133af5760405162461bcd60e51b815260206004820152602960248201527f43616e27742075706772616465206368616e67696e6720746865206163636573604482015268399036b0b730b3b2b960b91b6064820152608401610956565b7f00000000000000000000000000000000000000000000000000000000000000006001600160a01b0316816001600160a01b031663e5a6b10f6040518163ffffffff1660e01b8152600401602060405180830381865afa158015613417573d6000803e3d6000fd5b505050506040513d601f19601f8201168201806040525081019061343b919061530d565b6001600160a01b031614610a985760405162461bcd60e51b815260206004820152602360248201527f43616e27742075706772616465206368616e67696e67207468652063757272656044820152626e637960e81b6064820152608401610956565b7f4910fdfa16fed3260ed0e7147f7cc6da11a60208b5b9406d12a635614ffd91435460ff16156134d057610bd583614195565b826001600160a01b03166352d1902d6040518163ffffffff1660e01b8152600401602060405180830381865afa92505050801561352a575060408051601f3d908101601f1916820190925261352791810190615288565b60015b61358d5760405162461bcd60e51b815260206004820152602e60248201527f45524331393637557067726164653a206e657720696d706c656d656e7461746960448201526d6f6e206973206e6f74205555505360901b6064820152608401610956565b60008051602061572783398151915281146135fc5760405162461bcd60e51b815260206004820152602960248201527f45524331393637557067726164653a20756e737570706f727465642070726f786044820152681a58589b195555525160ba1b6064820152608401610956565b50610bd5838383614231565b613610614256565b6033805460ff191690557f5db9ee0a495bf2e6ff9c91a7834c1ba4fdd244a5e8aa4e537bd38aeae4b073aa335b6040516001600160a01b03909116815260200160405180910390a1565b60335460ff1615612e9d5760405162461bcd60e51b815260206004820152601060248201526f14185d5cd8589b194e881c185d5cd95960821b6044820152606401610956565b6001600160a01b038116600090815261012e6020526040812060018154610100900460ff1660038111156136d6576136d6614d5c565b146137235760405162461bcd60e51b815260206004820152601a60248201527f436f6d706f6e656e74206973206e6f7420616e2065546f6b656e0000000000006044820152606401610956565b5460ff1692915050565b604080516001600160a01b0385811660248301528416604482015260648082018490528251808303909101815260849091019091526020810180516001600160e01b03166323b872dd60e01b179052610a9890859061429f565b6001600160a01b038116600090815261012e6020526040812060028154610100900460ff1660038111156137bd576137bd614d5c565b146137235760405162461bcd60e51b815260206004820152601d60248201527f436f6d706f6e656e74206973206e6f742061205269736b4d6f64756c650000006044820152606401610956565b6001600160a01b038116600090815261012e6020526040812060038154610100900460ff16600381111561384057613840614d5c565b146137235760405162461bcd60e51b815260206004820152602260248201527f436f6d706f6e656e74206973206e6f742061205072656d69756d734163636f756044820152611b9d60f21b6064820152608401610956565b6000816040516020016138ab91906153f5565b60408051601f1981840301815291905280516020909101209050806139125760405162461bcd60e51b815260206004820152601860248201527f506f6c6963793a20686173682063616e6e6f74206265203000000000000000006044820152606401610956565b919050565b6139218383614371565b61392e60008484846144bf565b610bd55760405162461bcd60e51b8152600401610956906154e5565b613953836145bd565b610160830151818061396d57506001600160a01b03811633145b6139b95760405162461bcd60e51b815260206004820181905260248201527f4f6e6c792074686520524d2063616e207265736f6c766520706f6c69636965736044820152606401610956565b8215806139d1575042846101a0015164ffffffffff16115b613a1d5760405162461bcd60e51b815260206004820152601860248201527f43616e277420706179206578706972656420706f6c69637900000000000000006044820152606401610956565b6000613a2882613787565b90506001816003811115613a3e57613a3e614d5c565b1480613a5b57506002816003811115613a5957613a59614d5c565b145b613acd5760405162461bcd60e51b815260206004820152603a60248201527f4d6f64756c65206d75737420626520616374697665206f72206465707265636160448201527f74656420746f2070726f63657373207265736f6c7574696f6e730000000000006064820152608401610956565b8460200151841115613b1a5760405162461bcd60e51b81526020600482015260166024820152751c185e5bdd5d080f881c1bdb1a58de4b9c185e5bdd5d60521b6044820152606401610956565b600080851190506000836001600160a01b03166373a952e86040518163ffffffff1660e01b8152600401602060405180830381865afa158015613b61573d6000803e3d6000fd5b505050506040513d601f19601f82011682018060405250810190613b85919061530d565b9050613b908161380a565b92506001836003811115613ba657613ba6614d5c565b1480613bc357506002836003811115613bc157613bc1614d5c565b145b613c415760405162461bcd60e51b815260206004820152604360248201527f5072656d69756d734163636f756e74206d75737420626520616374697665206f60448201527f72206465707265636174656420746f2070726f63657373207265736f6c7574696064820152626f6e7360e81b608482015260a401610956565b8651600090815261012f60205260408120558115613cd3576000613c688860000151611603565b604051639d8c5ee760e01b81529091506001600160a01b03831690639d8c5ee790613c9b9084908c908c90600401615537565b600060405180830381600087803b158015613cb557600080fd5b505af1158015613cc9573d6000803e3d6000fd5b5050505050613d32565b60405163c7a9c70d60e01b81526001600160a01b0382169063c7a9c70d90613cff908a906004016153f5565b600060405180830381600087803b158015613d1957600080fd5b505af1158015613d2d573d6000803e3d6000fd5b505050505b6020870151604051636a448ef160e01b815260048101919091526001600160a01b03851690636a448ef190602401600060405180830381600087803b158015613d7a57600080fd5b505af1158015613d8e573d6000803e3d6000fd5b5050505086600001518761016001516001600160a01b03167f54f4a270ea08f88dc23b2520d6b063fecb24d956c4496f447926d736338f545e88604051613dd791815260200190565b60405180910390a38515613df6578651613df19087614624565b613e01565b8651613e019061477e565b50505050505050565b613e1261365a565b6033805460ff191660011790557f62e78cea01bee320cd4e420270b5ea74000d11b0c9f74754ebdbfc544b05a25861363d3390565b816001600160a01b0316836001600160a01b031603613ea85760405162461bcd60e51b815260206004820152601960248201527f4552433732313a20617070726f766520746f2063616c6c6572000000000000006044820152606401610956565b6001600160a01b0383811660008181526101006020908152604080832094871680845294825291829020805460ff191686151590811790915591519182527f17307eab39ab6107e8899845ad3d59bd9653f200f220920489ca2b5937696c31910160405180910390a3505050565b613f2184848461305a565b613f2d848484846144bf565b610a985760405162461bcd60e51b8152600401610956906154e5565b606081600003613f705750506040805180820190915260018152600360fc1b602082015290565b8160005b8115613f9a5780613f8481615452565b9150613f939050600a8361557a565b9150613f74565b60008167ffffffffffffffff811115613fb557613fb5614b5f565b6040519080825280601f01601f191660200182016040528015613fdf576020820181803683370190505b5090505b8415611c8d57613ff46001836152b7565b9150614001600a8661558e565b61400c90603061532a565b60f81b8183815181106140215761402161543c565b60200101906001600160f81b031916908160001a905350614043600a8661557a565b9450613fe3565b6001600160a01b0381166140b85760405162461bcd60e51b815260206004820152602f60248201527f506f6c696379506f6f6c3a2074726561737572792063616e6e6f74206265207460448201526e6865207a65726f206164647265737360881b6064820152608401610956565b61012d80546001600160a01b0319166001600160a01b038316179055600161012d546040516001600160a01b0390911681527fb6bdbd44472629fc24a00b6f4ee3348b72c9eff333d0e9c16d78c49da1323c8f9060200160405180910390a250565b600054610100900460ff166141415760405162461bcd60e51b81526004016109569061549a565b60fb61414d83826155f0565b5060fc610bd582826155f0565b600054610100900460ff166141815760405162461bcd60e51b81526004016109569061549a565b6033805460ff19169055565b610bd561365a565b6001600160a01b0381163b6142025760405162461bcd60e51b815260206004820152602d60248201527f455243313936373a206e657720696d706c656d656e746174696f6e206973206e60448201526c1bdd08184818dbdb9d1c9858dd609a1b6064820152608401610956565b60008051602061572783398151915280546001600160a01b0319166001600160a01b0392909216919091179055565b61423a83614825565b6000825111806142475750805b15610bd557610a988383614865565b60335460ff16612e9d5760405162461bcd60e51b815260206004820152601460248201527314185d5cd8589b194e881b9bdd081c185d5cd95960621b6044820152606401610956565b60006142f4826040518060400160405280602081526020017f5361666545524332303a206c6f772d6c6576656c2063616c6c206661696c6564815250856001600160a01b03166149509092919063ffffffff16565b805190915015610bd5578080602001905181019061431291906152ca565b610bd55760405162461bcd60e51b815260206004820152602a60248201527f5361666545524332303a204552433230206f7065726174696f6e20646964206e6044820152691bdd081cdd58d8d9595960b21b6064820152608401610956565b6001600160a01b0382166143c75760405162461bcd60e51b815260206004820181905260248201527f4552433732313a206d696e7420746f20746865207a65726f20616464726573736044820152606401610956565b600081815260fd60205260409020546001600160a01b03161561442c5760405162461bcd60e51b815260206004820152601c60248201527f4552433732313a20746f6b656e20616c7265616479206d696e746564000000006044820152606401610956565b6144386000838361418d565b6001600160a01b038216600090815260fe6020526040812080546001929061446190849061532a565b9091555050600081815260fd602052604080822080546001600160a01b0319166001600160a01b03861690811790915590518392907fddf252ad1be2c89b69c2b068fc378daa952ba7f163c4a11628f55a4df523b3ef908290a45050565b60006001600160a01b0384163b156145b557604051630a85bd0160e11b81526001600160a01b0385169063150b7a02906145039033908990889088906004016156b0565b6020604051808303816000875af192505050801561453e575060408051601f3d908101601f1916820190925261453b918101906156ed565b60015b61459b573d80801561456c576040519150601f19603f3d011682016040523d82523d6000602084013e614571565b606091505b5080516000036145935760405162461bcd60e51b8152600401610956906154e5565b805181602001fd5b6001600160e01b031916630a85bd0160e11b149050611c8d565b506001611c8d565b8051158015906145e557508051600090815261012f60205260409020546145e382613898565b145b610ce75760405162461bcd60e51b815260206004820152601060248201526f141bdb1a58de481b9bdd08199bdd5b9960821b6044820152606401610956565b600061462f83611603565b90506001600160a01b0381163b61464557505050565b6001600160a01b03811663d6281d3e336040516001600160e01b031960e084901b1681526001600160a01b03909116600482015230602482015260448101869052606481018590526084016020604051808303816000875af19250505080156146cb575060408051601f3d908101601f191682019092526146c8918101906156ed565b60015b61470e573d8080156146f9576040519150601f19603f3d011682016040523d82523d6000602084013e6146fe565b606091505b5080516000036145935750505050565b6001600160e01b03198116636b140e9f60e11b14610a985760405162461bcd60e51b815260206004820152602760248201527f496e76616c69642072657475726e2076616c75652066726f6d20506f6c696379604482015266102437b63232b960c91b6064820152608401610956565b600061478982611603565b90506001600160a01b0381163b61479e575050565b6001600160a01b03811663e8e617b7336040516001600160e01b031960e084901b1681526001600160a01b039091166004820152306024820152604481018590526064016020604051808303816000875af192505050801561481d575060408051601f3d908101601f1916820190925261481a918101906156ed565b60015b610bd5575050565b61482e81614195565b6040516001600160a01b038216907fbc7cd75a20ee27fd9adebab32041f755214dbc6bffa90cc0225b39da2e5c2d3b90600090a250565b60606001600160a01b0383163b6148cd5760405162461bcd60e51b815260206004820152602660248201527f416464726573733a2064656c65676174652063616c6c20746f206e6f6e2d636f6044820152651b9d1c9858dd60d21b6064820152608401610956565b600080846001600160a01b0316846040516148e8919061570a565b600060405180830381855af49150503d8060008114614923576040519150601f19603f3d011682016040523d82523d6000602084013e614928565b606091505b5091509150612dea82826040518060600160405280602781526020016157676027913961495f565b6060611c8d8484600085614998565b6060831561496e575081612bee565b82511561497e5782518084602001fd5b8160405162461bcd60e51b81526004016109569190614b4c565b6060824710156149f95760405162461bcd60e51b815260206004820152602660248201527f416464726573733a20696e73756666696369656e742062616c616e636520666f6044820152651c8818d85b1b60d21b6064820152608401610956565b6001600160a01b0385163b614a505760405162461bcd60e51b815260206004820152601d60248201527f416464726573733a2063616c6c20746f206e6f6e2d636f6e74726163740000006044820152606401610956565b600080866001600160a01b03168587604051614a6c919061570a565b60006040518083038185875af1925050503d8060008114614aa9576040519150601f19603f3d011682016040523d82523d6000602084013e614aae565b606091505b5091509150614abe82828661495f565b979650505050505050565b6001600160e01b031981168114610ce757600080fd5b600060208284031215614af157600080fd5b8135612bee81614ac9565b60005b83811015614b17578181015183820152602001614aff565b50506000910152565b60008151808452614b38816020860160208601614afc565b601f01601f19169290920160200192915050565b602081526000612bee6020830184614b20565b634e487b7160e01b600052604160045260246000fd5b6040516101c0810167ffffffffffffffff81118282101715614b9957614b99614b5f565b60405290565b600082601f830112614bb057600080fd5b813567ffffffffffffffff80821115614bcb57614bcb614b5f565b604051601f8301601f19908116603f01168101908282118183101715614bf357614bf3614b5f565b81604052838152866020858801011115614c0c57600080fd5b836020870160208301376000602085830101528094505050505092915050565b6001600160a01b0381168114610ce757600080fd5b600080600060608486031215614c5657600080fd5b833567ffffffffffffffff80821115614c6e57600080fd5b614c7a87838801614b9f565b94506020860135915080821115614c9057600080fd5b50614c9d86828701614b9f565b9250506040840135614cae81614c2c565b809150509250925092565b600060208284031215614ccb57600080fd5b5035919050565b60008060408385031215614ce557600080fd5b8235614cf081614c2c565b946020939093013593505050565b600080600060608486031215614d1357600080fd5b8335614d1e81614c2c565b92506020840135614d2e81614c2c565b929592945050506040919091013590565b600060208284031215614d5157600080fd5b8135612bee81614c2c565b634e487b7160e01b600052602160045260246000fd5b60048110610ce757634e487b7160e01b600052602160045260246000fd5b60208101614d9d83614d72565b91905290565b60008060408385031215614db657600080fd5b8235614dc181614c2c565b9150602083013567ffffffffffffffff811115614ddd57600080fd5b614de985828601614b9f565b9150509250929050565b60048110610ce757600080fd5b60008060408385031215614e1357600080fd5b8235614e1e81614c2c565b91506020830135614e2e81614df3565b809150509250929050565b803561391281614c2c565b803564ffffffffff8116811461391257600080fd5b60006101c08284031215614e6c57600080fd5b614e74614b75565b9050813581526020820135602082015260408201356040820152606082013560608201526080820135608082015260a082013560a082015260c082013560c082015260e082013560e0820152610100808301358183015250610120808301358183015250610140808301358183015250610160614ef2818401614e39565b90820152610180614f04838201614e44565b908201526101a0614f16838201614e44565b9082015292915050565b6000806000806102208587031215614f3757600080fd5b614f418686614e59565b93506101c0850135614f5281614c2c565b92506101e0850135614f6381614c2c565b91506102008501356bffffffffffffffffffffffff81168114614f8557600080fd5b939692955090935050565b60006101c08284031215614fa357600080fd5b50919050565b60006101c08284031215614fbc57600080fd5b612bee8383614f90565b6000806101e08385031215614fda57600080fd5b614fe48484614f90565b946101c0939093013593505050565b6000806020838503121561500657600080fd5b823567ffffffffffffffff8082111561501e57600080fd5b818501915085601f83011261503257600080fd5b81358181111561504157600080fd5b8660206101c08302850101111561505757600080fd5b60209290920196919550909350505050565b8015158114610ce757600080fd5b6000806040838503121561508a57600080fd5b823561509581614c2c565b91506020830135614e2e81615069565b600080600080608085870312156150bb57600080fd5b84356150c681614c2c565b935060208501356150d681614c2c565b925060408501359150606085013567ffffffffffffffff8111156150f957600080fd5b61510587828801614b9f565b91505092959194509250565b6000806040838503121561512457600080fd5b823561512f81614c2c565b91506020830135614e2e81614c2c565b6000806101e0838503121561515357600080fd5b61515d8484614f90565b91506101c0830135614e2e81615069565b600181811c9082168061518257607f821691505b602082108103614fa357634e487b7160e01b600052602260045260246000fd5b6020808252602e908201527f4552433732313a2063616c6c6572206973206e6f7420746f6b656e206f776e6560408201526d1c881b9bdc88185c1c1c9bdd995960921b606082015260800190565b6020808252602c908201527f46756e6374696f6e206d7573742062652063616c6c6564207468726f7567682060408201526b19195b1959d85d1958d85b1b60a21b606082015260800190565b6020808252602c908201527f46756e6374696f6e206d7573742062652063616c6c6564207468726f7567682060408201526b6163746976652070726f787960a01b606082015260800190565b60006020828403121561529a57600080fd5b5051919050565b634e487b7160e01b600052601160045260246000fd5b81810381811115610825576108256152a1565b6000602082840312156152dc57600080fd5b8151612bee81615069565b604081016152f484614d72565b83825261530083614d72565b8260208301529392505050565b60006020828403121561531f57600080fd5b8151612bee81614c2c565b80820180821115610825576108256152a1565b805182526020810151602083015260408101516040830152606081015160608301526080810151608083015260a081015160a083015260c081015160c083015260e081015160e0830152610100808201518184015250610120808201518184015250610140808201518184015250610160808201516153c6828501826001600160a01b03169052565b50506101808181015164ffffffffff81168483015250506101a08181015164ffffffffff811684830152610a98565b6101c08101610825828461533d565b60006020828403121561541657600080fd5b612bee82614e44565b60006101c0828403121561543257600080fd5b612bee8383614e59565b634e487b7160e01b600052603260045260246000fd5b600060018201615464576154646152a1565b5060010190565b6000835161547d818460208801614afc565b835190830190615491818360208801614afc565b01949350505050565b6020808252602b908201527f496e697469616c697a61626c653a20636f6e7472616374206973206e6f74206960408201526a6e697469616c697a696e6760a81b606082015260800190565b60208082526032908201527f4552433732313a207472616e7366657220746f206e6f6e20455243373231526560408201527131b2b4bb32b91034b6b83632b6b2b73a32b960711b606082015260800190565b6001600160a01b03841681526102008101615555602083018561533d565b826101e0830152949350505050565b634e487b7160e01b600052601260045260246000fd5b60008261558957615589615564565b500490565b60008261559d5761559d615564565b500690565b601f821115610bd557600081815260208120601f850160051c810160208610156155c95750805b601f850160051c820191505b818110156155e8578281556001016155d5565b505050505050565b815167ffffffffffffffff81111561560a5761560a614b5f565b61561e81615618845461516e565b846155a2565b602080601f831160018114615653576000841561563b5750858301515b600019600386901b1c1916600185901b1785556155e8565b600085815260208120601f198616915b8281101561568257888601518255948401946001909101908401615663565b50858210156156a05787850151600019600388901b60f8161c191681555b5050505050600190811b01905550565b6001600160a01b03858116825284166020820152604081018390526080606082018190526000906156e390830184614b20565b9695505050505050565b6000602082840312156156ff57600080fd5b8151612bee81614ac9565b6000825161571c818460208701614afc565b919091019291505056fe360894a13ba1a3210667c828492db98dca3e2076cc3735a920a3ca505d382bbcbf372ca3ebecfe59ac256f17697941bbe63302aced610e8b0e3646f743c7beb2416464726573733a206c6f772d6c6576656c2064656c65676174652063616c6c206661696c656455435dd261a4b9b3364963f7738a7a662ad9c84396d64be3365284bb7f0a5041a264697066735822122006a1a720f53fea6db7ca6654a8a9618b239efe09d5ba0489af939f229234189f64736f6c63430008100033",
  "linkReferences": {},
  "deployedLinkReferences": {}
}