{
  "_format": "hh-sol-artifact-1",
  "contractName": "PremiumsAccount",
  "sourceName": "contracts/PremiumsAccount.sol",
  "abi": [
    {
      "inputs": [
        {
          "internalType": "contract IPolicyPool",
          "name": "policyPool_",
          "type": "address"
        },
        {
          "internalType": "contract IEToken",
          "name": "juniorEtk_",
          "type": "address"
        },
        {
          "internalType": "contract IEToken",
          "name": "seniorEtk_",
          "type": "address"
        }
      ],
      "stateMutability": "nonpayable",
      "type": "constructor"
    },
    {
      "anonymous": false,
      "inputs": [
        {
          "indexed": false,
          "internalType": "address",
          "name": "previousAdmin",
          "type": "address"
        },
        {
          "indexed": false,
          "internalType": "address",
          "name": "newAdmin",
          "type": "address"
        }
      ],
      "name": "AdminChanged",
      "type": "event"
    },
    {
      "anonymous": false,
      "inputs": [
        {
          "indexed": true,
          "internalType": "address",
          "name": "beacon",
          "type": "address"
        }
      ],
      "name": "BeaconUpgraded",
      "type": "event"
    },
    {
      "anonymous": false,
      "inputs": [
        {
          "indexed": true,
          "internalType": "enum IAccessManager.GovernanceActions",
          "name": "action",
          "type": "uint8"
        },
        {
          "indexed": false,
          "internalType": "address",
          "name": "value",
          "type": "address"
        }
      ],
      "name": "ComponentChanged",
      "type": "event"
    },
    {
      "anonymous": false,
      "inputs": [
        {
          "indexed": true,
          "internalType": "enum IAccessManager.GovernanceActions",
          "name": "action",
          "type": "uint8"
        },
        {
          "indexed": false,
          "internalType": "uint256",
          "name": "value",
          "type": "uint256"
        }
      ],
      "name": "GovernanceAction",
      "type": "event"
    },
    {
      "anonymous": false,
      "inputs": [
        {
          "indexed": false,
          "internalType": "uint8",
          "name": "version",
          "type": "uint8"
        }
      ],
      "name": "Initialized",
      "type": "event"
    },
    {
      "anonymous": false,
      "inputs": [
        {
          "indexed": false,
          "internalType": "address",
          "name": "account",
          "type": "address"
        }
      ],
      "name": "Paused",
      "type": "event"
    },
    {
      "anonymous": false,
      "inputs": [
        {
          "indexed": false,
          "internalType": "address",
          "name": "account",
          "type": "address"
        }
      ],
      "name": "Unpaused",
      "type": "event"
    },
    {
      "anonymous": false,
      "inputs": [
        {
          "indexed": true,
          "internalType": "address",
          "name": "implementation",
          "type": "address"
        }
      ],
      "name": "Upgraded",
      "type": "event"
    },
    {
      "anonymous": false,
      "inputs": [
        {
          "indexed": false,
          "internalType": "bool",
          "name": "moneyIn",
          "type": "bool"
        },
        {
          "indexed": false,
          "internalType": "uint256",
          "name": "value",
          "type": "uint256"
        }
      ],
      "name": "WonPremiumsInOut",
      "type": "event"
    },
    {
      "inputs": [],
      "name": "GUARDIAN_ROLE",
      "outputs": [
        {
          "internalType": "bytes32",
          "name": "",
          "type": "bytes32"
        }
      ],
      "stateMutability": "view",
      "type": "function"
    },
    {
      "inputs": [],
      "name": "LEVEL1_ROLE",
      "outputs": [
        {
          "internalType": "bytes32",
          "name": "",
          "type": "bytes32"
        }
      ],
      "stateMutability": "view",
      "type": "function"
    },
    {
      "inputs": [],
      "name": "LEVEL2_ROLE",
      "outputs": [
        {
          "internalType": "bytes32",
          "name": "",
          "type": "bytes32"
        }
      ],
      "stateMutability": "view",
      "type": "function"
    },
    {
      "inputs": [],
      "name": "LEVEL3_ROLE",
      "outputs": [
        {
          "internalType": "bytes32",
          "name": "",
          "type": "bytes32"
        }
      ],
      "stateMutability": "view",
      "type": "function"
    },
    {
      "inputs": [],
      "name": "TWEAK_EXPIRATION",
      "outputs": [
        {
          "internalType": "uint40",
          "name": "",
          "type": "uint40"
        }
      ],
      "stateMutability": "view",
      "type": "function"
    },
    {
      "inputs": [],
      "name": "WITHDRAW_WON_PREMIUMS_ROLE",
      "outputs": [
        {
          "internalType": "bytes32",
          "name": "",
          "type": "bytes32"
        }
      ],
      "stateMutability": "view",
      "type": "function"
    },
    {
      "inputs": [],
      "name": "activePurePremiums",
      "outputs": [
        {
          "internalType": "uint256",
          "name": "",
          "type": "uint256"
        }
      ],
      "stateMutability": "view",
      "type": "function"
    },
    {
      "inputs": [],
      "name": "assetManager",
      "outputs": [
        {
          "internalType": "contract IAssetManager",
          "name": "",
          "type": "address"
        }
      ],
      "stateMutability": "view",
      "type": "function"
    },
    {
      "inputs": [],
      "name": "borrowedActivePP",
      "outputs": [
        {
          "internalType": "uint256",
          "name": "",
          "type": "uint256"
        }
      ],
      "stateMutability": "view",
      "type": "function"
    },
    {
      "inputs": [],
      "name": "checkpoint",
      "outputs": [],
      "stateMutability": "nonpayable",
      "type": "function"
    },
    {
      "inputs": [],
      "name": "currency",
      "outputs": [
        {
          "internalType": "contract IERC20Metadata",
          "name": "",
          "type": "address"
        }
      ],
      "stateMutability": "view",
      "type": "function"
    },
    {
      "inputs": [],
      "name": "deficitRatio",
      "outputs": [
        {
          "internalType": "uint256",
          "name": "",
          "type": "uint256"
        }
      ],
      "stateMutability": "view",
      "type": "function"
    },
    {
      "inputs": [
        {
          "internalType": "bytes",
          "name": "functionCall",
          "type": "bytes"
        }
      ],
      "name": "forwardToAssetManager",
      "outputs": [
        {
          "internalType": "bytes",
          "name": "",
          "type": "bytes"
        }
      ],
      "stateMutability": "nonpayable",
      "type": "function"
    },
    {
      "inputs": [],
      "name": "initialize",
      "outputs": [],
      "stateMutability": "nonpayable",
      "type": "function"
    },
    {
      "inputs": [],
      "name": "jrLoanLimit",
      "outputs": [
        {
          "internalType": "uint256",
          "name": "",
          "type": "uint256"
        }
      ],
      "stateMutability": "view",
      "type": "function"
    },
    {
      "inputs": [],
      "name": "juniorEtk",
      "outputs": [
        {
          "internalType": "contract IEToken",
          "name": "",
          "type": "address"
        }
      ],
      "stateMutability": "view",
      "type": "function"
    },
    {
      "inputs": [],
      "name": "lastTweak",
      "outputs": [
        {
          "internalType": "uint40",
          "name": "",
          "type": "uint40"
        },
        {
          "internalType": "uint56",
          "name": "",
          "type": "uint56"
        }
      ],
      "stateMutability": "view",
      "type": "function"
    },
    {
      "inputs": [],
      "name": "pause",
      "outputs": [],
      "stateMutability": "nonpayable",
      "type": "function"
    },
    {
      "inputs": [],
      "name": "paused",
      "outputs": [
        {
          "internalType": "bool",
          "name": "",
          "type": "bool"
        }
      ],
      "stateMutability": "view",
      "type": "function"
    },
    {
      "inputs": [
        {
          "components": [
            {
              "internalType": "uint256",
              "name": "id",
              "type": "uint256"
            },
            {
              "internalType": "uint256",
              "name": "payout",
              "type": "uint256"
            },
            {
              "internalType": "uint256",
              "name": "premium",
              "type": "uint256"
            },
            {
              "internalType": "uint256",
              "name": "jrScr",
              "type": "uint256"
            },
            {
              "internalType": "uint256",
              "name": "srScr",
              "type": "uint256"
            },
            {
              "internalType": "uint256",
              "name": "lossProb",
              "type": "uint256"
            },
            {
              "internalType": "uint256",
              "name": "purePremium",
              "type": "uint256"
            },
            {
              "internalType": "uint256",
              "name": "ensuroCommission",
              "type": "uint256"
            },
            {
              "internalType": "uint256",
              "name": "partnerCommission",
              "type": "uint256"
            },
            {
              "internalType": "uint256",
              "name": "jrCoc",
              "type": "uint256"
            },
            {
              "internalType": "uint256",
              "name": "srCoc",
              "type": "uint256"
            },
            {
              "internalType": "contract IRiskModule",
              "name": "riskModule",
              "type": "address"
            },
            {
              "internalType": "uint40",
              "name": "start",
              "type": "uint40"
            },
            {
              "internalType": "uint40",
              "name": "expiration",
              "type": "uint40"
            }
          ],
          "internalType": "struct Policy.PolicyData",
          "name": "policy",
          "type": "tuple"
        }
      ],
      "name": "policyCreated",
      "outputs": [],
      "stateMutability": "nonpayable",
      "type": "function"
    },
    {
      "inputs": [
        {
          "components": [
            {
              "internalType": "uint256",
              "name": "id",
              "type": "uint256"
            },
            {
              "internalType": "uint256",
              "name": "payout",
              "type": "uint256"
            },
            {
              "internalType": "uint256",
              "name": "premium",
              "type": "uint256"
            },
            {
              "internalType": "uint256",
              "name": "jrScr",
              "type": "uint256"
            },
            {
              "internalType": "uint256",
              "name": "srScr",
              "type": "uint256"
            },
            {
              "internalType": "uint256",
              "name": "lossProb",
              "type": "uint256"
            },
            {
              "internalType": "uint256",
              "name": "purePremium",
              "type": "uint256"
            },
            {
              "internalType": "uint256",
              "name": "ensuroCommission",
              "type": "uint256"
            },
            {
              "internalType": "uint256",
              "name": "partnerCommission",
              "type": "uint256"
            },
            {
              "internalType": "uint256",
              "name": "jrCoc",
              "type": "uint256"
            },
            {
              "internalType": "uint256",
              "name": "srCoc",
              "type": "uint256"
            },
            {
              "internalType": "contract IRiskModule",
              "name": "riskModule",
              "type": "address"
            },
            {
              "internalType": "uint40",
              "name": "start",
              "type": "uint40"
            },
            {
              "internalType": "uint40",
              "name": "expiration",
              "type": "uint40"
            }
          ],
          "internalType": "struct Policy.PolicyData",
          "name": "policy",
          "type": "tuple"
        }
      ],
      "name": "policyExpired",
      "outputs": [],
      "stateMutability": "nonpayable",
      "type": "function"
    },
    {
      "inputs": [],
      "name": "policyPool",
      "outputs": [
        {
          "internalType": "contract IPolicyPool",
          "name": "",
          "type": "address"
        }
      ],
      "stateMutability": "view",
      "type": "function"
    },
    {
      "inputs": [
        {
          "internalType": "address",
          "name": "policyHolder",
          "type": "address"
        },
        {
          "components": [
            {
              "internalType": "uint256",
              "name": "id",
              "type": "uint256"
            },
            {
              "internalType": "uint256",
              "name": "payout",
              "type": "uint256"
            },
            {
              "internalType": "uint256",
              "name": "premium",
              "type": "uint256"
            },
            {
              "internalType": "uint256",
              "name": "jrScr",
              "type": "uint256"
            },
            {
              "internalType": "uint256",
              "name": "srScr",
              "type": "uint256"
            },
            {
              "internalType": "uint256",
              "name": "lossProb",
              "type": "uint256"
            },
            {
              "internalType": "uint256",
              "name": "purePremium",
              "type": "uint256"
            },
            {
              "internalType": "uint256",
              "name": "ensuroCommission",
              "type": "uint256"
            },
            {
              "internalType": "uint256",
              "name": "partnerCommission",
              "type": "uint256"
            },
            {
              "internalType": "uint256",
              "name": "jrCoc",
              "type": "uint256"
            },
            {
              "internalType": "uint256",
              "name": "srCoc",
              "type": "uint256"
            },
            {
              "internalType": "contract IRiskModule",
              "name": "riskModule",
              "type": "address"
            },
            {
              "internalType": "uint40",
              "name": "start",
              "type": "uint40"
            },
            {
              "internalType": "uint40",
              "name": "expiration",
              "type": "uint40"
            }
          ],
          "internalType": "struct Policy.PolicyData",
          "name": "policy",
          "type": "tuple"
        },
        {
          "internalType": "uint256",
          "name": "payout",
          "type": "uint256"
        }
      ],
      "name": "policyResolvedWithPayout",
      "outputs": [],
      "stateMutability": "nonpayable",
      "type": "function"
    },
    {
      "inputs": [],
      "name": "proxiableUUID",
      "outputs": [
        {
          "internalType": "bytes32",
          "name": "",
          "type": "bytes32"
        }
      ],
      "stateMutability": "view",
      "type": "function"
    },
    {
      "inputs": [],
      "name": "purePremiums",
      "outputs": [
        {
          "internalType": "uint256",
          "name": "",
          "type": "uint256"
        }
      ],
      "stateMutability": "view",
      "type": "function"
    },
    {
      "inputs": [],
      "name": "rebalance",
      "outputs": [],
      "stateMutability": "nonpayable",
      "type": "function"
    },
    {
      "inputs": [
        {
          "internalType": "uint256",
          "name": "amount",
          "type": "uint256"
        }
      ],
      "name": "receiveGrant",
      "outputs": [],
      "stateMutability": "nonpayable",
      "type": "function"
    },
    {
      "inputs": [],
      "name": "recordEarnings",
      "outputs": [],
      "stateMutability": "nonpayable",
      "type": "function"
    },
    {
      "inputs": [],
      "name": "seniorEtk",
      "outputs": [
        {
          "internalType": "contract IEToken",
          "name": "",
          "type": "address"
        }
      ],
      "stateMutability": "view",
      "type": "function"
    },
    {
      "inputs": [
        {
          "internalType": "contract IAssetManager",
          "name": "newAM",
          "type": "address"
        },
        {
          "internalType": "bool",
          "name": "force",
          "type": "bool"
        }
      ],
      "name": "setAssetManager",
      "outputs": [],
      "stateMutability": "nonpayable",
      "type": "function"
    },
    {
      "inputs": [
        {
          "internalType": "uint256",
          "name": "newRatio",
          "type": "uint256"
        },
        {
          "internalType": "bool",
          "name": "adjustment",
          "type": "bool"
        }
      ],
      "name": "setDeficitRatio",
      "outputs": [],
      "stateMutability": "nonpayable",
      "type": "function"
    },
    {
      "inputs": [
        {
          "internalType": "uint256",
          "name": "newLimitJr",
          "type": "uint256"
        },
        {
          "internalType": "uint256",
          "name": "newLimitSr",
          "type": "uint256"
        }
      ],
      "name": "setLoanLimits",
      "outputs": [],
      "stateMutability": "nonpayable",
      "type": "function"
    },
    {
      "inputs": [],
      "name": "srLoanLimit",
      "outputs": [
        {
          "internalType": "uint256",
          "name": "",
          "type": "uint256"
        }
      ],
      "stateMutability": "view",
      "type": "function"
    },
    {
      "inputs": [
        {
          "internalType": "bytes4",
          "name": "interfaceId",
          "type": "bytes4"
        }
      ],
      "name": "supportsInterface",
      "outputs": [
        {
          "internalType": "bool",
          "name": "",
          "type": "bool"
        }
      ],
      "stateMutability": "view",
      "type": "function"
    },
    {
      "inputs": [],
      "name": "surplus",
      "outputs": [
        {
          "internalType": "int256",
          "name": "",
          "type": "int256"
        }
      ],
      "stateMutability": "view",
      "type": "function"
    },
    {
      "inputs": [],
      "name": "unpause",
      "outputs": [],
      "stateMutability": "nonpayable",
      "type": "function"
    },
    {
      "inputs": [
        {
          "internalType": "address",
          "name": "newImplementation",
          "type": "address"
        }
      ],
      "name": "upgradeTo",
      "outputs": [],
      "stateMutability": "nonpayable",
      "type": "function"
    },
    {
      "inputs": [
        {
          "internalType": "address",
          "name": "newImplementation",
          "type": "address"
        },
        {
          "internalType": "bytes",
          "name": "data",
          "type": "bytes"
        }
      ],
      "name": "upgradeToAndCall",
      "outputs": [],
      "stateMutability": "payable",
      "type": "function"
    },
    {
      "inputs": [
        {
          "internalType": "uint256",
          "name": "amount",
          "type": "uint256"
        },
        {
          "internalType": "address",
          "name": "destination",
          "type": "address"
        }
      ],
      "name": "withdrawWonPremiums",
      "outputs": [
        {
          "internalType": "uint256",
          "name": "",
          "type": "uint256"
        }
      ],
      "stateMutability": "nonpayable",
      "type": "function"
    },
    {
      "inputs": [],
      "name": "wonPurePremiums",
      "outputs": [
        {
          "internalType": "uint256",
          "name": "",
          "type": "uint256"
        }
      ],
      "stateMutability": "view",
      "type": "function"
    }
  ],
  "bytecode": "0x610120604052306080523480156200001657600080fd5b5060405162005324380380620053248339810160408190526200003991620002bc565b82806001600160a01b038116620000bd5760405162461bcd60e51b815260206004820152603660248201527f506f6c696379506f6f6c436f6d706f6e656e743a20706f6c696379506f6f6c2060448201527f63616e6e6f74206265207a65726f20616464726573730000000000000000000060648201526084015b60405180910390fd5b620000c7620001e4565b806001600160a01b031660a0816001600160a01b031681525050506002816001600160a01b031663e5a6b10f6040518163ffffffff1660e01b8152600401602060405180830381865afa15801562000123573d6000803e3d6000fd5b505050506040513d601f19601f8201168201806040525081019062000149919062000310565b6001600160a01b031663313ce5676040518163ffffffff1660e01b8152600401602060405180830381865afa15801562000187573d6000803e3d6000fd5b505050506040513d601f19601f82011682018060405250810190620001ad919062000337565b620001b9919062000372565b620001c690600a620004a2565b60c052506001600160a01b0391821660e052166101005250620004b3565b600054610100900460ff16156200024e5760405162461bcd60e51b815260206004820152602760248201527f496e697469616c697a61626c653a20636f6e747261637420697320696e697469604482015266616c697a696e6760c81b6064820152608401620000b4565b60005460ff9081161015620002a1576000805460ff191660ff9081179091556040519081527f7f26b83ff96e1f2b6a682f133852f6798a09c465da95921460cefb38474024989060200160405180910390a15b565b6001600160a01b0381168114620002b957600080fd5b50565b600080600060608486031215620002d257600080fd5b8351620002df81620002a3565b6020850151909350620002f281620002a3565b60408501519092506200030581620002a3565b809150509250925092565b6000602082840312156200032357600080fd5b81516200033081620002a3565b9392505050565b6000602082840312156200034a57600080fd5b815160ff811681146200033057600080fd5b634e487b7160e01b600052601160045260246000fd5b600060ff8316806200039457634e487b7160e01b600052601260045260246000fd5b8060ff84160491505092915050565b600181815b80851115620003e4578160001904821115620003c857620003c86200035c565b80851615620003d657918102915b93841c9390800290620003a8565b509250929050565b600082620003fd575060016200049c565b816200040c575060006200049c565b8160018114620004255760028114620004305762000450565b60019150506200049c565b60ff8411156200044457620004446200035c565b50506001821b6200049c565b5060208310610133831016604e8410600b841016171562000475575081810a6200049c565b620004818383620003a3565b80600019048211156200049857620004986200035c565b0290505b92915050565b60006200033060ff841683620003ec565b60805160a05160c05160e05161010051614cc0620006646000396000818161051301528181611183015281816111b6015281816116440152818161167701528181611aa401528181611ad70152818161203a01528181612570015281816125a301528181612afd01528181612ba60152818161320e0152818161372401526137c001526000818161049401528181610ea6015281816111df01528181611212015281816116a0015281816116d301528181611b0001528181611b3301528181611f9c015281816125cc015281816125ff015281816127a20152818161284a015281816128db0152818161297501528181612a080152818161314f015281816135ef015261368b015260008181612ab801528181612c1801528181612da601526133a00152600081816103db0152818161079101528181610a0201528181610c5b015281816112910152818161138c015281816115ba01528181611791015281816119e901528181611b8c01528181611f27015281816120d3015281816122740152613f220152600081816109040152818161094d01528181610b8801528181610bc80152610f0e0152614cc06000f3fe60806040526004361061023b5760003560e01c80635c975abb1161012e57806397a146c0116100ab578063d80359f11161006f578063d80359f1146106c6578063e3638ea3146106e6578063e5a6b10f14610706578063e823584a1461071b578063f67b2bad1461073057600080fd5b806397a146c0146106315780639d8c5ee714610651578063a0ce58b814610671578063c2c4c5c114610691578063c7a9c70d146106a657600080fd5b80638129fc1c116100f25780638129fc1c1461058e57806381ced71f146105a35780638456cb59146105c35780638ca23bc9146105d857806394217ad11461060c57600080fd5b80635c975abb146104ec5780637b83037b146105045780637bb62319146105375780637d7c2a1c1461054c5780637ed5acfa1461056157600080fd5b80634863c8b0116101bc57806350093f041161018057806350093f041461043b57806352d1902d1461045b578063536c9a4314610470578063536ebbfc146104855780635b494dd5146104b857600080fd5b80634863c8b0146103955780634a47a3e0146103aa5780634d15eb03146103cc5780634eb978a4146104135780634f1ef2861461042857600080fd5b806326ccbd221161020357806326ccbd22146102fa5780632d8f892a1461030f5780633659cfe6146103245780633f4ba83a14610346578063468a8c9f1461035b57600080fd5b806301ffc9a71461024057806313888565146102755780631a548a27146102955780631e9c4658146102ab57806324ea54f4146102d8575b600080fd5b34801561024c57600080fd5b5061026061025b3660046142fd565b610752565b60405190151581526020015b60405180910390f35b34801561028157600080fd5b5061012e545b60405190815260200161026c565b3480156102a157600080fd5b5061012d54610287565b3480156102b757600080fd5b506102cb6102c63660046143f4565b61077e565b60405161026c9190614479565b3480156102e457600080fd5b50610287600080516020614c6b83398151915281565b34801561030657600080fd5b506102876108a7565b34801561031b57600080fd5b506102876108c0565b34801561033057600080fd5b5061034461033f3660046144a1565b6108fa565b005b34801561035257600080fd5b506103446109e2565b34801561036757600080fd5b5060c9546040805164ffffffffff83168152600160281b90920466ffffffffffffff1660208301520161026c565b3480156103a157600080fd5b50610287610af2565b3480156103b657600080fd5b50610287600080516020614c4b83398151915281565b3480156103d857600080fd5b507f00000000000000000000000000000000000000000000000000000000000000005b6040516001600160a01b03909116815260200161026c565b34801561041f57600080fd5b50610344610b0e565b6103446104363660046144be565b610b7e565b34801561044757600080fd5b5061034461045636600461451c565b610c4a565b34801561046757600080fd5b50610287610f01565b34801561047c57600080fd5b50610287610fb4565b34801561049157600080fd5b507f00000000000000000000000000000000000000000000000000000000000000006103fb565b3480156104c457600080fd5b506102877f5ec196419322369c6bac572d883f4d990ae5ec82f7d93cdf89b85dbb05b63c2781565b3480156104f857600080fd5b5060975460ff16610260565b34801561051057600080fd5b507f00000000000000000000000000000000000000000000000000000000000000006103fb565b34801561054357600080fd5b50610287610fcf565b34801561055857600080fd5b50610344611002565b34801561056d57600080fd5b506105786201518081565b60405164ffffffffff909116815260200161026c565b34801561059a57600080fd5b50610344611051565b3480156105af57600080fd5b506103446105be36600461454c565b611161565b3480156105cf57600080fd5b50610344611280565b3480156105e457600080fd5b506102877fa23b11d346b90fc279e0a917152caf41f3c1247b12211b7cbc0e0e3f8b79405781565b34801561061857600080fd5b5061012f546201000090046001600160a01b03166103fb565b34801561063d57600080fd5b5061034461064c366004614565565b61137b565b34801561065d57600080fd5b5061034461066c366004614673565b6115b7565b34801561067d57600080fd5b5061028761068c3660046146b4565b61176c565b34801561069d57600080fd5b506103446119cc565b3480156106b257600080fd5b506103446106c13660046146d9565b6119e6565b3480156106d257600080fd5b506103446106e13660046146f6565b611b6c565b3480156106f257600080fd5b506103446107013660046146d9565b611f24565b34801561071257600080fd5b506103fb6120cf565b34801561072757600080fd5b50610287612153565b34801561073c57600080fd5b50610287600080516020614c0483398151915281565b600061075d82612173565b8061077857506001600160e01b03198216632dd9c4bb60e21b145b92915050565b6060600080516020614c4b8339815191527f00000000000000000000000000000000000000000000000000000000000000006001600160a01b03166371907f176040518163ffffffff1660e01b8152600401602060405180830381865afa1580156107ed573d6000803e3d6000fd5b505050506040513d601f19601f820116820180604052508101906108119190614724565b6001600160a01b0316635ff57d2030833360016040518563ffffffff1660e01b81526004016108439493929190614741565b60006040518083038186803b15801561085b57600080fd5b505afa15801561086f573d6000803e3d6000fd5b505050506108a08361089161012f546001600160a01b03620100009091041690565b6001600160a01b0316906121a9565b9392505050565b600061012e5461012d546108bb9190614781565b905090565b61012f54600090600160b01b900463ffffffff16156108f35761012f546108bb90600160b01b900463ffffffff166121ce565b5060001990565b6001600160a01b037f000000000000000000000000000000000000000000000000000000000000000016300361094b5760405162461bcd60e51b8152600401610942906147a9565b60405180910390fd5b7f00000000000000000000000000000000000000000000000000000000000000006001600160a01b0316610994600080516020614be4833981519152546001600160a01b031690565b6001600160a01b0316146109ba5760405162461bcd60e51b8152600401610942906147f5565b6109c381612254565b604080516000808252602082019092526109df91839190612361565b50565b600080516020614c6b833981519152600080516020614c048339815191527f00000000000000000000000000000000000000000000000000000000000000006001600160a01b03166371907f176040518163ffffffff1660e01b8152600401602060405180830381865afa158015610a5e573d6000803e3d6000fd5b505050506040513d601f19601f82011682018060405250810190610a829190614724565b6001600160a01b0316632b1cff1f3084843360016040518663ffffffff1660e01b8152600401610ab6959493929190614841565b60006040518083038186803b158015610ace57600080fd5b505afa158015610ae2573d6000803e3d6000fd5b50505050610aee6124cc565b5050565b61012f546000906108bb90655af3107a40009061ffff16614874565b610b1661251e565b6040805160048152602481019091526020810180516001600160e01b03166313ae5e2960e21b179052600090610b609061089161012f546001600160a01b03620100009091041690565b90506109df81806020019051810190610b799190614893565b612564565b6001600160a01b037f0000000000000000000000000000000000000000000000000000000000000000163003610bc65760405162461bcd60e51b8152600401610942906147a9565b7f00000000000000000000000000000000000000000000000000000000000000006001600160a01b0316610c0f600080516020614be4833981519152546001600160a01b031690565b6001600160a01b031614610c355760405162461bcd60e51b8152600401610942906147f5565b610c3e82612254565b610aee82826001612361565b600080516020614c4b8339815191527f00000000000000000000000000000000000000000000000000000000000000006001600160a01b03166371907f176040518163ffffffff1660e01b8152600401602060405180830381865afa158015610cb7573d6000803e3d6000fd5b505050506040513d601f19601f82011682018060405250810190610cdb9190614724565b6001600160a01b0316635ff57d2030833360016040518563ffffffff1660e01b8152600401610d0d9493929190614741565b60006040518083038186803b158015610d2557600080fd5b505afa158015610d39573d6000803e3d6000fd5b50505050670de0b6b3a7640000831115610d655760405162461bcd60e51b8152600401610942906148ac565b6000610d7f610d7a655af3107a4000866148f1565b612688565b905083610d96655af3107a400061ffff8416614874565b14610df55760405162461bcd60e51b815260206004820152602960248201527f56616c69646174696f6e3a206f6e6c7920757020746f203420646563696d616c6044820152681cc8185b1b1bddd95960ba1b6064820152608401610942565b6000610e00856126ef565b90508380610e1157508061012e5412155b610e6f5760405162461bcd60e51b815260206004820152602960248201527f56616c69646174696f6e3a20737572706c7573206d757374206265203e3d206d604482015268185e1119599a58da5d60ba1b6064820152608401610942565b61012e54602090821315610edb5760008261012e54610e8d90614913565b610e979190614781565b61012e8490559050610ed581307f00000000000000000000000000000000000000000000000000000000000000006001600160a01b03161515612709565b60219150505b61012f805461ffff191661ffff8516179055610ef981876000612c9f565b505050505050565b6000306001600160a01b037f00000000000000000000000000000000000000000000000000000000000000001614610fa15760405162461bcd60e51b815260206004820152603860248201527f555550535570677261646561626c653a206d757374206e6f742062652063616c60448201527f6c6564207468726f7567682064656c656761746563616c6c00000000000000006064820152608401610942565b50600080516020614be483398151915290565b60008061012e541215610fc75750600090565b5061012e5490565b61012f54600090600160d01b900463ffffffff16156108f35761012f546108bb90600160d01b900463ffffffff166121ce565b61100a61251e565b6040805160048152602481019091526020810180516001600160e01b0316631f5f0a8760e21b1790526109df9061089161012f546001600160a01b03620100009091041690565b600054610100900460ff16158080156110715750600054600160ff909116105b8061108b5750303b15801561108b575060005460ff166001145b6110ee5760405162461bcd60e51b815260206004820152602e60248201527f496e697469616c697a61626c653a20636f6e747261637420697320616c72656160448201526d191e481a5b9a5d1a585b1a5e995960921b6064820152608401610942565b6000805460ff191660011790558015611111576000805461ff0019166101001790555b611119612d00565b80156109df576000805461ff0019169055604051600181527f7f26b83ff96e1f2b6a682f133852f6798a09c465da95921460cefb38474024989060200160405180910390a150565b61118033308361116f6120cf565b6001600160a01b0316929190612d37565b807f00000000000000000000000000000000000000000000000000000000000000006001600160a01b0316156111dd576111da817f0000000000000000000000000000000000000000000000000000000000000000612da2565b90505b7f00000000000000000000000000000000000000000000000000000000000000006001600160a01b03161561123957611236817f0000000000000000000000000000000000000000000000000000000000000000612da2565b90505b61124281613058565b6040805160018152602081018490527fd60d524f1cae273480bb0a4ddfb992b6ac0b61c8e12ffbe2e4e31463f9e90199910160405180910390a15050565b600080516020614c6b8339815191527f00000000000000000000000000000000000000000000000000000000000000006001600160a01b03166371907f176040518163ffffffff1660e01b8152600401602060405180830381865afa1580156112ed573d6000803e3d6000fd5b505050506040513d601f19601f820116820180604052508101906113119190614724565b6001600160a01b0316635ff57d2030833360016040518563ffffffff1660e01b81526004016113439493929190614741565b60006040518083038186803b15801561135b57600080fd5b505afa15801561136f573d6000803e3d6000fd5b505050506109df61307e565b600080516020614c4b8339815191527f00000000000000000000000000000000000000000000000000000000000000006001600160a01b03166371907f176040518163ffffffff1660e01b8152600401602060405180830381865afa1580156113e8573d6000803e3d6000fd5b505050506040513d601f19601f8201168201806040525081019061140c9190614724565b6001600160a01b0316635ff57d2030833360016040518563ffffffff1660e01b815260040161143e9493929190614741565b60006040518083038186803b15801561145657600080fd5b505afa15801561146a573d6000803e3d6000fd5b50505050600019831461151057611480836130bb565b61012f805463ffffffff60b01b1916600160b01b63ffffffff9384168102919091179182905585926114b69291909104166121ce565b146115035760405162461bcd60e51b815260206004820152601f60248201527f56616c69646174696f6e3a206e6f20646563696d616c7320616c6c6f776564006044820152606401610942565b6115106022846000612c9f565b60001982146115b257611522826130bb565b61012f805463ffffffff60d01b1916600160d01b63ffffffff9384168102919091179182905584926115589291909104166121ce565b146115a55760405162461bcd60e51b815260206004820152601f60248201527f56616c69646174696f6e3a206e6f20646563696d616c7320616c6c6f776564006044820152606401610942565b6115b26023836000612c9f565b505050565b337f00000000000000000000000000000000000000000000000000000000000000006001600160a01b0316146115ff5760405162461bcd60e51b81526004016109429061492f565b61160761251e565b8160c0015161012d600082825461161e9190614970565b909155505060c0820151811161171c576000818360c001516116409190614970565b90507f00000000000000000000000000000000000000000000000000000000000000006001600160a01b03161561169e5761169b817f0000000000000000000000000000000000000000000000000000000000000000612da2565b90505b7f00000000000000000000000000000000000000000000000000000000000000006001600160a01b0316156116fa576116f7817f0000000000000000000000000000000000000000000000000000000000000000612da2565b90505b61170381613058565b61170c83613143565b6117168483613293565b50505050565b60006117368360c00151836117319190614970565b6133f0565b905061174183613143565b80156117595761175981856000866060015111612709565b611716846117678385614970565b613293565b60007fa23b11d346b90fc279e0a917152caf41f3c1247b12211b7cbc0e0e3f8b7940577f00000000000000000000000000000000000000000000000000000000000000006001600160a01b03166371907f176040518163ffffffff1660e01b8152600401602060405180830381865afa1580156117ed573d6000803e3d6000fd5b505050506040513d601f19601f820116820180604052508101906118119190614724565b6001600160a01b0316635ff57d2030833360016040518563ffffffff1660e01b81526004016118439493929190614741565b60006040518083038186803b15801561185b57600080fd5b505afa15801561186f573d6000803e3d6000fd5b5050506001600160a01b03841690506118f05760405162461bcd60e51b815260206004820152603760248201527f5072656d69756d734163636f756e743a2064657374696e6174696f6e2063616e60448201527f6e6f7420626520746865207a65726f20616464726573730000000000000000006064820152608401610942565b600061012e54136119045760009350611914565b6119118461012e54613449565b93505b600084116119645760405162461bcd60e51b815260206004820152601760248201527f4e6f207072656d69756d7320746f2077697468647261770000000000000000006044820152606401610942565b8361012e60008282546119779190614983565b9091555061198790508385613293565b6040805160008152602081018690527fd60d524f1cae273480bb0a4ddfb992b6ac0b61c8e12ffbe2e4e31463f9e90199910160405180910390a18391505b5092915050565b6119d461251e565b6119dc610b0e565b6119e4611002565b565b337f00000000000000000000000000000000000000000000000000000000000000006001600160a01b031614611a2e5760405162461bcd60e51b81526004016109429061492f565b611a3661251e565b60008160c0015190508061012d6000828254611a529190614970565b9091555060009050611a6a611a65610af2565b6126ef565b90508061012e541215611aa2578061012e54611a8590614913565b611a8f9190614781565b611a999083614970565b61012e82905591505b7f00000000000000000000000000000000000000000000000000000000000000006001600160a01b031615611afe57611afb827f0000000000000000000000000000000000000000000000000000000000000000612da2565b91505b7f00000000000000000000000000000000000000000000000000000000000000006001600160a01b031615611b5a57611b57827f0000000000000000000000000000000000000000000000000000000000000000612da2565b91505b611b6382613058565b6115b283613143565b600080516020614c6b833981519152600080516020614c048339815191527f00000000000000000000000000000000000000000000000000000000000000006001600160a01b03166371907f176040518163ffffffff1660e01b8152600401602060405180830381865afa158015611be8573d6000803e3d6000fd5b505050506040513d601f19601f82011682018060405250810190611c0c9190614724565b6001600160a01b0316632b1cff1f3084843360016040518663ffffffff1660e01b8152600401611c40959493929190614841565b60006040518083038186803b158015611c5857600080fd5b505afa158015611c6c573d6000803e3d6000fd5b505050506001600160a01b0384161580611cf057506040516301ffc9a760e01b8152631e670a9760e21b60048201526001600160a01b038516906301ffc9a790602401602060405180830381865afa158015611ccc573d6000803e3d6000fd5b505050506040513d601f19601f82011682018060405250810190611cf091906149a3565b611d64576040805162461bcd60e51b81526020600482015260248101919091527f526573657276653a206173736574206d616e6167657220646f65736e2774206960448201527f6d706c656d656e74732074686520726571756972656420696e746572666163656064820152608401610942565b61012f546201000090046001600160a01b031660028115611e94578415611e395760408051600481526024810182526020810180516001600160e01b031663cec16f3f60e01b179052905160009182916001600160a01b03861691611dc8916149c0565b600060405180830381855af49150503d8060008114611e03576040519150601f19603f3d011682016040523d82523d6000602084013e611e08565b606091505b509150915081611e1b5760039250611e32565b611e3281806020019051810190610b799190614893565b5050611e94565b6040805160048152602481019091526020810180516001600160e01b031663cec16f3f60e01b179052600090611e79906001600160a01b038516906121a9565b9050611e9281806020019051810190610b799190614893565b505b61012f805462010000600160b01b031916620100006001600160a01b0389160217905561012f546201000090046001600160a01b031691506001600160a01b03821615611f1a576040805160048152602481019091526020810180516001600160e01b031663948cb71960e01b179052611f18906001600160a01b038416906121a9565b505b610ef9818761345f565b337f00000000000000000000000000000000000000000000000000000000000000006001600160a01b031614611f6c5760405162461bcd60e51b81526004016109429061492f565b611f7461251e565b8060c0015161012d6000828254611f8b91906149dc565b909155505060608101511561202e577f00000000000000000000000000000000000000000000000000000000000000006001600160a01b031663837c83a38260600151611fd7846134b9565b6040516001600160e01b031960e085901b16815260048101929092526024820152604401600060405180830381600087803b15801561201557600080fd5b505af1158015612029573d6000803e3d6000fd5b505050505b6080810151156109df577f00000000000000000000000000000000000000000000000000000000000000006001600160a01b031663837c83a3826080015161207584613505565b6040516001600160e01b031960e085901b168152600481019290925260248201526044015b600060405180830381600087803b1580156120b457600080fd5b505af11580156120c8573d6000803e3d6000fd5b5050505050565b60007f00000000000000000000000000000000000000000000000000000000000000006001600160a01b031663e5a6b10f6040518163ffffffff1660e01b8152600401602060405180830381865afa15801561212f573d6000803e3d6000fd5b505050506040513d601f19601f820116820180604052508101906108bb9190614724565b60008061012e54121561216d5761012e546108bb90614913565b50600090565b60006001600160e01b031982166301ffc9a760e01b148061077857506001600160e01b03198216634d15eb0360e01b1492915050565b60606108a08383604051806060016040528060278152602001614c2460279139613541565b60006121d86120cf565b6001600160a01b031663313ce5676040518163ffffffff1660e01b8152600401602060405180830381865afa158015612215573d6000803e3d6000fd5b505050506040513d601f19601f8201168201806040525081019061223991906149ef565b61224490600a614af6565b6107789063ffffffff8416614874565b600080516020614c6b833981519152600080516020614c048339815191527f00000000000000000000000000000000000000000000000000000000000000006001600160a01b03166371907f176040518163ffffffff1660e01b8152600401602060405180830381865afa1580156122d0573d6000803e3d6000fd5b505050506040513d601f19601f820116820180604052508101906122f49190614724565b6001600160a01b0316632b1cff1f3084843360016040518663ffffffff1660e01b8152600401612328959493929190614841565b60006040518083038186803b15801561234057600080fd5b505afa158015612354573d6000803e3d6000fd5b505050506115b2836135df565b7f4910fdfa16fed3260ed0e7147f7cc6da11a60208b5b9406d12a635614ffd91435460ff1615612394576115b283613857565b826001600160a01b03166352d1902d6040518163ffffffff1660e01b8152600401602060405180830381865afa9250505080156123ee575060408051601f3d908101601f191682019092526123eb91810190614893565b60015b6124515760405162461bcd60e51b815260206004820152602e60248201527f45524331393637557067726164653a206e657720696d706c656d656e7461746960448201526d6f6e206973206e6f74205555505360901b6064820152608401610942565b600080516020614be483398151915281146124c05760405162461bcd60e51b815260206004820152602960248201527f45524331393637557067726164653a20756e737570706f727465642070726f786044820152681a58589b195555525160ba1b6064820152608401610942565b506115b28383836138f3565b6124d4613918565b6097805460ff191690557f5db9ee0a495bf2e6ff9c91a7834c1ba4fdd244a5e8aa4e537bd38aeae4b073aa335b6040516001600160a01b03909116815260200160405180910390a1565b60975460ff16156119e45760405162461bcd60e51b815260206004820152601060248201526f14185d5cd8589b194e881c185d5cd95960821b6044820152606401610942565b600081131561262f57807f00000000000000000000000000000000000000000000000000000000000000006001600160a01b0316156125ca576125c7817f0000000000000000000000000000000000000000000000000000000000000000612da2565b90505b7f00000000000000000000000000000000000000000000000000000000000000006001600160a01b03161561262657612623817f0000000000000000000000000000000000000000000000000000000000000000612da2565b90505b610aee81613058565b61263b61173182614913565b156109df5760405162461bcd60e51b815260206004820152601e60248201527f4c6f737365732063616e277420657863656564206d61784465666963697400006044820152606401610942565b600061ffff8211156126eb5760405162461bcd60e51b815260206004820152602660248201527f53616665436173743a2076616c756520646f65736e27742066697420696e203160448201526536206269747360d01b6064820152608401610942565b5090565b61012d546000906127009083613961565b61077890614913565b6001600160a01b03821661277c5760405162461bcd60e51b815260206004820152603460248201527f5072656d69756d734163636f756e743a2072656365697665722063616e6e6f7460448201527320626520746865207a65726f206164647265737360601b6064820152608401610942565b828115612ab65761278b6108c0565b6040516333481fc960e01b815230600482015285907f00000000000000000000000000000000000000000000000000000000000000006001600160a01b0316906333481fc990602401602060405180830381865afa1580156127f1573d6000803e3d6000fd5b505050506040513d601f19601f820116820180604052508101906128159190614893565b61281f91906149dc565b116128be576040516330f7e76b60e21b8152600481018590526001600160a01b0384811660248301527f0000000000000000000000000000000000000000000000000000000000000000169063c3df9dac906044016020604051808303816000875af1158015612893573d6000803e3d6000fd5b505050506040513d601f19601f820116820180604052508101906128b79190614893565b9050612ab6565b6128c66108c0565b6040516333481fc960e01b81523060048201527f00000000000000000000000000000000000000000000000000000000000000006001600160a01b0316906333481fc990602401602060405180830381865afa15801561292a573d6000803e3d6000fd5b505050506040513d601f19601f8201168201806040525081019061294e9190614893565b1015612ab657600061295e6108c0565b6040516333481fc960e01b815230600482015286907f00000000000000000000000000000000000000000000000000000000000000006001600160a01b0316906333481fc990602401602060405180830381865afa1580156129c4573d6000803e3d6000fd5b505050506040513d601f19601f820116820180604052508101906129e89190614893565b6129f291906149dc565b6129fc9190614970565b90506001600160a01b037f00000000000000000000000000000000000000000000000000000000000000001663c3df9dac612a378388614970565b6040516001600160e01b031960e084901b16815260048101919091526001600160a01b03871660248201526044016020604051808303816000875af1158015612a84573d6000803e3d6000fd5b505050506040513d601f19601f82011682018060405250810190612aa89190614893565b612ab290826149dc565b9150505b7f000000000000000000000000000000000000000000000000000000000000000081111561171657612ae6610fcf565b6040516333481fc960e01b815230600482015282907f00000000000000000000000000000000000000000000000000000000000000006001600160a01b0316906333481fc990602401602060405180830381865afa158015612b4c573d6000803e3d6000fd5b505050506040513d601f19601f82011682018060405250810190612b709190614893565b612b7a91906149dc565b1015612c16576040516330f7e76b60e21b8152600481018290526001600160a01b0384811660248301527f0000000000000000000000000000000000000000000000000000000000000000169063c3df9dac906044016020604051808303816000875af1158015612bef573d6000803e3d6000fd5b505050506040513d601f19601f82011682018060405250810190612c139190614893565b90505b7f00000000000000000000000000000000000000000000000000000000000000008111156117165760405162461bcd60e51b815260206004820152603060248201527f446f6e2774206b6e6f7720776865726520746f20736f7572636520746865207260448201526f657374206f6620746865206d6f6e657960801b6064820152608401610942565b612ca7613999565b8015612cb657612cb6836139ce565b82602d811115612cc857612cc8614b05565b6040518381527f7bc647fe5043209e2019aa3503b79c1b0dd83eb61c56013d373a7584ff6bfb139060200160405180910390a2505050565b600054610100900460ff16612d275760405162461bcd60e51b815260040161094290614b1b565b612d2f613b3a565b6119e4613b69565b6040516001600160a01b03808516602483015283166044820152606481018290526117169085906323b872dd60e01b906084015b60408051601f198184030181529190526020810180516001600160e01b03166001600160e01b031990931692909217909152613bd4565b60007f0000000000000000000000000000000000000000000000000000000000000000831015612dd3575081610778565b6040516333481fc960e01b81523060048201526000906001600160a01b038416906333481fc990602401602060405180830381865afa158015612e1a573d6000803e3d6000fd5b505050506040513d601f19601f82011682018060405250810190612e3e9190614893565b905080600003612e515783915050610778565b6000612e5d8583613449565b905080612e686120cf565b6040516370a0823160e01b81523060048201526001600160a01b0391909116906370a0823190602401602060405180830381865afa158015612eae573d6000803e3d6000fd5b505050506040513d601f19601f82011682018060405250810190612ed29190614893565b1015612ee357612ee181613ca6565b505b80612eec6120cf565b604051636eb1769f60e11b81523060048201526001600160a01b038781166024830152919091169063dd62ed3e90604401602060405180830381865afa158015612f3a573d6000803e3d6000fd5b505050506040513d601f19601f82011682018060405250810190612f5e9190614893565b1015612fe357612f6c6120cf565b60405163095ea7b360e01b81526001600160a01b03868116600483015260248201859052919091169063095ea7b3906044016020604051808303816000875af1158015612fbd573d6000803e3d6000fd5b505050506040513d601f19601f82011682018060405250810190612fe191906149a3565b505b60405163918344d360e01b8152600481018290523060248201526001600160a01b0385169063918344d390604401600060405180830381600087803b15801561302b57600080fd5b505af115801561303f573d6000803e3d6000fd5b50505050808561304f9190614970565b95945050505050565b806000036130635750565b8061012e60008282546130769190614781565b909155505050565b61308661251e565b6097805460ff191660011790557f62e78cea01bee320cd4e420270b5ea74000d11b0c9f74754ebdbfc544b05a2586125013390565b60006107786130c86120cf565b6001600160a01b031663313ce5676040518163ffffffff1660e01b8152600401602060405180830381865afa158015613105573d6000803e3d6000fd5b505050506040513d601f19601f8201168201806040525081019061312991906149ef565b61313490600a614af6565b61313e90846148f1565b613d83565b606081015115613202577f00000000000000000000000000000000000000000000000000000000000000006001600160a01b031663b1081ccf826060015161318a846134b9565b61319385613de8565b8561012001516131a39190614983565b6040516001600160e01b031960e086901b168152600481019390935260248301919091526044820152606401600060405180830381600087803b1580156131e957600080fd5b505af11580156131fd573d6000803e3d6000fd5b505050505b6080810151156109df577f00000000000000000000000000000000000000000000000000000000000000006001600160a01b031663b1081ccf826080015161324984613505565b61325285613e39565b8561014001516132629190614983565b6040516001600160e01b031960e086901b16815260048101939093526024830191909152604482015260640161209a565b6001600160a01b0382166132f75760405162461bcd60e51b815260206004820152602560248201527f526573657276653a207472616e7366657220746f20746865207a65726f206164604482015264647265737360d81b6064820152608401610942565b80600003613303575050565b600061330d6120cf565b6040516370a0823160e01b81523060048201526001600160a01b0391909116906370a0823190602401602060405180830381865afa158015613353573d6000803e3d6000fd5b505050506040513d601f19601f820116820180604052508101906133779190614893565b9050818110156133d35761338a82613ca6565b61339490826149dc565b9050808211156133d3577f00000000000000000000000000000000000000000000000000000000000000006133c98284614970565b10156133d3578091505b6115b283836133e06120cf565b6001600160a01b03169190613e80565b6000808261012e546134029190614983565b90506000613411611a65610af2565b9050808212613427575061012e55506000919050565b61012e8190558061343783614913565b6134419190614781565b949350505050565b600081831061345857816108a0565b5090919050565b613467613999565b81602d81111561347957613479614b05565b6040516001600160a01b03831681527fb6bdbd44472629fc24a00b6f4ee3348b72c9eff333d0e9c16d78c49da1323c8f9060200160405180910390a25050565b60006107788260600151836101800151846101a001516134d99190614b66565b64ffffffffff166301e133808561012001516134f59190614874565b6134ff91906148f1565b90613eb0565b60006107788260800151836101800151846101a001516135259190614b66565b64ffffffffff166301e133808561014001516134f59190614874565b60606001600160a01b0384163b61356a5760405162461bcd60e51b815260040161094290614b84565b600080856001600160a01b03168560405161358591906149c0565b600060405180830381855af49150503d80600081146135c0576040519150601f19603f3d011682016040523d82523d6000602084013e6135c5565b606091505b50915091506135d5828286613ee7565b9695505050505050565b6135e881613f20565b60008190507f00000000000000000000000000000000000000000000000000000000000000006001600160a01b0316816001600160a01b031663536ebbfc6040518163ffffffff1660e01b8152600401602060405180830381865afa158015613655573d6000803e3d6000fd5b505050506040513d601f19601f820116820180604052508101906136799190614724565b6001600160a01b031614806136b557507f00000000000000000000000000000000000000000000000000000000000000006001600160a01b0316155b6137225760405162461bcd60e51b815260206004820152603860248201527f43616e27742075706772616465206368616e67696e6720746865204a756e696f604482015277722045544b20756e6c65737320746f206e6f6e2d7a65726f60401b6064820152608401610942565b7f00000000000000000000000000000000000000000000000000000000000000006001600160a01b0316816001600160a01b0316637b83037b6040518163ffffffff1660e01b8152600401602060405180830381865afa15801561378a573d6000803e3d6000fd5b505050506040513d601f19601f820116820180604052508101906137ae9190614724565b6001600160a01b031614806137ea57507f00000000000000000000000000000000000000000000000000000000000000006001600160a01b0316155b610aee5760405162461bcd60e51b815260206004820152603860248201527f43616e27742075706772616465206368616e67696e67207468652053656e696f604482015277722045544b20756e6c65737320746f206e6f6e2d7a65726f60401b6064820152608401610942565b6001600160a01b0381163b6138c45760405162461bcd60e51b815260206004820152602d60248201527f455243313936373a206e657720696d706c656d656e746174696f6e206973206e60448201526c1bdd08184818dbdb9d1c9858dd609a1b6064820152608401610942565b600080516020614be483398151915280546001600160a01b0319166001600160a01b0392909216919091179055565b6138fc83614011565b6000825111806139095750805b156115b2576117168383614051565b60975460ff166119e45760405162461bcd60e51b815260206004820152601460248201527314185d5cd8589b194e881b9bdd081c185d5cd95960621b6044820152606401610942565b600081156706f05b59d3b20000198390048411151761397f57600080fd5b50670de0b6b3a764000091026706f05b59d3b20000010490565b61012f5461271061ffff909116118015906139b2575060015b6119e45760405162461bcd60e51b8152600401610942906148ac565b6000600182602d8111156139e4576139e4614b05565b6139ee9190614bca565b60c954600160ff929092169190911b91506201518090613a159064ffffffffff1642614b66565b64ffffffffff161115613a575760c9805466ffffffffffffff8316600160281b026bffffffffffffffffffffffff1990911664ffffffffff4216171790555050565b60c954600160281b9004811666ffffffffffffff16600003613abc5760c9805464ffffffffff421664ffffffffff1966ffffffffffffff808616600160281b808604929092161702166bffffffffffffffffffffffff19909216919091171790555050565b60405162461bcd60e51b815260206004820152604760248201527f596f7520616c726561647920747765616b6564207468697320706172616d657460448201527f657220726563656e746c792e2057616974206265666f726520747765616b696e606482015266339030b3b0b4b760c91b608482015260a401610942565b600054610100900460ff16613b615760405162461bcd60e51b815260040161094290614b1b565b6119e46140fd565b600054610100900460ff16613b905760405162461bcd60e51b815260040161094290614b1b565b6040805160808101825261271080825260006020830181905292820183905260609091019190915261012f80546001600160f01b03191690911790556119e4613999565b6000613c29826040518060400160405280602081526020017f5361666545524332303a206c6f772d6c6576656c2063616c6c206661696c6564815250856001600160a01b03166141349092919063ffffffff16565b8051909150156115b25780806020019051810190613c4791906149a3565b6115b25760405162461bcd60e51b815260206004820152602a60248201527f5361666545524332303a204552433230206f7065726174696f6e20646964206e6044820152691bdd081cdd58d8d9595960b21b6064820152608401610942565b600080613cc361012f546001600160a01b03620100009091041690565b90506001600160a01b03811615613d7a576000613d64631014a0c260e01b85604051602401613cf491815260200190565b60408051601f19818403018152918152602080830180516001600160e01b03166001600160e01b03199095169490941790935280518082019091526016815275115c9c9bdc881c99599a5b1b1a5b99c81dd85b1b195d60521b928101929092526001600160a01b03851691613541565b9050808060200190518101906134419190614893565b50600092915050565b600063ffffffff8211156126eb5760405162461bcd60e51b815260206004820152602660248201527f53616665436173743a2076616c756520646f65736e27742066697420696e203360448201526532206269747360d01b6064820152608401610942565b6000816101800151826101a00151613e009190614b66565b64ffffffffff1682610180015164ffffffffff1642613e1f9190614970565b836101200151613e2f9190614874565b61077891906148f1565b6000816101800151826101a00151613e519190614b66565b64ffffffffff1682610180015164ffffffffff1642613e709190614970565b836101400151613e2f9190614874565b6040516001600160a01b0383166024820152604481018290526115b290849063a9059cbb60e01b90606401612d6b565b60008115670de0b6b3a764000060028404190484111715613ed057600080fd5b50670de0b6b3a76400009190910260028204010490565b60608315613ef65750816108a0565b825115613f065782518084602001fd5b8160405162461bcd60e51b81526004016109429190614479565b7f00000000000000000000000000000000000000000000000000000000000000006001600160a01b0316816001600160a01b0316634d15eb036040518163ffffffff1660e01b8152600401602060405180830381865afa158015613f88573d6000803e3d6000fd5b505050506040513d601f19601f82011682018060405250810190613fac9190614724565b6001600160a01b0316146109df5760405162461bcd60e51b815260206004820152602660248201527f43616e27742075706772616465206368616e67696e672074686520506f6c696360448201526579506f6f6c2160d01b6064820152608401610942565b61401a81613857565b6040516001600160a01b038216907fbc7cd75a20ee27fd9adebab32041f755214dbc6bffa90cc0225b39da2e5c2d3b90600090a250565b60606001600160a01b0383163b61407a5760405162461bcd60e51b815260040161094290614b84565b600080846001600160a01b03168460405161409591906149c0565b600060405180830381855af49150503d80600081146140d0576040519150601f19603f3d011682016040523d82523d6000602084013e6140d5565b606091505b509150915061304f8282604051806060016040528060278152602001614c2460279139613ee7565b600054610100900460ff166141245760405162461bcd60e51b815260040161094290614b1b565b61412c614143565b6119e461416a565b60606134418484600085614199565b600054610100900460ff166119e45760405162461bcd60e51b815260040161094290614b1b565b600054610100900460ff166141915760405162461bcd60e51b815260040161094290614b1b565b6119e46142ca565b6060824710156141fa5760405162461bcd60e51b815260206004820152602660248201527f416464726573733a20696e73756666696369656e742062616c616e636520666f6044820152651c8818d85b1b60d21b6064820152608401610942565b6001600160a01b0385163b6142515760405162461bcd60e51b815260206004820152601d60248201527f416464726573733a2063616c6c20746f206e6f6e2d636f6e74726163740000006044820152606401610942565b600080866001600160a01b0316858760405161426d91906149c0565b60006040518083038185875af1925050503d80600081146142aa576040519150601f19603f3d011682016040523d82523d6000602084013e6142af565b606091505b50915091506142bf828286613ee7565b979650505050505050565b600054610100900460ff166142f15760405162461bcd60e51b815260040161094290614b1b565b6097805460ff19169055565b60006020828403121561430f57600080fd5b81356001600160e01b0319811681146108a057600080fd5b634e487b7160e01b600052604160045260246000fd5b6040516101c0810167ffffffffffffffff8111828210171561436157614361614327565b60405290565b600082601f83011261437857600080fd5b813567ffffffffffffffff8082111561439357614393614327565b604051601f8301601f19908116603f011681019082821181831017156143bb576143bb614327565b816040528381528660208588010111156143d457600080fd5b836020870160208301376000602085830101528094505050505092915050565b60006020828403121561440657600080fd5b813567ffffffffffffffff81111561441d57600080fd5b61344184828501614367565b60005b8381101561444457818101518382015260200161442c565b50506000910152565b60008151808452614465816020860160208601614429565b601f01601f19169290920160200192915050565b6020815260006108a0602083018461444d565b6001600160a01b03811681146109df57600080fd5b6000602082840312156144b357600080fd5b81356108a08161448c565b600080604083850312156144d157600080fd5b82356144dc8161448c565b9150602083013567ffffffffffffffff8111156144f857600080fd5b61450485828601614367565b9150509250929050565b80151581146109df57600080fd5b6000806040838503121561452f57600080fd5b8235915060208301356145418161450e565b809150509250929050565b60006020828403121561455e57600080fd5b5035919050565b6000806040838503121561457857600080fd5b50508035926020909101359150565b80356145928161448c565b919050565b803564ffffffffff8116811461459257600080fd5b60006101c082840312156145bf57600080fd5b6145c761433d565b9050813581526020820135602082015260408201356040820152606082013560608201526080820135608082015260a082013560a082015260c082013560c082015260e082013560e0820152610100808301358183015250610120808301358183015250610140808301358183015250610160614645818401614587565b90820152610180614657838201614597565b908201526101a0614669838201614597565b9082015292915050565b6000806000610200848603121561468957600080fd5b83356146948161448c565b92506146a385602086016145ac565b91506101e084013590509250925092565b600080604083850312156146c757600080fd5b8235915060208301356145418161448c565b60006101c082840312156146ec57600080fd5b6108a083836145ac565b6000806040838503121561470957600080fd5b82356147148161448c565b915060208301356145418161450e565b60006020828403121561473657600080fd5b81516108a08161448c565b6001600160a01b039485168152602081019390935292166040820152901515606082015260800190565b634e487b7160e01b600052601160045260246000fd5b80820182811260008312801582168215821617156147a1576147a161476b565b505092915050565b6020808252602c908201527f46756e6374696f6e206d7573742062652063616c6c6564207468726f7567682060408201526b19195b1959d85d1958d85b1b60a21b606082015260800190565b6020808252602c908201527f46756e6374696f6e206d7573742062652063616c6c6564207468726f7567682060408201526b6163746976652070726f787960a01b606082015260800190565b6001600160a01b039586168152602081019490945260408401929092529092166060820152901515608082015260a00190565b600081600019048311821515161561488e5761488e61476b565b500290565b6000602082840312156148a557600080fd5b5051919050565b60208082526025908201527f56616c69646174696f6e3a2064656669636974526174696f206d757374206265604082015264203c3d203160d81b606082015260800190565b60008261490e57634e487b7160e01b600052601260045260246000fd5b500490565b6000600160ff1b82016149285761492861476b565b5060000390565b60208082526021908201527f5468652063616c6c6572206d7573742062652074686520506f6c696379506f6f6040820152601b60fa1b606082015260800190565b818103818111156107785761077861476b565b81810360008312801583831316838312821617156119c5576119c561476b565b6000602082840312156149b557600080fd5b81516108a08161450e565b600082516149d2818460208701614429565b9190910192915050565b808201808211156107785761077861476b565b600060208284031215614a0157600080fd5b815160ff811681146108a057600080fd5b600181815b80851115614a4d578160001904821115614a3357614a3361476b565b80851615614a4057918102915b93841c9390800290614a17565b509250929050565b600082614a6457506001610778565b81614a7157506000610778565b8160018114614a875760028114614a9157614aad565b6001915050610778565b60ff841115614aa257614aa261476b565b50506001821b610778565b5060208310610133831016604e8410600b8410161715614ad0575081810a610778565b614ada8383614a12565b8060001904821115614aee57614aee61476b565b029392505050565b60006108a060ff841683614a55565b634e487b7160e01b600052602160045260246000fd5b6020808252602b908201527f496e697469616c697a61626c653a20636f6e7472616374206973206e6f74206960408201526a6e697469616c697a696e6760a81b606082015260800190565b64ffffffffff8281168282160390808211156119c5576119c561476b565b60208082526026908201527f416464726573733a2064656c65676174652063616c6c20746f206e6f6e2d636f6040820152651b9d1c9858dd60d21b606082015260800190565b60ff82811682821603908111156107785761077861476b56fe360894a13ba1a3210667c828492db98dca3e2076cc3735a920a3ca505d382bbcbf372ca3ebecfe59ac256f17697941bbe63302aced610e8b0e3646f743c7beb2416464726573733a206c6f772d6c6576656c2064656c65676174652063616c6c206661696c6564a82e22387fca439f316d78ca566f383218ab8ae1b3e830178c9c82cbd16749c055435dd261a4b9b3364963f7738a7a662ad9c84396d64be3365284bb7f0a5041a264697066735822122093ccbea219ec7f9609140902b2f363c97b1377b6fddfbf124078255b859c975f64736f6c63430008100033",
  "linkReferences": {},
  "deployedLinkReferences": {}
}