{
  "_format": "hh-sol-artifact-1",
  "contractName": "SignedQuoteRiskModule",
  "sourceName": "contracts/SignedQuoteRiskModule.sol",
  "abi": [
    {
      "inputs": [
        {
          "internalType": "contract IPolicyPool",
          "name": "policyPool_",
          "type": "address"
        },
        {
          "internalType": "contract IPremiumsAccount",
          "name": "premiumsAccount_",
          "type": "address"
        },
        {
          "internalType": "bool",
          "name": "creationIsOpen_",
          "type": "bool"
        }
      ],
      "stateMutability": "nonpayable",
      "type": "constructor"
    },
    {
      "anonymous": false,
      "inputs": [
        {
          "indexed": false,
          "internalType": "address",
          "name": "previousAdmin",
          "type": "address"
        },
        {
          "indexed": false,
          "internalType": "address",
          "name": "newAdmin",
          "type": "address"
        }
      ],
      "name": "AdminChanged",
      "type": "event"
    },
    {
      "anonymous": false,
      "inputs": [
        {
          "indexed": true,
          "internalType": "address",
          "name": "beacon",
          "type": "address"
        }
      ],
      "name": "BeaconUpgraded",
      "type": "event"
    },
    {
      "anonymous": false,
      "inputs": [
        {
          "indexed": true,
          "internalType": "enum IAccessManager.GovernanceActions",
          "name": "action",
          "type": "uint8"
        },
        {
          "indexed": false,
          "internalType": "address",
          "name": "value",
          "type": "address"
        }
      ],
      "name": "ComponentChanged",
      "type": "event"
    },
    {
      "anonymous": false,
      "inputs": [
        {
          "indexed": true,
          "internalType": "enum IAccessManager.GovernanceActions",
          "name": "action",
          "type": "uint8"
        },
        {
          "indexed": false,
          "internalType": "uint256",
          "name": "value",
          "type": "uint256"
        }
      ],
      "name": "GovernanceAction",
      "type": "event"
    },
    {
      "anonymous": false,
      "inputs": [
        {
          "indexed": false,
          "internalType": "uint8",
          "name": "version",
          "type": "uint8"
        }
      ],
      "name": "Initialized",
      "type": "event"
    },
    {
      "anonymous": false,
      "inputs": [
        {
          "indexed": true,
          "internalType": "uint256",
          "name": "policyId",
          "type": "uint256"
        },
        {
          "indexed": false,
          "internalType": "bytes32",
          "name": "policyData",
          "type": "bytes32"
        }
      ],
      "name": "NewSignedPolicy",
      "type": "event"
    },
    {
      "anonymous": false,
      "inputs": [
        {
          "indexed": false,
          "internalType": "address",
          "name": "account",
          "type": "address"
        }
      ],
      "name": "Paused",
      "type": "event"
    },
    {
      "anonymous": false,
      "inputs": [
        {
          "indexed": false,
          "internalType": "address",
          "name": "account",
          "type": "address"
        }
      ],
      "name": "Unpaused",
      "type": "event"
    },
    {
      "anonymous": false,
      "inputs": [
        {
          "indexed": true,
          "internalType": "address",
          "name": "implementation",
          "type": "address"
        }
      ],
      "name": "Upgraded",
      "type": "event"
    },
    {
      "inputs": [],
      "name": "GUARDIAN_ROLE",
      "outputs": [
        {
          "internalType": "bytes32",
          "name": "",
          "type": "bytes32"
        }
      ],
      "stateMutability": "view",
      "type": "function"
    },
    {
      "inputs": [],
      "name": "LEVEL1_ROLE",
      "outputs": [
        {
          "internalType": "bytes32",
          "name": "",
          "type": "bytes32"
        }
      ],
      "stateMutability": "view",
      "type": "function"
    },
    {
      "inputs": [],
      "name": "LEVEL2_ROLE",
      "outputs": [
        {
          "internalType": "bytes32",
          "name": "",
          "type": "bytes32"
        }
      ],
      "stateMutability": "view",
      "type": "function"
    },
    {
      "inputs": [],
      "name": "LEVEL3_ROLE",
      "outputs": [
        {
          "internalType": "bytes32",
          "name": "",
          "type": "bytes32"
        }
      ],
      "stateMutability": "view",
      "type": "function"
    },
    {
      "inputs": [],
      "name": "POLICY_CREATOR_ROLE",
      "outputs": [
        {
          "internalType": "bytes32",
          "name": "",
          "type": "bytes32"
        }
      ],
      "stateMutability": "view",
      "type": "function"
    },
    {
      "inputs": [],
      "name": "PRICER_ROLE",
      "outputs": [
        {
          "internalType": "bytes32",
          "name": "",
          "type": "bytes32"
        }
      ],
      "stateMutability": "view",
      "type": "function"
    },
    {
      "inputs": [],
      "name": "RESOLVER_ROLE",
      "outputs": [
        {
          "internalType": "bytes32",
          "name": "",
          "type": "bytes32"
        }
      ],
      "stateMutability": "view",
      "type": "function"
    },
    {
      "inputs": [],
      "name": "RM_PROVIDER_ROLE",
      "outputs": [
        {
          "internalType": "bytes32",
          "name": "",
          "type": "bytes32"
        }
      ],
      "stateMutability": "view",
      "type": "function"
    },
    {
      "inputs": [],
      "name": "TWEAK_EXPIRATION",
      "outputs": [
        {
          "internalType": "uint40",
          "name": "",
          "type": "uint40"
        }
      ],
      "stateMutability": "view",
      "type": "function"
    },
    {
      "inputs": [],
      "name": "activeExposure",
      "outputs": [
        {
          "internalType": "uint256",
          "name": "",
          "type": "uint256"
        }
      ],
      "stateMutability": "view",
      "type": "function"
    },
    {
      "inputs": [],
      "name": "currency",
      "outputs": [
        {
          "internalType": "contract IERC20Metadata",
          "name": "",
          "type": "address"
        }
      ],
      "stateMutability": "view",
      "type": "function"
    },
    {
      "inputs": [],
      "name": "exposureLimit",
      "outputs": [
        {
          "internalType": "uint256",
          "name": "",
          "type": "uint256"
        }
      ],
      "stateMutability": "view",
      "type": "function"
    },
    {
      "inputs": [
        {
          "internalType": "uint256",
          "name": "payout",
          "type": "uint256"
        },
        {
          "internalType": "uint256",
          "name": "lossProb",
          "type": "uint256"
        },
        {
          "internalType": "uint40",
          "name": "expiration",
          "type": "uint40"
        }
      ],
      "name": "getMinimumPremium",
      "outputs": [
        {
          "internalType": "uint256",
          "name": "",
          "type": "uint256"
        }
      ],
      "stateMutability": "view",
      "type": "function"
    },
    {
      "inputs": [
        {
          "internalType": "string",
          "name": "name_",
          "type": "string"
        },
        {
          "internalType": "uint256",
          "name": "collRatio_",
          "type": "uint256"
        },
        {
          "internalType": "uint256",
          "name": "ensuroPpFee_",
          "type": "uint256"
        },
        {
          "internalType": "uint256",
          "name": "srRoc_",
          "type": "uint256"
        },
        {
          "internalType": "uint256",
          "name": "maxPayoutPerPolicy_",
          "type": "uint256"
        },
        {
          "internalType": "uint256",
          "name": "exposureLimit_",
          "type": "uint256"
        },
        {
          "internalType": "address",
          "name": "wallet_",
          "type": "address"
        }
      ],
      "name": "initialize",
      "outputs": [],
      "stateMutability": "nonpayable",
      "type": "function"
    },
    {
      "inputs": [],
      "name": "lastTweak",
      "outputs": [
        {
          "internalType": "uint40",
          "name": "",
          "type": "uint40"
        },
        {
          "internalType": "uint56",
          "name": "",
          "type": "uint56"
        }
      ],
      "stateMutability": "view",
      "type": "function"
    },
    {
      "inputs": [],
      "name": "maxDuration",
      "outputs": [
        {
          "internalType": "uint256",
          "name": "",
          "type": "uint256"
        }
      ],
      "stateMutability": "view",
      "type": "function"
    },
    {
      "inputs": [],
      "name": "maxPayoutPerPolicy",
      "outputs": [
        {
          "internalType": "uint256",
          "name": "",
          "type": "uint256"
        }
      ],
      "stateMutability": "view",
      "type": "function"
    },
    {
      "inputs": [],
      "name": "name",
      "outputs": [
        {
          "internalType": "string",
          "name": "",
          "type": "string"
        }
      ],
      "stateMutability": "view",
      "type": "function"
    },
    {
      "inputs": [
        {
          "internalType": "uint256",
          "name": "payout",
          "type": "uint256"
        },
        {
          "internalType": "uint256",
          "name": "premium",
          "type": "uint256"
        },
        {
          "internalType": "uint256",
          "name": "lossProb",
          "type": "uint256"
        },
        {
          "internalType": "uint40",
          "name": "expiration",
          "type": "uint40"
        },
        {
          "internalType": "address",
          "name": "onBehalfOf",
          "type": "address"
        },
        {
          "internalType": "bytes32",
          "name": "policyData",
          "type": "bytes32"
        },
        {
          "internalType": "bytes32",
          "name": "quoteSignatureR",
          "type": "bytes32"
        },
        {
          "internalType": "bytes32",
          "name": "quoteSignatureVS",
          "type": "bytes32"
        },
        {
          "internalType": "uint40",
          "name": "quoteValidUntil",
          "type": "uint40"
        }
      ],
      "name": "newPolicy",
      "outputs": [
        {
          "internalType": "uint256",
          "name": "",
          "type": "uint256"
        }
      ],
      "stateMutability": "nonpayable",
      "type": "function"
    },
    {
      "inputs": [
        {
          "internalType": "uint256",
          "name": "payout",
          "type": "uint256"
        },
        {
          "internalType": "uint256",
          "name": "premium",
          "type": "uint256"
        },
        {
          "internalType": "uint256",
          "name": "lossProb",
          "type": "uint256"
        },
        {
          "internalType": "uint40",
          "name": "expiration",
          "type": "uint40"
        },
        {
          "internalType": "address",
          "name": "onBehalfOf",
          "type": "address"
        },
        {
          "internalType": "bytes32",
          "name": "policyData",
          "type": "bytes32"
        },
        {
          "internalType": "bytes32",
          "name": "quoteSignatureR",
          "type": "bytes32"
        },
        {
          "internalType": "bytes32",
          "name": "quoteSignatureVS",
          "type": "bytes32"
        },
        {
          "internalType": "uint40",
          "name": "quoteValidUntil",
          "type": "uint40"
        }
      ],
      "name": "newPolicyFull",
      "outputs": [
        {
          "components": [
            {
              "internalType": "uint256",
              "name": "id",
              "type": "uint256"
            },
            {
              "internalType": "uint256",
              "name": "payout",
              "type": "uint256"
            },
            {
              "internalType": "uint256",
              "name": "premium",
              "type": "uint256"
            },
            {
              "internalType": "uint256",
              "name": "jrScr",
              "type": "uint256"
            },
            {
              "internalType": "uint256",
              "name": "srScr",
              "type": "uint256"
            },
            {
              "internalType": "uint256",
              "name": "lossProb",
              "type": "uint256"
            },
            {
              "internalType": "uint256",
              "name": "purePremium",
              "type": "uint256"
            },
            {
              "internalType": "uint256",
              "name": "ensuroCommission",
              "type": "uint256"
            },
            {
              "internalType": "uint256",
              "name": "partnerCommission",
              "type": "uint256"
            },
            {
              "internalType": "uint256",
              "name": "jrCoc",
              "type": "uint256"
            },
            {
              "internalType": "uint256",
              "name": "srCoc",
              "type": "uint256"
            },
            {
              "internalType": "contract IRiskModule",
              "name": "riskModule",
              "type": "address"
            },
            {
              "internalType": "uint40",
              "name": "start",
              "type": "uint40"
            },
            {
              "internalType": "uint40",
              "name": "expiration",
              "type": "uint40"
            }
          ],
          "internalType": "struct Policy.PolicyData",
          "name": "createdPolicy",
          "type": "tuple"
        }
      ],
      "stateMutability": "nonpayable",
      "type": "function"
    },
    {
      "inputs": [
        {
          "internalType": "uint256",
          "name": "payout",
          "type": "uint256"
        },
        {
          "internalType": "uint256",
          "name": "premium",
          "type": "uint256"
        },
        {
          "internalType": "uint256",
          "name": "lossProb",
          "type": "uint256"
        },
        {
          "internalType": "uint40",
          "name": "expiration",
          "type": "uint40"
        },
        {
          "internalType": "address",
          "name": "onBehalfOf",
          "type": "address"
        },
        {
          "internalType": "bytes32",
          "name": "policyData",
          "type": "bytes32"
        },
        {
          "internalType": "bytes32",
          "name": "quoteSignatureR",
          "type": "bytes32"
        },
        {
          "internalType": "bytes32",
          "name": "quoteSignatureVS",
          "type": "bytes32"
        },
        {
          "internalType": "uint40",
          "name": "quoteValidUntil",
          "type": "uint40"
        }
      ],
      "name": "newPolicyPaidByHolder",
      "outputs": [
        {
          "internalType": "uint256",
          "name": "",
          "type": "uint256"
        }
      ],
      "stateMutability": "nonpayable",
      "type": "function"
    },
    {
      "inputs": [],
      "name": "params",
      "outputs": [
        {
          "components": [
            {
              "internalType": "uint256",
              "name": "moc",
              "type": "uint256"
            },
            {
              "internalType": "uint256",
              "name": "jrCollRatio",
              "type": "uint256"
            },
            {
              "internalType": "uint256",
              "name": "collRatio",
              "type": "uint256"
            },
            {
              "internalType": "uint256",
              "name": "ensuroPpFee",
              "type": "uint256"
            },
            {
              "internalType": "uint256",
              "name": "ensuroCocFee",
              "type": "uint256"
            },
            {
              "internalType": "uint256",
              "name": "jrRoc",
              "type": "uint256"
            },
            {
              "internalType": "uint256",
              "name": "srRoc",
              "type": "uint256"
            }
          ],
          "internalType": "struct IRiskModule.Params",
          "name": "ret",
          "type": "tuple"
        }
      ],
      "stateMutability": "view",
      "type": "function"
    },
    {
      "inputs": [],
      "name": "pause",
      "outputs": [],
      "stateMutability": "nonpayable",
      "type": "function"
    },
    {
      "inputs": [],
      "name": "paused",
      "outputs": [
        {
          "internalType": "bool",
          "name": "",
          "type": "bool"
        }
      ],
      "stateMutability": "view",
      "type": "function"
    },
    {
      "inputs": [],
      "name": "policyPool",
      "outputs": [
        {
          "internalType": "contract IPolicyPool",
          "name": "",
          "type": "address"
        }
      ],
      "stateMutability": "view",
      "type": "function"
    },
    {
      "inputs": [],
      "name": "premiumsAccount",
      "outputs": [
        {
          "internalType": "contract IPremiumsAccount",
          "name": "",
          "type": "address"
        }
      ],
      "stateMutability": "view",
      "type": "function"
    },
    {
      "inputs": [],
      "name": "proxiableUUID",
      "outputs": [
        {
          "internalType": "bytes32",
          "name": "",
          "type": "bytes32"
        }
      ],
      "stateMutability": "view",
      "type": "function"
    },
    {
      "inputs": [
        {
          "internalType": "uint256",
          "name": "payout",
          "type": "uint256"
        }
      ],
      "name": "releaseExposure",
      "outputs": [],
      "stateMutability": "nonpayable",
      "type": "function"
    },
    {
      "inputs": [
        {
          "components": [
            {
              "internalType": "uint256",
              "name": "id",
              "type": "uint256"
            },
            {
              "internalType": "uint256",
              "name": "payout",
              "type": "uint256"
            },
            {
              "internalType": "uint256",
              "name": "premium",
              "type": "uint256"
            },
            {
              "internalType": "uint256",
              "name": "jrScr",
              "type": "uint256"
            },
            {
              "internalType": "uint256",
              "name": "srScr",
              "type": "uint256"
            },
            {
              "internalType": "uint256",
              "name": "lossProb",
              "type": "uint256"
            },
            {
              "internalType": "uint256",
              "name": "purePremium",
              "type": "uint256"
            },
            {
              "internalType": "uint256",
              "name": "ensuroCommission",
              "type": "uint256"
            },
            {
              "internalType": "uint256",
              "name": "partnerCommission",
              "type": "uint256"
            },
            {
              "internalType": "uint256",
              "name": "jrCoc",
              "type": "uint256"
            },
            {
              "internalType": "uint256",
              "name": "srCoc",
              "type": "uint256"
            },
            {
              "internalType": "contract IRiskModule",
              "name": "riskModule",
              "type": "address"
            },
            {
              "internalType": "uint40",
              "name": "start",
              "type": "uint40"
            },
            {
              "internalType": "uint40",
              "name": "expiration",
              "type": "uint40"
            }
          ],
          "internalType": "struct Policy.PolicyData",
          "name": "policy",
          "type": "tuple"
        },
        {
          "internalType": "uint256",
          "name": "payout",
          "type": "uint256"
        }
      ],
      "name": "resolvePolicy",
      "outputs": [],
      "stateMutability": "nonpayable",
      "type": "function"
    },
    {
      "inputs": [
        {
          "components": [
            {
              "internalType": "uint256",
              "name": "id",
              "type": "uint256"
            },
            {
              "internalType": "uint256",
              "name": "payout",
              "type": "uint256"
            },
            {
              "internalType": "uint256",
              "name": "premium",
              "type": "uint256"
            },
            {
              "internalType": "uint256",
              "name": "jrScr",
              "type": "uint256"
            },
            {
              "internalType": "uint256",
              "name": "srScr",
              "type": "uint256"
            },
            {
              "internalType": "uint256",
              "name": "lossProb",
              "type": "uint256"
            },
            {
              "internalType": "uint256",
              "name": "purePremium",
              "type": "uint256"
            },
            {
              "internalType": "uint256",
              "name": "ensuroCommission",
              "type": "uint256"
            },
            {
              "internalType": "uint256",
              "name": "partnerCommission",
              "type": "uint256"
            },
            {
              "internalType": "uint256",
              "name": "jrCoc",
              "type": "uint256"
            },
            {
              "internalType": "uint256",
              "name": "srCoc",
              "type": "uint256"
            },
            {
              "internalType": "contract IRiskModule",
              "name": "riskModule",
              "type": "address"
            },
            {
              "internalType": "uint40",
              "name": "start",
              "type": "uint40"
            },
            {
              "internalType": "uint40",
              "name": "expiration",
              "type": "uint40"
            }
          ],
          "internalType": "struct Policy.PolicyData",
          "name": "policy",
          "type": "tuple"
        },
        {
          "internalType": "bool",
          "name": "customerWon",
          "type": "bool"
        }
      ],
      "name": "resolvePolicyFullPayout",
      "outputs": [],
      "stateMutability": "nonpayable",
      "type": "function"
    },
    {
      "inputs": [
        {
          "internalType": "enum IRiskModule.Parameter",
          "name": "param",
          "type": "uint8"
        },
        {
          "internalType": "uint256",
          "name": "newValue",
          "type": "uint256"
        }
      ],
      "name": "setParam",
      "outputs": [],
      "stateMutability": "nonpayable",
      "type": "function"
    },
    {
      "inputs": [
        {
          "internalType": "address",
          "name": "wallet_",
          "type": "address"
        }
      ],
      "name": "setWallet",
      "outputs": [],
      "stateMutability": "nonpayable",
      "type": "function"
    },
    {
      "inputs": [
        {
          "internalType": "bytes4",
          "name": "interfaceId",
          "type": "bytes4"
        }
      ],
      "name": "supportsInterface",
      "outputs": [
        {
          "internalType": "bool",
          "name": "",
          "type": "bool"
        }
      ],
      "stateMutability": "view",
      "type": "function"
    },
    {
      "inputs": [],
      "name": "unpause",
      "outputs": [],
      "stateMutability": "nonpayable",
      "type": "function"
    },
    {
      "inputs": [
        {
          "internalType": "address",
          "name": "newImplementation",
          "type": "address"
        }
      ],
      "name": "upgradeTo",
      "outputs": [],
      "stateMutability": "nonpayable",
      "type": "function"
    },
    {
      "inputs": [
        {
          "internalType": "address",
          "name": "newImplementation",
          "type": "address"
        },
        {
          "internalType": "bytes",
          "name": "data",
          "type": "bytes"
        }
      ],
      "name": "upgradeToAndCall",
      "outputs": [],
      "stateMutability": "payable",
      "type": "function"
    },
    {
      "inputs": [],
      "name": "wallet",
      "outputs": [
        {
          "internalType": "address",
          "name": "",
          "type": "address"
        }
      ],
      "stateMutability": "view",
      "type": "function"
    }
  ],
  "bytecode": "0x610100604052306080523480156200001657600080fd5b506040516200593c3803806200593c8339810160408190526200003991620002b2565b8282816001600160a01b038116620000be5760405162461bcd60e51b815260206004820152603660248201527f506f6c696379506f6f6c436f6d706f6e656e743a20706f6c696379506f6f6c2060448201527f63616e6e6f74206265207a65726f20616464726573730000000000000000000060648201526084015b60405180910390fd5b620000c8620001da565b806001600160a01b031660a0816001600160a01b03168152505050816001600160a01b0316816001600160a01b0316634d15eb036040518163ffffffff1660e01b8152600401602060405180830381865afa1580156200012c573d6000803e3d6000fd5b505050506040513d601f19601f820116820180604052508101906200015291906200030a565b6001600160a01b031614620001bf5760405162461bcd60e51b815260206004820152602c60248201527f546865205072656d69756d734163636f756e74206d757374206265207061727460448201526b081bd9881d1a1948141bdbdb60a21b6064820152608401620000b5565b6001600160a01b031660c05250151560e05250620003319050565b600054610100900460ff1615620002445760405162461bcd60e51b815260206004820152602760248201527f496e697469616c697a61626c653a20636f6e747261637420697320696e697469604482015266616c697a696e6760c81b6064820152608401620000b5565b60005460ff908116101562000297576000805460ff191660ff9081179091556040519081527f7f26b83ff96e1f2b6a682f133852f6798a09c465da95921460cefb38474024989060200160405180910390a15b565b6001600160a01b0381168114620002af57600080fd5b50565b600080600060608486031215620002c857600080fd5b8351620002d58162000299565b6020850151909350620002e88162000299565b60408501519092508015158114620002ff57600080fd5b809150509250925092565b6000602082840312156200031d57600080fd5b81516200032a8162000299565b9392505050565b60805160a05160c05160e0516155226200041a6000396000611ec90152600081816105340152612c970152600081816103db015281816109c801528181610d5601528181610f3101528181611032015281816110b1015281816112320152818161132f01528181611b2c01528181611cab01528181611d4e01528181611e5201528181611eee015281816120b901528181612249015281816127d7015281816138a40152818161394301528181613a3101528181613cb60152613d470152600081816108a3015281816108ec01528181610ac201528181610b020152610b9101526155226000f3fe60806040526004361061021a5760003560e01c80636db5c8fd116101235780638bac3a24116100ab578063deaa59df1161006f578063deaa59df1461070c578063e5a6b10f1461072c578063f67b2bad14610741578063fbb8127914610763578063ffa600e31461079757600080fd5b80638bac3a2414610618578063a9a24f2714610638578063c1cca2b31461066c578063cfd4c6061461068c578063cff0ab96146106a157600080fd5b80637a702b3c116100f25780637a702b3c1461058c5780637ed5acfa146105ac5780637ff8bf25146105d95780638456cb59146105ee57806385272a6e1461060357600080fd5b80636db5c8fd146104e55780636f0dbe6f1461050557806373a952e81461052557806378fab2601461055857600080fd5b80634a47a3e0116101a657806352d1902d1161017557806352d1902d146104445780635b494dd5146104595780635c975abb1461048d57806365533024146104a55780636a448ef1146104c557600080fd5b80634a47a3e0146103985780634d15eb03146103cc5780634f1ef28614610413578063521eb2731461042657600080fd5b80633659cfe6116101ed5780633659cfe6146102c65780633711bbf5146102e85780633f4ba83a1461031557806345f739ff1461032a578063468a8c9f1461035e57600080fd5b806301ffc9a71461021f57806305918a791461025457806306fdde031461028257806324ea54f4146102a4575b600080fd5b34801561022b57600080fd5b5061023f61023a3660046148a6565b6107b7565b60405190151581526020015b60405180910390f35b34801561026057600080fd5b5061027461026f3660046148ff565b6107e3565b60405190815260200161024b565b34801561028e57600080fd5b50610297610807565b60405161024b91906149a3565b3480156102b057600080fd5b506102746000805160206154cd83398151915281565b3480156102d257600080fd5b506102e66102e13660046149d6565b610899565b005b3480156102f457600080fd5b506103086103033660046148ff565b610981565b60405161024b9190614aab565b34801561032157600080fd5b506102e66109a8565b34801561033657600080fd5b506102747f90fe2ba5da14f172ed5a0a0fec391dbf8f191c9a2f3557d79ede5d6b1c1c9ffb81565b34801561036a57600080fd5b5060c9546040805164ffffffffff83168152600160281b90920466ffffffffffffff1660208301520161024b565b3480156103a457600080fd5b506102747fa82e22387fca439f316d78ca566f383218ab8ae1b3e830178c9c82cbd16749c081565b3480156103d857600080fd5b507f00000000000000000000000000000000000000000000000000000000000000005b6040516001600160a01b03909116815260200161024b565b6102e6610421366004614b46565b610ab8565b34801561043257600080fd5b5060fe546001600160a01b03166103fb565b34801561045057600080fd5b50610274610b84565b34801561046557600080fd5b506102747f5ec196419322369c6bac572d883f4d990ae5ec82f7d93cdf89b85dbb05b63c2781565b34801561049957600080fd5b5060975460ff1661023f565b3480156104b157600080fd5b506102746104c03660046148ff565b610c37565b3480156104d157600080fd5b506102e66104e0366004614baa565b610d53565b3480156104f157600080fd5b5060fc54600160b01b900461ffff16610274565b34801561051157600080fd5b506102e6610520366004614bc3565b610def565b34801561053157600080fd5b507f00000000000000000000000000000000000000000000000000000000000000006103fb565b34801561056457600080fd5b506102747f92a19c77d2ea87c7f81d50c74403cb2f401780f3ad919571121efe2bdb427eb181565b34801561059857600080fd5b506102e66105a7366004614c72565b610f0e565b3480156105b857600080fd5b506105c36201518081565b60405164ffffffffff909116815260200161024b565b3480156105e557600080fd5b5060fd54610274565b3480156105fa57600080fd5b506102e66110a0565b34801561060f57600080fd5b5061027461119b565b34801561062457600080fd5b50610274610633366004614c9f565b6111be565b34801561064457600080fd5b506102747f0df0a8869cf58168a14cd7ac426ff1b8c6ff5d5c800c6f44803f3431dcb3bad181565b34801561067857600080fd5b506102e6610687366004614cd4565b6111dd565b34801561069857600080fd5b50610274611aa0565b3480156106ad57600080fd5b506106b6611abf565b60405161024b9190600060e082019050825182526020830151602083015260408301516040830152606083015160608301526080830151608083015260a083015160a083015260c083015160c083015292915050565b34801561071857600080fd5b506102e66107273660046149d6565b611b09565b34801561073857600080fd5b506103fb611ca7565b34801561074d57600080fd5b5061027460008051602061548683398151915281565b34801561076f57600080fd5b506102747fc6823861ee2bb2198ce6b1fd6faf4c8f44f745bc804aca4a762f67e0d507fd8a81565b3480156107a357600080fd5b506102e66107b2366004614d12565b611d2b565b60006107c282611e89565b806107dd57506001600160e01b0319821663da40804f60e01b145b92915050565b60006107f88a8a8a8a89898989335b8f611ebf565b519a9950505050505050505050565b606060fb805461081690614d4c565b80601f016020809104026020016040519081016040528092919081815260200182805461084290614d4c565b801561088f5780601f106108645761010080835404028352916020019161088f565b820191906000526020600020905b81548152906001019060200180831161087257829003601f168201915b5050505050905090565b6001600160a01b037f00000000000000000000000000000000000000000000000000000000000000001630036108ea5760405162461bcd60e51b81526004016108e190614d80565b60405180910390fd5b7f00000000000000000000000000000000000000000000000000000000000000006001600160a01b0316610933600080516020615466833981519152546001600160a01b031690565b6001600160a01b0316146109595760405162461bcd60e51b81526004016108e190614dcc565b61096281612229565b6040805160008082526020820190925261097e9183919061233b565b50565b610989614820565b61099a8a8a8a8a89898989336107f2565b9a9950505050505050505050565b6000805160206154cd8339815191526000805160206154868339815191527f00000000000000000000000000000000000000000000000000000000000000006001600160a01b03166371907f176040518163ffffffff1660e01b8152600401602060405180830381865afa158015610a24573d6000803e3d6000fd5b505050506040513d601f19601f82011682018060405250810190610a489190614e18565b6001600160a01b0316632b1cff1f3084843360016040518663ffffffff1660e01b8152600401610a7c959493929190614e35565b60006040518083038186803b158015610a9457600080fd5b505afa158015610aa8573d6000803e3d6000fd5b50505050610ab46124a6565b5050565b6001600160a01b037f0000000000000000000000000000000000000000000000000000000000000000163003610b005760405162461bcd60e51b81526004016108e190614d80565b7f00000000000000000000000000000000000000000000000000000000000000006001600160a01b0316610b49600080516020615466833981519152546001600160a01b031690565b6001600160a01b031614610b6f5760405162461bcd60e51b81526004016108e190614dcc565b610b7882612229565b610ab48282600161233b565b6000306001600160a01b037f00000000000000000000000000000000000000000000000000000000000000001614610c245760405162461bcd60e51b815260206004820152603860248201527f555550535570677261646561626c653a206d757374206e6f742062652063616c60448201527f6c6564207468726f7567682064656c656761746563616c6c000000000000000060648201526084016108e1565b5060008051602061546683398151915290565b60006001600160a01b038616331480610cd657506000610c55611ca7565b6001600160a01b031663dd62ed3e88336040516001600160e01b031960e085901b1681526001600160a01b03928316600482015291166024820152604401602060405180830381865afa158015610cb0573d6000803e3d6000fd5b505050506040513d601f19601f82011682018060405250810190610cd49190614e68565b115b610d415760405162461bcd60e51b815260206004820152603660248201527f53656e646572206973206e6f7420617574686f72697a656420746f20637265616044820152753a32903837b634b1b4b2b99037b72132b430b63327b360511b60648201526084016108e1565b6107f88a8a8a8a898989898e8f611ebf565b337f00000000000000000000000000000000000000000000000000000000000000006001600160a01b031614610dd55760405162461bcd60e51b815260206004820152602160248201527f5468652063616c6c6572206d7573742062652074686520506f6c696379506f6f6044820152601b60fa1b60648201526084016108e1565b8060fd6000828254610de79190614e97565b909155505050565b600054610100900460ff1615808015610e0f5750600054600160ff909116105b80610e295750303b158015610e29575060005460ff166001145b610e8c5760405162461bcd60e51b815260206004820152602e60248201527f496e697469616c697a61626c653a20636f6e747261637420697320616c72656160448201526d191e481a5b9a5d1a585b1a5e995960921b60648201526084016108e1565b6000805460ff191660011790558015610eaf576000805461ff0019166101001790555b610ebe888888888888886124f8565b8015610f04576000805461ff0019169055604051600181527f7f26b83ff96e1f2b6a682f133852f6798a09c465da95921460cefb38474024989060200160405180910390a15b5050505050505050565b7f92a19c77d2ea87c7f81d50c74403cb2f401780f3ad919571121efe2bdb427eb17f00000000000000000000000000000000000000000000000000000000000000006001600160a01b03166371907f176040518163ffffffff1660e01b8152600401602060405180830381865afa158015610f8d573d6000803e3d6000fd5b505050506040513d601f19601f82011682018060405250810190610fb19190614e18565b6001600160a01b0316635ff57d2030833360006040518563ffffffff1660e01b8152600401610fe39493929190614eaa565b60006040518083038186803b158015610ffb57600080fd5b505afa15801561100f573d6000803e3d6000fd5b5050505061101b612536565b604051631e9c0acf60e21b81526001600160a01b037f00000000000000000000000000000000000000000000000000000000000000001690637a702b3c906110699086908690600401614fa0565b600060405180830381600087803b15801561108357600080fd5b505af1158015611097573d6000803e3d6000fd5b50505050505050565b6000805160206154cd8339815191527f00000000000000000000000000000000000000000000000000000000000000006001600160a01b03166371907f176040518163ffffffff1660e01b8152600401602060405180830381865afa15801561110d573d6000803e3d6000fd5b505050506040513d601f19601f820116820180604052508101906111319190614e18565b6001600160a01b0316635ff57d2030833360016040518563ffffffff1660e01b81526004016111639493929190614eaa565b60006040518083038186803b15801561117b57600080fd5b505afa15801561118f573d6000803e3d6000fd5b5050505061097e61257e565b60fc546000906111b9908290600160901b900463ffffffff166125bb565b905090565b60006111d38484846111ce611abf565b61264c565b90505b9392505050565b6000805160206154868339815191527fa82e22387fca439f316d78ca566f383218ab8ae1b3e830178c9c82cbd16749c07f5ec196419322369c6bac572d883f4d990ae5ec82f7d93cdf89b85dbb05b63c2760007f00000000000000000000000000000000000000000000000000000000000000006001600160a01b03166371907f176040518163ffffffff1660e01b8152600401602060405180830381865afa15801561128e573d6000803e3d6000fd5b505050506040513d601f19601f820116820180604052508101906112b29190614e18565b6040516359f7e5e960e11b81529091506001600160a01b0382169063b3efcbd2906112e890309088903390600190600401614eaa565b602060405180830381865afa158015611305573d6000803e3d6000fd5b505050506040513d601f19601f820116820180604052508101906113299190614fbd565b611414577f00000000000000000000000000000000000000000000000000000000000000006001600160a01b03166371907f176040518163ffffffff1660e01b8152600401602060405180830381865afa15801561138b573d6000803e3d6000fd5b505050506040513d601f19601f820116820180604052508101906113af9190614e18565b6001600160a01b0316632b1cff1f3085853360016040518663ffffffff1660e01b81526004016113e3959493929190614e35565b60006040518083038186803b1580156113fb57600080fd5b505afa15801561140f573d6000803e3d6000fd5b505050505b600061143f7fa82e22387fca439f316d78ca566f383218ab8ae1b3e830178c9c82cbd16749c06127d3565b158015611460575061145e6000805160206154868339815191526127d3565b155b9050600087600981111561147657611476614fda565b036114e6578015806114a6575060fc546114a6906114979061ffff166128ca565b8767016345785d8a00006128e0565b6114c25760405162461bcd60e51b81526004016108e190614ff0565b6114cb86612967565b60fc805461ffff191661ffff92909216919091179055611a68565b60018760098111156114fa576114fa614fda565b0361156a57801580611521575060fc54611521906114979062010000900461ffff166128ca565b61153d5760405162461bcd60e51b81526004016108e190614ff0565b61154686612967565b60fc805461ffff92909216620100000263ffff000019909216919091179055611a68565b600287600981111561157e5761157e614fda565b036115f2578015806115a6575060fc546115a69061149790600160201b900461ffff166128ca565b6115c25760405162461bcd60e51b81526004016108e190614ff0565b6115cb86612967565b60fc805461ffff92909216600160201b0265ffff0000000019909216919091179055611a68565b600387600981111561160657611606614fda565b0361167c5780158061162e575060fc5461162e9061149790600160301b900461ffff166128ca565b61164a5760405162461bcd60e51b81526004016108e190614ff0565b61165386612967565b60fc805461ffff92909216600160301b0267ffff00000000000019909216919091179055611a68565b600487600981111561169057611690614fda565b03611708578015806116b8575060fc546116b89061149790600160401b900461ffff166128ca565b6116d45760405162461bcd60e51b81526004016108e190614ff0565b6116dd86612967565b60fc805461ffff92909216600160401b0269ffff000000000000000019909216919091179055611a68565b600587600981111561171c5761171c614fda565b0361178f57801580611744575060fc546117449061149790600160501b900461ffff166128ca565b6117605760405162461bcd60e51b81526004016108e190614ff0565b61176986612967565b60fc805461ffff92909216600160501b0261ffff60501b19909216919091179055611a68565b60068760098111156117a3576117a3614fda565b03611816578015806117cb575060fc546117cb9061149790600160601b900461ffff166128ca565b6117e75760405162461bcd60e51b81526004016108e190614ff0565b6117f086612967565b60fc805461ffff92909216600160601b0261ffff60601b19909216919091179055611a68565b600787600981111561182a5761182a614fda565b03611893578015806118425750611842611497611aa0565b61185e5760405162461bcd60e51b81526004016108e190614ff0565b611869600287612981565b60fc805463ffffffff92909216600160701b0263ffffffff60701b19909216919091179055611a68565b60088760098111156118a7576118a7614fda565b03611a065760fd548610156119185760405162461bcd60e51b815260206004820152603160248201527f43616e277420736574206578706f737572654c696d6974206c657373207468616044820152706e20616374697665206578706f7375726560781b60648201526084016108e1565b80158061192b575061192b61149761119b565b6119475760405162461bcd60e51b81526004016108e190614ff0565b61194f61119b565b8611158061196f575061196f6000805160206154868339815191526127d3565b6119d15760405162461bcd60e51b815260206004820152602d60248201527f547765616b2065786365656465643a20496e637265617365207265717569726560448201526c73204c4556454c315f524f4c4560981b60648201526084016108e1565b6119dc600087612981565b60fc805463ffffffff92909216600160901b0263ffffffff60901b19909216919091179055611a68565b6009876009811115611a1a57611a1a614fda565b03611a68578015611a3d5760405162461bcd60e51b81526004016108e190614ff0565b611a4686612a14565b60fc805461ffff92909216600160b01b0261ffff60b01b199092169190911790555b611097876009811115611a7d57611a7d614fda565b611a88906008615018565b602d811115611a9957611a99614fda565b8783612a7b565b60fc546000906111b990600290600160701b900463ffffffff166125bb565b611aff6040518060e00160405280600081526020016000815260200160008152602001600081526020016000815260200160008152602001600081525090565b6111b960fc612adc565b7f0df0a8869cf58168a14cd7ac426ff1b8c6ff5d5c800c6f44803f3431dcb3bad17f00000000000000000000000000000000000000000000000000000000000000006001600160a01b03166371907f176040518163ffffffff1660e01b8152600401602060405180830381865afa158015611b88573d6000803e3d6000fd5b505050506040513d601f19601f82011682018060405250810190611bac9190614e18565b6001600160a01b0316635ff57d2030833360006040518563ffffffff1660e01b8152600401611bde9493929190614eaa565b60006040518083038186803b158015611bf657600080fd5b505afa158015611c0a573d6000803e3d6000fd5b5050506001600160a01b0383169050611c7b5760405162461bcd60e51b815260206004820152602d60248201527f5269736b4d6f64756c653a2077616c6c65742063616e6e6f742062652074686560448201526c207a65726f206164647265737360981b60648201526084016108e1565b60fe80546001600160a01b0319166001600160a01b038416908117909155610ab4906012906000612a7b565b60007f00000000000000000000000000000000000000000000000000000000000000006001600160a01b031663e5a6b10f6040518163ffffffff1660e01b8152600401602060405180830381865afa158015611d07573d6000803e3d6000fd5b505050506040513d601f19601f820116820180604052508101906111b99190614e18565b7f92a19c77d2ea87c7f81d50c74403cb2f401780f3ad919571121efe2bdb427eb17f00000000000000000000000000000000000000000000000000000000000000006001600160a01b03166371907f176040518163ffffffff1660e01b8152600401602060405180830381865afa158015611daa573d6000803e3d6000fd5b505050506040513d601f19601f82011682018060405250810190611dce9190614e18565b6001600160a01b0316635ff57d2030833360006040518563ffffffff1660e01b8152600401611e009493929190614eaa565b60006040518083038186803b158015611e1857600080fd5b505afa158015611e2c573d6000803e3d6000fd5b50505050611e38612536565b60405160016259ff1d60e01b031981526001600160a01b037f0000000000000000000000000000000000000000000000000000000000000000169063ffa600e390611069908690869060040161502b565b60006001600160e01b031982166301ffc9a760e01b14806107dd57506001600160e01b03198216634d15eb0360e01b1492915050565b611ec7614820565b7f0000000000000000000000000000000000000000000000000000000000000000611ff1577f00000000000000000000000000000000000000000000000000000000000000006001600160a01b03166371907f176040518163ffffffff1660e01b8152600401602060405180830381865afa158015611f4a573d6000803e3d6000fd5b505050506040513d601f19601f82011682018060405250810190611f6e9190614e18565b6001600160a01b0316635ff57d20307f90fe2ba5da14f172ed5a0a0fec391dbf8f191c9a2f3557d79ede5d6b1c1c9ffb3360006040518563ffffffff1660e01b8152600401611fc09493929190614eaa565b60006040518083038186803b158015611fd857600080fd5b505afa158015611fec573d6000803e3d6000fd5b505050505b428464ffffffffff1610156120385760405162461bcd60e51b815260206004820152600d60248201526c145d5bdd1948195e1c1a5c9959609a1b60448201526064016108e1565b6040516001600160601b03193060601b166020820152603481018c9052605481018b9052607481018a90526001600160d81b031960d88a811b82166094840152609983018a905286901b1660b98201526000906120a69060be01604051602081830303815290604052612bf3565b905060006120b5828989612c2e565b90507f00000000000000000000000000000000000000000000000000000000000000006001600160a01b03166371907f176040518163ffffffff1660e01b8152600401602060405180830381865afa158015612115573d6000803e3d6000fd5b505050506040513d601f19601f820116820180604052508101906121399190614e18565b6001600160a01b0316635ff57d20307fc6823861ee2bb2198ce6b1fd6faf4c8f44f745bc804aca4a762f67e0d507fd8a8460006040518563ffffffff1660e01b815260040161218b9493929190614eaa565b60006040518083038186803b1580156121a357600080fd5b505afa1580156121b7573d6000803e3d6000fd5b50600092506121ce9150600160601b90508b615060565b90506121df8e8e8e8e8a8a87612c54565b80516040518c8152919550907f3e4224c37ba48f27f735eecea98c4d71568b9825d0006b6e128aa73695e35f709060200160405180910390a25050509a9950505050505050505050565b6000805160206154cd8339815191526000805160206154868339815191527f00000000000000000000000000000000000000000000000000000000000000006001600160a01b03166371907f176040518163ffffffff1660e01b8152600401602060405180830381865afa1580156122a5573d6000803e3d6000fd5b505050506040513d601f19601f820116820180604052508101906122c99190614e18565b6001600160a01b0316632b1cff1f3084843360016040518663ffffffff1660e01b81526004016122fd959493929190614e35565b60006040518083038186803b15801561231557600080fd5b505afa158015612329573d6000803e3d6000fd5b5050505061233683612c87565b505050565b7f4910fdfa16fed3260ed0e7147f7cc6da11a60208b5b9406d12a635614ffd91435460ff161561236e5761233683612d8a565b826001600160a01b03166352d1902d6040518163ffffffff1660e01b8152600401602060405180830381865afa9250505080156123c8575060408051601f3d908101601f191682019092526123c591810190614e68565b60015b61242b5760405162461bcd60e51b815260206004820152602e60248201527f45524331393637557067726164653a206e657720696d706c656d656e7461746960448201526d6f6e206973206e6f74205555505360901b60648201526084016108e1565b600080516020615466833981519152811461249a5760405162461bcd60e51b815260206004820152602960248201527f45524331393637557067726164653a20756e737570706f727465642070726f786044820152681a58589b195555525160ba1b60648201526084016108e1565b50612336838383612e26565b6124ae612e51565b6097805460ff191690557f5db9ee0a495bf2e6ff9c91a7834c1ba4fdd244a5e8aa4e537bd38aeae4b073aa335b6040516001600160a01b03909116815260200160405180910390a1565b600054610100900460ff1661251f5760405162461bcd60e51b81526004016108e190615074565b612527612e9a565b61109787878787878787612ed1565b60975460ff161561257c5760405162461bcd60e51b815260206004820152601060248201526f14185d5cd8589b194e881c185d5cd95960821b60448201526064016108e1565b565b612586612536565b6097805460ff191660011790557f62e78cea01bee320cd4e420270b5ea74000d11b0c9f74754ebdbfc544b05a2586124db3390565b6000826125c6611ca7565b6001600160a01b031663313ce5676040518163ffffffff1660e01b8152600401602060405180830381865afa158015612603573d6000803e3d6000fd5b505050506040513d601f19601f8201168201806040525081019061262791906150bf565b61263191906150e2565b61263c90600a6151df565b6111d69063ffffffff84166151ee565b6000806126706126698460000151876130df90919063ffffffff16565b87906130df565b9050600061268b8460200151886130df90919063ffffffff16565b9050818111156126a65761269f8282614e97565b90506126aa565b5060005b60006126c38560400151896130df90919063ffffffff16565b90506126cf8284615018565b8111156126f1576126e08284615018565b6126ea9082614e97565b90506126f5565b5060005b600061273661272f6a1a1601fc4ea7109e00000061271a4264ffffffffff8c16614e97565b8960a0015161272991906151ee565b90613117565b84906130df565b9050600061276c61272f6a1a1601fc4ea7109e00000061275d4264ffffffffff8d16614e97565b8a60c0015161272991906151ee565b9050600061278a886080015183856127849190615018565b906130df565b606089015161279a9088906130df565b6127a49190615018565b90506127b08284615018565b6127ba8288615018565b6127c49190615018565b9b9a5050505050505050505050565b60007f00000000000000000000000000000000000000000000000000000000000000006001600160a01b03166371907f176040518163ffffffff1660e01b8152600401602060405180830381865afa158015612833573d6000803e3d6000fd5b505050506040513d601f19601f820116820180604052508101906128579190614e18565b6001600160a01b031663b3efcbd230843360016040518563ffffffff1660e01b81526004016128899493929190614eaa565b602060405180830381865afa1580156128a6573d6000803e3d6000fd5b505050506040513d601f19601f820116820180604052508101906107dd9190614fbd565b60006107dd655af3107a400061ffff84166151ee565b60008284036128f1575060016111d6565b8360000361290b5750670de0b6b3a76400008110156111d6565b8260000361291b575060006111d6565b8284101561294a5781670de0b6b3a76400006129378587613117565b6129419190614e97565b111590506111d6565b816129558486613117565b61294190670de0b6b3a7640000614e97565b60006107dd61297c655af3107a40008461520d565b612a14565b60006111d68361298f611ca7565b6001600160a01b031663313ce5676040518163ffffffff1660e01b8152600401602060405180830381865afa1580156129cc573d6000803e3d6000fd5b505050506040513d601f19601f820116820180604052508101906129f091906150bf565b6129fa91906150e2565b612a0590600a6151df565b612a0f908461520d565b61314e565b600061ffff821115612a775760405162461bcd60e51b815260206004820152602660248201527f53616665436173743a2076616c756520646f65736e27742066697420696e203160448201526536206269747360d01b60648201526084016108e1565b5090565b612a836131b3565b8015612a9257612a92836132b0565b82602d811115612aa457612aa4614fda565b6040518381527f7bc647fe5043209e2019aa3503b79c1b0dd83eb61c56013d373a7584ff6bfb139060200160405180910390a2505050565b612b1c6040518060e00160405280600081526020016000815260200160008152602001600081526020016000815260200160008152602001600081525090565b6040805160e0810190915282548190612b389061ffff166128ca565b81528354602090910190612b559062010000900461ffff166128ca565b81528354602090910190612b7390600160201b900461ffff166128ca565b81528354602090910190612b9190600160301b900461ffff166128ca565b81528354602090910190612baf90600160401b900461ffff166128ca565b81528354602090910190612bcd90600160501b900461ffff166128ca565b81528354602090910190612beb90600160601b900461ffff166128ca565b905292915050565b6000612bff8251613412565b82604051602001612c11929190615221565b604051602081830303815290604052805190602001209050919050565b6000806000612c3e86868661351b565b91509150612c4b81613554565b50949350505050565b612c5c614820565b612c64612536565b612c7b88888888888888612c76611abf565b61370a565b98975050505050505050565b612c9081613d45565b60008190507f00000000000000000000000000000000000000000000000000000000000000006001600160a01b0316816001600160a01b03166373a952e86040518163ffffffff1660e01b8152600401602060405180830381865afa158015612cfd573d6000803e3d6000fd5b505050506040513d601f19601f82011682018060405250810190612d219190614e18565b6001600160a01b031614610ab45760405162461bcd60e51b815260206004820152602a60248201527f43616e27742075706772616465206368616e67696e6720746865205072656d696044820152691d5b5cd058d8dbdd5b9d60b21b60648201526084016108e1565b6001600160a01b0381163b612df75760405162461bcd60e51b815260206004820152602d60248201527f455243313936373a206e657720696d706c656d656e746174696f6e206973206e60448201526c1bdd08184818dbdb9d1c9858dd609a1b60648201526084016108e1565b60008051602061546683398151915280546001600160a01b0319166001600160a01b0392909216919091179055565b612e2f83613e36565b600082511180612e3c5750805b1561233657612e4b8383613e76565b50505050565b60975460ff1661257c5760405162461bcd60e51b815260206004820152601460248201527314185d5cd8589b194e881b9bdd081c185d5cd95960621b60448201526064016108e1565b600054610100900460ff16612ec15760405162461bcd60e51b81526004016108e190615074565b612ec9613f6a565b61257c613f91565b600054610100900460ff16612ef85760405162461bcd60e51b81526004016108e190615074565b60fb612f0488826152ca565b506040805161014081018252612710815260006020820152908101612f2888612967565b61ffff168152602001612f3a87612967565b61ffff1681526000602082018190526040820152606001612f5a86612967565b61ffff168152602001612f6e600286612981565b63ffffffff168152602001612f84600085612981565b63ffffffff9081168252612238602092830152825160fc80549385015160408601516060870151608088015160a089015160c08a015160e08b01516101008c0151610120909c015161ffff998a1663ffffffff19909c169b909b1762010000978a16979097029690961767ffffffff000000001916600160201b9589169590950267ffff000000000000191694909417600160301b93881693909302929092176bffffffff00000000000000001916600160401b9187169190910261ffff60501b191617600160501b918616919091021765ffffffffffff60601b1916600160601b9185169190910263ffffffff60701b191617600160701b918516919091021765ffffffffffff60901b1916600160901b959093169490940261ffff60b01b191691909117600160b01b9190921602179055600060fd5560fe80546001600160a01b0319166001600160a01b0383161790556110976131b3565b600081156706f05b59d3b2000019839004841115176130fd57600080fd5b50670de0b6b3a764000091026706f05b59d3b20000010490565b60008115670de0b6b3a76400006002840419048411171561313757600080fd5b50670de0b6b3a76400009190910260028204010490565b600063ffffffff821115612a775760405162461bcd60e51b815260206004820152602660248201527f53616665436173743a2076616c756520646f65736e27742066697420696e203360448201526532206269747360d01b60648201526084016108e1565b60fd546131be61119b565b101561323d5760405162461bcd60e51b815260206004820152604260248201527f56616c69646174696f6e3a206578706f737572654c696d69742063616e27742060448201527f6265206c657373207468616e2061637475616c206163746976654578706f7375606482015261726560f01b608482015260a4016108e1565b60fe546001600160a01b03166132a65760405162461bcd60e51b815260206004820152602860248201527f56616c69646174696f6e3a2057616c6c65742063616e2774206265207a65726f604482015267206164647265737360c01b60648201526084016108e1565b61257c60fc613fc0565b6000600182602d8111156132c6576132c6614fda565b6132d091906150e2565b60c954600160ff929092169190911b915062015180906132f79064ffffffffff164261538a565b64ffffffffff1611156133345760c9805466ffffffffffffff8316600160281b026001600160601b031990911664ffffffffff4216171790555050565b60c954600160281b9004811666ffffffffffffff166000036133945760c9805464ffffffffff421664ffffffffff1966ffffffffffffff808616600160281b808604929092161702166001600160601b0319909216919091171790555050565b60405162461bcd60e51b815260206004820152604760248201527f596f7520616c726561647920747765616b6564207468697320706172616d657460448201527f657220726563656e746c792e2057616974206265666f726520747765616b696e606482015266339030b3b0b4b760c91b608482015260a4016108e1565b6060816000036134395750506040805180820190915260018152600360fc1b602082015290565b8160005b8115613463578061344d816153af565b915061345c9050600a8361520d565b915061343d565b60008167ffffffffffffffff81111561347e5761347e614aba565b6040519080825280601f01601f1916602001820160405280156134a8576020820181803683370190505b5090505b8415613513576134bd600183614e97565b91506134ca600a86615060565b6134d5906030615018565b60f81b8183815181106134ea576134ea6153c8565b60200101906001600160f81b031916908160001a90535061350c600a8661520d565b94506134ac565b949350505050565b6000806001600160ff1b0383168161353860ff86901c601b615018565b9050613546878288856143ba565b935093505050935093915050565b600081600481111561356857613568614fda565b036135705750565b600181600481111561358457613584614fda565b036135d15760405162461bcd60e51b815260206004820152601860248201527f45434453413a20696e76616c6964207369676e6174757265000000000000000060448201526064016108e1565b60028160048111156135e5576135e5614fda565b036136325760405162461bcd60e51b815260206004820152601f60248201527f45434453413a20696e76616c6964207369676e6174757265206c656e6774680060448201526064016108e1565b600381600481111561364657613646614fda565b0361369e5760405162461bcd60e51b815260206004820152602260248201527f45434453413a20696e76616c6964207369676e6174757265202773272076616c604482015261756560f01b60648201526084016108e1565b60048160048111156136b2576136b2614fda565b0361097e5760405162461bcd60e51b815260206004820152602260248201527f45434453413a20696e76616c6964207369676e6174757265202776272076616c604482015261756560f01b60648201526084016108e1565b613712614820565b6000198803613729576137268988886111be565b97505b8888106137785760405162461bcd60e51b815260206004820181905260248201527f5072656d69756d206d757374206265206c657373207468616e207061796f757460448201526064016108e1565b4264ffffffffff808216908816116137d25760405162461bcd60e51b815260206004820181905260248201527f45787069726174696f6e206d75737420626520696e207468652066757475726560448201526064016108e1565b60fc54600160b01b900461ffff16610e106137ed838a61538a565b6137f791906153de565b64ffffffffff161061384b5760405162461bcd60e51b815260206004820152601b60248201527f506f6c6963792065786365656473206d6178206475726174696f6e000000000060448201526064016108e1565b6001600160a01b0385166138a15760405162461bcd60e51b815260206004820152601e60248201527f437573746f6d65722063616e2774206265207a65726f2061646472657373000060448201526064016108e1565b887f00000000000000000000000000000000000000000000000000000000000000006001600160a01b031663e5a6b10f6040518163ffffffff1660e01b8152600401602060405180830381865afa158015613900573d6000803e3d6000fd5b505050506040513d601f19601f820116820180604052508101906139249190614e18565b604051636eb1769f60e11b81526001600160a01b0389811660048301527f000000000000000000000000000000000000000000000000000000000000000081166024830152919091169063dd62ed3e90604401602060405180830381865afa158015613994573d6000803e3d6000fd5b505050506040513d601f19601f820116820180604052508101906139b89190614e68565b1015613a1c5760405162461bcd60e51b815260206004820152602d60248201527f596f75206d75737420616c6c6f7720454e5355524f20746f207472616e73666560448201526c7220746865207072656d69756d60981b60648201526084016108e1565b6001600160a01b038616331480613b335750887f00000000000000000000000000000000000000000000000000000000000000006001600160a01b031663e5a6b10f6040518163ffffffff1660e01b8152600401602060405180830381865afa158015613a8d573d6000803e3d6000fd5b505050506040513d601f19601f82011682018060405250810190613ab19190614e18565b6001600160a01b031663dd62ed3e88336040516001600160e01b031960e085901b1681526001600160a01b03928316600482015291166024820152604401602060405180830381865afa158015613b0c573d6000803e3d6000fd5b505050506040513d601f19601f82011682018060405250810190613b309190614e68565b10155b613b975760405162461bcd60e51b815260206004820152602f60248201527f5061796572206d75737420616c6c6f772063616c6c657220746f207472616e7360448201526e66657220746865207072656d69756d60881b60648201526084016108e1565b613b9f611aa0565b8a1115613c095760405162461bcd60e51b815260206004820152603260248201527f5269736b4d6f64756c653a205061796f7574206973206d6f7265207468616e206044820152716d6178696d756d2070657220706f6c69637960701b60648201526084016108e1565b6000613c1930858c8e8d8d6144a7565b9050806020015160fd6000828254613c319190615018565b90915550613c3f905061119b565b60fd541115613c9c5760405162461bcd60e51b815260206004820152602360248201527f5269736b4d6f64756c653a204578706f73757265206c696d697420657863656560448201526219195960ea1b60648201526084016108e1565b604051636769a76f60e01b81526000906001600160a01b037f00000000000000000000000000000000000000000000000000000000000000001690636769a76f90613cf19085908c908c908c90600401615402565b6020604051808303816000875af1158015613d10573d6000803e3d6000fd5b505050506040513d601f19601f82011682018060405250810190613d349190614e68565b8252509a9950505050505050505050565b7f00000000000000000000000000000000000000000000000000000000000000006001600160a01b0316816001600160a01b0316634d15eb036040518163ffffffff1660e01b8152600401602060405180830381865afa158015613dad573d6000803e3d6000fd5b505050506040513d601f19601f82011682018060405250810190613dd19190614e18565b6001600160a01b03161461097e5760405162461bcd60e51b815260206004820152602660248201527f43616e27742075706772616465206368616e67696e672074686520506f6c696360448201526579506f6f6c2160d01b60648201526084016108e1565b613e3f81612d8a565b6040516001600160a01b038216907fbc7cd75a20ee27fd9adebab32041f755214dbc6bffa90cc0225b39da2e5c2d3b90600090a250565b60606001600160a01b0383163b613ede5760405162461bcd60e51b815260206004820152602660248201527f416464726573733a2064656c65676174652063616c6c20746f206e6f6e2d636f6044820152651b9d1c9858dd60d21b60648201526084016108e1565b600080846001600160a01b031684604051613ef99190615449565b600060405180830381855af49150503d8060008114613f34576040519150601f19603f3d011682016040523d82523d6000602084013e613f39565b606091505b5091509150613f6182826040518060600160405280602781526020016154a6602791396147b4565b95945050505050565b600054610100900460ff1661257c5760405162461bcd60e51b81526004016108e190615074565b600054610100900460ff16613fb85760405162461bcd60e51b81526004016108e190615074565b61257c6147ed565b80546127106201000090910461ffff16111561402a5760405162461bcd60e51b815260206004820152602360248201527f56616c69646174696f6e3a206a72436f6c6c526174696f206d757374206265206044820152623c3d3160e81b60648201526084016108e1565b8054612710600160201b90910461ffff161180159061405457508054600160201b900461ffff1615155b6140aa5760405162461bcd60e51b815260206004820152602160248201527f56616c69646174696f6e3a20636f6c6c526174696f206d757374206265203c3d6044820152603160f81b60648201526084016108e1565b805461ffff6201000082048116600160201b90920416101561411a5760405162461bcd60e51b8152602060048201526024808201527f56616c69646174696f6e3a20636f6c6c526174696f203e3d206a72436f6c6c526044820152636174696f60e01b60648201526084016108e1565b8054619c4061ffff9091161180159061413c5750805461138861ffff90911610155b6141885760405162461bcd60e51b815260206004820181905260248201527f56616c69646174696f6e3a206d6f63206d757374206265205b302e352c20345d60448201526064016108e1565b8054612710600160301b90910461ffff1611156141f35760405162461bcd60e51b8152602060048201526024808201527f56616c69646174696f6e3a20656e7375726f5070466565206d757374206265206044820152633c3d203160e01b60648201526084016108e1565b8054612710600160401b90910461ffff1611156142605760405162461bcd60e51b815260206004820152602560248201527f56616c69646174696f6e3a20656e7375726f436f63466565206d757374206265604482015264203c3d203160d81b60648201526084016108e1565b8054612710600160601b90910461ffff1611156142cd5760405162461bcd60e51b815260206004820152602560248201527f56616c69646174696f6e3a207372526f63206d757374206265203c3d20312028604482015264313030252960d81b60648201526084016108e1565b8054612710600160501b90910461ffff16111561433a5760405162461bcd60e51b815260206004820152602560248201527f56616c69646174696f6e3a206a72526f63206d757374206265203c3d20312028604482015264313030252960d81b60648201526084016108e1565b8054600160901b900463ffffffff161580159061436457508054600160701b900463ffffffff1615155b61097e5760405162461bcd60e51b815260206004820152602160248201527f4578706f7375726520616e64204d61785061796f7574206d757374206265203e6044820152600360fc1b60648201526084016108e1565b6000807f7fffffffffffffffffffffffffffffff5d576e7357a4501ddfe92f46681b20a08311156143f1575060009050600361449e565b8460ff16601b1415801561440957508460ff16601c14155b1561441a575060009050600461449e565b6040805160008082526020820180845289905260ff881692820192909252606081018690526080810185905260019060a0016020604051602081039080840390855afa15801561446e573d6000803e3d6000fd5b5050604051601f1901519150506001600160a01b0381166144975760006001925092505061449e565b9150600090505b94509492505050565b6144af614820565b8385111561450a5760405162461bcd60e51b815260206004820152602260248201527f5072656d69756d2063616e6e6f74206265206d6f7265207468616e207061796f6044820152611d5d60f21b60648201526084016108e1565b614512614820565b6001600160a01b038816610160820152604081018690526020810185905260a0810184905264ffffffffff42811661018083015283166101a082015286516145669061455f9086906130df565b86906130df565b60c0820152602087015161457b9086906130df565b6060820181905260c082015110156145ab578060c00151816060018181516145a39190614e97565b9052506145b3565b600060608201525b60408701516145c39086906130df565b6080820152606081015160c08201516145dc9190615018565b816080015111156146145780606001518160c001516145fb9190615018565b8160800181815161460c9190614e97565b90525061461c565b600060808201525b6146656301e13380826101800151836101a0015161463a919061538a565b64ffffffffff168960a0015161465091906151ee565b61465a919061520d565b6060830151906130df565b6101208201526101808101516101a08201516146b6916301e133809161468b919061538a565b64ffffffffff168960c001516146a191906151ee565b6146ab919061520d565b6080830151906130df565b61014082018190526101208201516000916146d091615018565b90506146e98860800151826130df90919063ffffffff16565b606089015160c08401516146fc916130df565b6147069190615018565b60e0830181905260c0830151889183916147209190615018565b61472a9190615018565b11156147785760405162461bcd60e51b815260206004820152601960248201527f5072656d69756d206c657373207468616e206d696e696d756d0000000000000060448201526064016108e1565b8160e00151818360c001518961478e9190614e97565b6147989190614e97565b6147a29190614e97565b61010083015250979650505050505050565b606083156147c35750816111d6565b8251156147d35782518084602001fd5b8160405162461bcd60e51b81526004016108e191906149a3565b600054610100900460ff166148145760405162461bcd60e51b81526004016108e190615074565b6097805460ff19169055565b604051806101c00160405280600081526020016000815260200160008152602001600081526020016000815260200160008152602001600081526020016000815260200160008152602001600081526020016000815260200160006001600160a01b03168152602001600064ffffffffff168152602001600064ffffffffff1681525090565b6000602082840312156148b857600080fd5b81356001600160e01b0319811681146111d657600080fd5b803564ffffffffff811681146148e557600080fd5b919050565b6001600160a01b038116811461097e57600080fd5b60008060008060008060008060006101208a8c03121561491e57600080fd5b8935985060208a0135975060408a0135965061493c60608b016148d0565b955060808a013561494c816148ea565b945060a08a0135935060c08a0135925060e08a013591506149706101008b016148d0565b90509295985092959850929598565b60005b8381101561499a578181015183820152602001614982565b50506000910152565b60208152600082518060208401526149c281604085016020870161497f565b601f01601f19169190910160400192915050565b6000602082840312156149e857600080fd5b81356111d6816148ea565b805182526020810151602083015260408101516040830152606081015160608301526080810151608083015260a081015160a083015260c081015160c083015260e081015160e083015261010080820151818401525061012080820151818401525061014080820151818401525061016080820151614a7c828501826001600160a01b03169052565b50506101808181015164ffffffffff81168483015250506101a08181015164ffffffffff811684830152612e4b565b6101c081016107dd82846149f3565b634e487b7160e01b600052604160045260246000fd5b600067ffffffffffffffff80841115614aeb57614aeb614aba565b604051601f8501601f19908116603f01168101908282118183101715614b1357614b13614aba565b81604052809350858152868686011115614b2c57600080fd5b858560208301376000602087830101525050509392505050565b60008060408385031215614b5957600080fd5b8235614b64816148ea565b9150602083013567ffffffffffffffff811115614b8057600080fd5b8301601f81018513614b9157600080fd5b614ba085823560208401614ad0565b9150509250929050565b600060208284031215614bbc57600080fd5b5035919050565b600080600080600080600060e0888a031215614bde57600080fd5b873567ffffffffffffffff811115614bf557600080fd5b8801601f81018a13614c0657600080fd5b614c158a823560208401614ad0565b9750506020880135955060408801359450606088013593506080880135925060a0880135915060c0880135614c49816148ea565b8091505092959891949750929550565b60006101c08284031215614c6c57600080fd5b50919050565b6000806101e08385031215614c8657600080fd5b614c908484614c59565b946101c0939093013593505050565b600080600060608486031215614cb457600080fd5b8335925060208401359150614ccb604085016148d0565b90509250925092565b60008060408385031215614ce757600080fd5b8235600a8110614cf657600080fd5b946020939093013593505050565b801515811461097e57600080fd5b6000806101e08385031215614d2657600080fd5b614d308484614c59565b91506101c0830135614d4181614d04565b809150509250929050565b600181811c90821680614d6057607f821691505b602082108103614c6c57634e487b7160e01b600052602260045260246000fd5b6020808252602c908201527f46756e6374696f6e206d7573742062652063616c6c6564207468726f7567682060408201526b19195b1959d85d1958d85b1b60a21b606082015260800190565b6020808252602c908201527f46756e6374696f6e206d7573742062652063616c6c6564207468726f7567682060408201526b6163746976652070726f787960a01b606082015260800190565b600060208284031215614e2a57600080fd5b81516111d6816148ea565b6001600160a01b039586168152602081019490945260408401929092529092166060820152901515608082015260a00190565b600060208284031215614e7a57600080fd5b5051919050565b634e487b7160e01b600052601160045260246000fd5b818103818111156107dd576107dd614e81565b6001600160a01b039485168152602081019390935292166040820152901515606082015260800190565b80356148e5816148ea565b803582526020810135602083015260408101356040830152606081013560608301526080810135608083015260a081013560a083015260c081013560c083015260e081013560e0830152610100808201358184015250610120808201358184015250610140808201358184015250610160614f5b818301614ed4565b6001600160a01b031690830152610180614f768282016148d0565b64ffffffffff16908301526101a0614f8f8282016148d0565b64ffffffffff811684830152612e4b565b6101e08101614faf8285614edf565b826101c08301529392505050565b600060208284031215614fcf57600080fd5b81516111d681614d04565b634e487b7160e01b600052602160045260246000fd5b6020808252600e908201526d151dd9585ac8195e18d95959195960921b604082015260600190565b808201808211156107dd576107dd614e81565b6101e0810161503a8285614edf565b8215156101c08301529392505050565b634e487b7160e01b600052601260045260246000fd5b60008261506f5761506f61504a565b500690565b6020808252602b908201527f496e697469616c697a61626c653a20636f6e7472616374206973206e6f74206960408201526a6e697469616c697a696e6760a81b606082015260800190565b6000602082840312156150d157600080fd5b815160ff811681146111d657600080fd5b60ff82811682821603908111156107dd576107dd614e81565b600181815b8085111561513657816000190482111561511c5761511c614e81565b8085161561512957918102915b93841c9390800290615100565b509250929050565b60008261514d575060016107dd565b8161515a575060006107dd565b8160018114615170576002811461517a57615196565b60019150506107dd565b60ff84111561518b5761518b614e81565b50506001821b6107dd565b5060208310610133831016604e8410600b84101617156151b9575081810a6107dd565b6151c383836150fb565b80600019048211156151d7576151d7614e81565b029392505050565b60006111d660ff84168361513e565b600081600019048311821515161561520857615208614e81565b500290565b60008261521c5761521c61504a565b500490565b7f19457468657265756d205369676e6564204d6573736167653a0a00000000000081526000835161525981601a85016020880161497f565b83519083019061527081601a84016020880161497f565b01601a01949350505050565b601f82111561233657600081815260208120601f850160051c810160208610156152a35750805b601f850160051c820191505b818110156152c2578281556001016152af565b505050505050565b815167ffffffffffffffff8111156152e4576152e4614aba565b6152f8816152f28454614d4c565b8461527c565b602080601f83116001811461532d57600084156153155750858301515b600019600386901b1c1916600185901b1785556152c2565b600085815260208120601f198616915b8281101561535c5788860151825594840194600190910190840161533d565b508582101561537a5787850151600019600388901b60f8161c191681555b5050505050600190811b01905550565b64ffffffffff8281168282160390808211156153a8576153a8614e81565b5092915050565b6000600182016153c1576153c1614e81565b5060010190565b634e487b7160e01b600052603260045260246000fd5b600064ffffffffff808416806153f6576153f661504a565b92169190910492915050565b610220810161541182876149f3565b6001600160a01b039485166101c0830152929093166101e08401526bffffffffffffffffffffffff1661020090920191909152919050565b6000825161545b81846020870161497f565b919091019291505056fe360894a13ba1a3210667c828492db98dca3e2076cc3735a920a3ca505d382bbcbf372ca3ebecfe59ac256f17697941bbe63302aced610e8b0e3646f743c7beb2416464726573733a206c6f772d6c6576656c2064656c65676174652063616c6c206661696c656455435dd261a4b9b3364963f7738a7a662ad9c84396d64be3365284bb7f0a5041a2646970667358221220a614a86bfa38cf5785e529ff68adcbc1d8e4aa6e53834001d77bf0695bebdef964736f6c63430008100033",
  "linkReferences": {},
  "deployedLinkReferences": {}
}